:1000000000800020BD010000D52100008D210000EE
:100010008D2100008D2100008D2100008D21000028
:100020008D2100008D2100008D210000D5210000D0
:10003000D52100008D210000913700009538000087
:10004000D5210000D5210000D5210000D5210000D8
:10005000D5210000D5210000D5210000D5210000C8
:10006000D5210000D5210000D5210000D5210000B8
:10007000D5210000D5210000D5210000D5210000A8
:10008000D5210000D5210000D5210000D521000098
:10009000D5210000D5210000D5210000D521000088
:1000A00095130000A1130000D5210000D521000008
:1000B000D5210000D5210000D5210000D521000068
:1000C000D5210000D5210000D5210000D521000058
:1000D000D5210000D5210000D5210000D521000048
:1000E000D5210000D5210000D5210000D521000038
:1000F000D5210000053C0000D5210000313D000065
:10010000D52100005D3E0000D5210000D521000072
:10011000D5210000D5210000D5210000D521000007
:10012000D5210000D5210000D5210000D5210000F7
:10013000D5210000D5210000D5210000D5210000E7
:10014000D5210000D5210000D5210000D5210000D7
:10015000D5210000D5210000D5210000D5210000C7
:10016000C11B0000C5270000D5210000D5210000DB
:10017000D5210000D5210000D5210000D5210000A7
:10018000D5210000D5210000D5210000D521000097
:10019000D5210000D5210000D5210000D521000087
:1001A000D5210000D5210000D5210000D521000077
:1001B000D5210000D5210000D5210000564B4CF27E
:1001C000205210B51A804DF628121A8000BF00BFC9
:1001D00002F004F8514B4FF010621A60504A9A60D6
:1001E000504ADA60504A136813F4807304D14F49BF
:1001F0000B604FF4A85313604D4B1A78110703D5C9
:100200001A7842F008021A704A4B4B492A221A7097
:100210004A4A4B4B8B4204D252F8040F43F8040B6A
:10022000F8E7484B484900228B4202D243F8042B9E
:10023000FAE74649464A002352F8230041F82300D2
:1002400001336F2BF8D1434B434A802103F8011B44
:100250009342FBD1414B3D4A1A60414B8A221A70AE
:10026000A3F5805324225A70A0221A709A7992071B
:10027000FCD59A79D406FCD43A4A937903F00C035E
:10028000082B384BF9D103221A7140225A719A79FE
:100290009006FCD5334A9179324B4906FBD5324A58
:1002A000324911600221516020221A709A7902F0BD
:1002B0000C020C2AFAD12E4B2E4A1A602E4B2F4AD2
:1002C0001A6000225A60072243F8042C2C4AC3F813
:1002D0000C2D62B602F02CF9144B1B68DA0705D519
:1002E000284802F0B9F8284B284A1A60284B1B7896
:1002F0005B0609D5244C254B22689A4204D121483B
:1003000002F0AAF80023236003F06EFE01F06CFFF8
:1003100003F0C8FAFEE700BF0E200540308004401D
:10032000823F04000100002B10D0034014D0034092
:1003300002D0074000E00740F492FF1FF85200008F
:100340002087FF1FF492FF1FFC96FF1F0082FF1FF4
:100350000000000000E400E05FE400E008ED00E0E1
:100360000050064000400640448004400000030165
:1003700004800440C010050014E000E0FF76010096
:100380000000202019E4725C1CE00340A5C3945ACD
:1003900000F00740FFFFFFFFFFFFFFFFFFFFFFFF32
:1003A000FFFFFFFFFFFFFFFFFFFFFFFFFFFFFFFF5D
:1003B000FFFFFFFFFFFFFFFFFFFFFFFFFFFFFFFF4D
:1003C000FFFFFFFFFFFFFFFFFFFFFFFFFFFFFFFF3D
:1003D000FFFFFFFFFFFFFFFFFFFFFFFFFFFFFFFF2D
:1003E000FFFFFFFFFFFFFFFFFFFFFFFFFFFFFFFF1D
:1003F000FFFFFFFFFFFFFFFFFFFFFFFFFFFFFFFF0D
:10040000FFFFFFFFFFFFFFFFFFFFFFFFDEF9FFFF23
:1004100010B5054C237833B9044B13B10448AFF33E
:1004200000800123237010BDF492FF1F0000000024
:10043000FC520000084B10B51BB108490848AFF347
:1004400000800848036803B910BD074B002BFBD0A0
:10045000BDE81040184700BF00000000F892FF1FE1
:10046000FC520000F492FF1F0000000010B5294C60
:1004700040F6B831204601F0F9FC204626494FF4F9
:10048000E13201F0CDFC2046012101F0A3FC60B176
:10049000606C2249036811225B68984720460A2154
:1004A00001F00AFC204601F0B9FC012200211948A4
:1004B00001F0A4FD1A4800F045FC1A4801F082FA48
:1004C0001949184801F07CF9184A1648012101F031
:1004D0008DF90021134801F037FA124801F0E0F8D5
:1004E000134800F073FA0921124801F063FB0A2156
:1004F000114801F05FFB1521104801F05BFB16214C
:100500000F4801F057FB17210E48BDE8104001F0DD
:1005100051BB00BFB893FF1F008AFF1FB44F0000FC
:100520003C88FF1F4093FF1FD64F0000D04F0000B4
:100530003093FF1F8093FF1F1093FF1F1893FF1F1F
:100540002093FF1F2893FF1F2DE9F043554C8FB0D8
:1005500023680893089B23B923680993099B012BFF
:1005600020D9514D514E284601F0B8FB3268504910
:100570009042034608607AD39A1AF92A12D94FF4A6
:10058000FA712846336001F0B3FB0121284601F0DF
:1005900021FC00286DD14448022101F08DFB424826
:1005A00001F00EFC434FDFF83081DFF83091424C10
:1005B000424D434E052001F06DFF424801F070F8B6
:1005C0003B46424649460294019500963E4800F05B
:1005D00021FAB9F80030B7F800E0B8F800C0378861
:1005E000ADF82C302E8837482588ADF836502424B5
:1005F0002123012205A98DF81440ADF82EC0ADF8D5
:1006000030E0ADF83270ADF834608DF8183001F09C
:10061000BDF80BAC0EAD022221462A48144401F06D
:10062000B5F8AC42F7D1012206A9264801F0AEF890
:10063000052001F02FFF234801F028F9214801F09F
:10064000A9F80EA9042278B941F81C0D1D4801F043
:10065000ABF8079B012BF1D103211C4802F032FFBC
:100660001B4803F027F9E9E70FB0BDE8F0833360DA
:1006700098E72846012101F04DFB686C1549036895
:1006800001225B68984723680A930A99686C0023E3
:100690000A2203F01FF9284601F082FB284601F0E8
:1006A000BDFB78E70494FF1FB893FF1F6493FF1FFF
:1006B0006093FF1F5893FF1F5A93FF1F7C93FF1FE8
:1006C0002E93FF1F4093FF1F3093FF1FCC4F00005E
:1006D000008AFF1FC84F00006893FF1F5C93FF1F35
:1006E00010B51148114C01F0E3F9114801F0E0F99F
:1006F000104801F0DDF9104801F0DAF90F4801F077
:10070000D7F90F4800F05EF9112210210D4800F0D2
:10071000B9FF2046002103F06DF920460A4A0B4933
:10072000BDE8104003F04EBC8093FF1F6C93FF1F89
:100730001093FF1F1893FF1F2093FF1F2893FF1F85
:100740003093FF1F4093FF1FFC87FF1F7539000088
:1007500010B4047F4160022CC26002D010BC02F0D1
:10076000B5BF836810BC1847F0B4464B464A186BB7
:10077000DC6A01791170454922790A709A6A007918
:100780000870002A46D05968C9688A423ED8216854
:10079000CC8B240402F1FF3065D4C0F30E00C88373
:1007A000C88B80B2C882196B0968C88B000452D408
:1007B000C2F30E00C883C88B002480B212F1FF324E
:1007C000C88218BF01229C62D96A2E4809680D6848
:1007D00000F12404A54236D00068C46814F0804FAC
:1007E0000C680D6815BF248824780235013544F063
:1007F00000440D604463196B254B09791970214938
:1008000012B1CA6A12791A70F0BC7047521A9A6211
:100810000122D9E7586B196805681E4C0A63CC623F
:10082000CC682D681C4E24F080440327B542CC6070
:1008300083F825701FD1037F4260022BC2601ED057
:10084000F0BC02F043BF016890F82400CC6840F08F
:1008500000404863CFE7CC8BC2F3080004F47E4429
:100860002043C883A7E7CC8BC0F3080004F47E4480
:100870002043C88394E72B461146F0BC1847836891
:10088000F0BC18470088FF1F1F8000401C800040FC
:100890001B80004000000FFF5107000090E80C0093
:1008A000F0B41C6859682568164F174E294321601B
:1008B000164D17491760D66015611160417A154AC7
:1008C0005C180A3194F8244053F8215002EBC4011B
:1008D00049680D60017A5C1803EB8101247ECD69C3
:1008E00002EBC40149680D60817A581803EB81035B
:1008F00090F83000596B02EBC002F0BC53681960ED
:10090000704700BF01401F0001100038011000783F
:1009100000001F80445100004268036805CA10B4FB
:10092000046822430260DA6881B942F08072D968B3
:100930008A4209D0196848040BD40948186042F06B
:100940008040DA601861196010BC704722F0807234
:10095000EDE742F08041DA6010BC1961704700BFDA
:1009600001401F0043680CCB11680B4313607047B4
:100970004268036805CA10B4046822430260D8685C
:10098000840100F0E06205D5080900F4706021F4EC
:1009900070410143D8681143814209D01A6850045C
:1009A00008D40748186041F08040D96018611A6087
:1009B00010BC704741F08042D96010BC1A6170478A
:1009C00001401F0068230370704700BF30B583B03B
:1009D00004460123002500780093022203236B21A3
:1009E00000F026F920780095022304221B2100F054
:1009F0001FF920780095022304221C2100F018F929
:100A000020782B4606226B2103B0BDE8304000F071
:100A1000E7B800BF2DE9F0471A4D82B004462D8893
:100A2000007800958A46914698460E22631C3B2129
:100A30000A9F0B9E0C9D00F027F86278A37843EA8A
:100A40000223AAF80030E278237943EA0223A9F8C6
:100A500000306279A37943EA0223A8F80030627A71
:100A6000A37A43EA02233B80E27A237B43EA022310
:100A70003380627BA37B43EA02232B8002B0BDE874
:100A8000F08700BF3888FF1F2DE9F04FDFF8009195
:100A90008BB0D9F800400794BDF8506004900591E0
:100AA000DDF81CA00192002A6ED01F461F2A4FEAD3
:100AB00040034FF00008C8BF2022DBB2334D039241
:100AC000029344464FF0010B9DF8083005992F48DA
:100AD00085F83B3085F85EB085F85DB000F01EF912
:100AE00001212A4800F0BEFA019B0499274885F8A5
:100AF0005EB0C8EB03021F2A9DF8083085F83B3032
:100B0000D4BFD2B22022012385F85DB000F034FBBF
:100B100095F8392095F8383093420AD11BE0FF222E
:100B20000A7095F8392095F8383001349A4264B249
:100B300011D039193EB1D9F8000008900898CAEBD5
:100B40000000B04207D29342E9D2EA180133127E84
:100B500085F83830E4E7039B9844019B5FFA88F8F6
:100B60009845B1D366B1D9F800300993099BCAEB17
:100B7000030AB24504D3019B9C42B8BF4FF0FF3437
:100B800020460BB0BDE8F08F019CEBE73C88FF1FCF
:100B90000494FF1FF8B5114E470015463046012258
:100BA0001C4686F83B7086F85E2086F85D2000F0D3
:100BB000B5F855B1013D54FA85F5013C14F8011F13
:100BC000064800F0ABF8AC42F8D10121034800F030
:100BD00049FAB0FA80F04009F8BD00BF3C88FF1F19
:100BE000F0B5124C85B0248800941F4614460DF1D0
:100BF0000E03012205460E46FFF746FF01229DF82F
:100C00000E3002FA04F46FB923EA040404AB31464F
:100C100003F8014D284601228DF80E40FFF7BAFF78
:100C200005B0F0BD1C43E4B2F0E700BF3888FF1FF9
:100C30002DE9F041164D84B02D88009590461F4651
:100C400001220DF10E039DF8284005460E46FFF7E0
:100C50001BFFD0B1C7EB08080122904402FA07F746
:100C600004FA08F17B1E9DF80E4003FA08F7C9B29A
:100C7000394024EA070404AB0C4303F8014D314624
:100C800028468DF80E40FFF785FF04B0BDE8F081DF
:100C90003888FF1F0020704790F8392090F83800FE
:100CA000101A704790F8383090F839209A4205D9D8
:100CB0005A1C034480F83820187E70474FF0FF30EC
:100CC000704700BF90F8383090F839209A4286BFBC
:100CD0001B18187E4FF0FF30704700BF704700BFF1
:100CE00038B50546B0F85E0090B195F85D30144611
:100CF000C3F1210294420CD805F13B00184422466E
:100D000001F0AAF995F85D30234485F85D3020465E
:100D100038BD012014462871EEE700BFB0F85E3000
:100D20006BB190F85D30202B07D8C218013380F8E2
:100D30005D30012082F83B107047012303710020D1
:100D4000704700BF0023426980F8383080F839309E
:100D500080F85C3080F85D3080F85E3080F85F307D
:100D600006CA30B40D68046943662A4383660A6084
:100D7000A370426990F861301649146813441D7AD3
:100D80005B7B01EBC5051B026D6803F4E06343F078
:100D900064032B6090F8623013449D7CDB7D01EB93
:100DA000C5011B02496803F4E06343F064030B6070
:100DB00021685368194205D0036927225A700369D4
:100DC00004229A71036920225A71036980229A7061
:100DD00030BC70474451000010B50269D378DBB2D3
:100DE000D90604463DD510215806D17038D503F0F8
:100DF000040303F0FF02002B51D03D49626E002333
:100E00000B7084F85D30002A5BD0904794F85D3019
:100E1000002B56D02369D0229A70236994F83B2086
:100E20001A712369012284F85C200222DA7010BD55
:100E3000304B84F860009C424AD02F4B9C4252D0E9
:100E400094F8391013791F29DBB207D828480078A5
:100E500020B16018013184F8391003760223D37071
:100E600010BD5906C3D4917801F0100101F0FF00C4
:100E70000029DDD013F001031ED194F85C1094F822
:100E80005D00884281BF4B1C091984F85C3091F8E1
:100E90003B3013712369D0229A702269DEE72369FF
:100EA00084F83920C0229A702369114A19790121E6
:100EB00011700222DA7010BDC02393702269137979
:100EC000CCE70122002384F85D2084F83B30A1E7C1
:100ED000626994F86130094913440322187A01F0D9
:100EE000FBF92269ACE7626994F861300449F3E7E1
:100EF0008693FF1F3C88FF1FA888FF1F610F00001B
:100F00006D0F00000369DB7803F0200373B190F8E4
:100F100060300133DBB2012B80F860301AD94269AE
:100F200090F861301344187A01F052BA70B54269F2
:100F300003F0FF0590F8613013440446187A01F07D
:100F400047FAA36E5BB184F8385094F83900BDE8D5
:100F50007040184790F85F30002BE0D0704770BDAC
:100F60000148FFF7CFBF00BF3C88FF1F0148FFF7D4
:100F7000C9BF00BFA888FF1F2DE9F047374FDFF832
:100F8000E0903B68026982B006460093DDF800807D
:100F90000021A025D3789B065BD53B680193019B7C
:100FA000C8EB03030F2BF5D949B1102BF2D0002069
:100FB0009070336980229A7002B0BDE8F087726940
:100FC00096F8613013440521187A01F05DFA7269D0
:100FD00096F861301344012193F812A0504601F0B5
:100FE00053FA09240021504601F048FA2B46013BF0
:100FF000FDD10121504601F041FA2B46013BFDD1C4
:10100000013CEFD1706996F8611001444FF4A07271
:101010000C7A4B7B09EBC4011B02496803F4E063C3
:1010200043F064030B6096F862300344997CDB7DE7
:1010300009EBC1011B02496803F4E06343F0640358
:101040000B60013AFDD13269D3789B064FF0010164
:10105000A3D4012002B0BDE8F08700BF0494FF1FB5
:1010600044510000F0B503691222DA7002699378E6
:1010700003F0200385B004460D46002B5ED0B42358
:1010800093703C4922690B680093009E05E00B6851
:101090000193019B9B1B042B42D8D37803F02003C0
:1010A00003F0FF00002BF2D094F85D30002B31D01C
:1010B0004FF0000E4FF0020C04EB0E0393F83B30A0
:1010C00013710B680393039F206907E09B060DD5FE
:1010D0000B680293029BDB1B052B28D8C378DBB27D
:1010E00003F0020202F0FF06002AEFD080F803C0EE
:1010F0002669F378DBB2DF0632462DD49F062BD566
:10110000DB0731D40EF1010E94F85D305FFA8EFEEC
:101110007345D1D800201DBB002384F85E3004E065
:101120009070236980229A70042005B0F0BD86700B
:101130002369802204209A7005B0F0BD03F0FF06F9
:10114000FFF71AFF10B9042005B0F0BD236984F839
:101150005F60B0229A7094E78023B3700420DAE7CE
:1011600026698023B370D7E7BEF1000F0CBF0220C1
:101170000320F6E70494FF1F2DE9F04106690025DE
:10118000122780F8385080F83950F770D0F810C026
:101190009CF802E00EF0200E88B004468846154602
:1011A0001E46BEF1000F49D0B4238CF80230784BB4
:1011B00021691A680092DDF800E006E01A680192E1
:1011C0000198CEEB0000042830D8C87800F0200049
:1011D00000F0FF070028F1D04FEA480242F0010278
:1011E000D2B20A711A680292DDF808E0206906E0BE
:1011F0001A6803920399CEEB010105292AD8C17818
:1012000001F0020101F0FF070029F1D04FF0020CBC
:1012100080F803C02269D17811F0110722D12DBBCB
:10122000002E0CBFA0238023937003E08F702369EE
:1012300080229A70384608B0BDE8F0810EF0FF07B2
:10124000FFF79AFE0028F5D0236984F85F70B0227A
:101250009A70ACE787702369802238469A7008B08C
:10126000BDE8F081802393700027E3E7012D75D05E
:10127000A021917021690A79BE4667464FF0A80CFB
:101280001A680492049805E01A680592059A121AE1
:10129000052A4AD8CA7802F0020202F0FF08002AA2
:1012A000F2D0CF702169CA78D2B212F0100F08467E
:1012B0005AD1920658D5013DEDB2012D49D0BEF16B
:1012C0001F0F3BD90A79012DDAD11A680692069DC3
:1012D00005E01A680792079A521B052A46D8C27879
:1012E00002F0020202F0FF01002AF2D00223C370D2
:1012F0002269D378DBB2D9063AD49B0634D5B02321
:10130000BEF11F0F93703FD8226904EB0E031279D0
:101310001A760EF1010E5FFA8EFE16B12369802255
:101320009A7084F839E0774684E781F8028023696F
:1013300080229A70774684F839E07BE704EB0E024E
:1013400091F8048082F818800EF1010E5FFA8EFE8B
:10135000B9E781F802C021690846B0E7A821917079
:101360002069BE460279B0E7774663E78170DEE721
:101370001021A023D170013BFDD12269937803F0A5
:10138000F7037746937055E723691B79C5E700BFDC
:101390000494FF1F0148FFF71FBD00BF3C88FF1FDB
:1013A0000148FFF719BD00BFA888FF1F03884288C6
:1013B0009A4203D0D8B2012101F060B8704700BF53
:1013C00038B504460D460B480121FFF7A5FA002168
:1013D0000848FFF7C7FA08490648FFF7C9FA29463F
:1013E000A07801F04BF863695B0101D0013BFDD1AE
:1013F00038BD00BF0088FF1F0320033838B50C46F6
:1014000000210546FFF7DCFF0D4B1B6804F01F04AD
:101410004FF00042DA625C63DA6A002AFCDA4FF0CD
:101420000041FF22986BD9625A63DA6A002AFCDA1B
:101430009C6B28460121FFF7C3FFE0B238BD00BF17
:101440000088FF1FF8B50E46002114461F460546CA
:10145000FFF7B6FF124B06F01F02196842F0200298
:101460004FF00043CB624A63CA6A002AFCDA8E6BF3
:10147000781EF6B2C0B26FB12044621E4FF0004435
:1014800012F8013FCC624B63CB6A002BFCDA82423C
:101490008B6BF5D128460121FFF792FF3046F8BD4E
:1014A0000088FF1F70B50C46002116460546FFF761
:1014B00087FF0E4B04F01F041B6844F020044FF01C
:1014C0000042DA625C63D96A0029FCDA9C6B4FF057
:1014D0000042DA62E4B25E63DA6A002AFCDA284685
:1014E00001219B6BFFF76CFF204670BD0088FF1F3A
:1014F0002DE9F8430D46C1790646007A91428946A6
:101500001F4628BF9146002840D1C9EB01015FFA70
:1015100081F808F1FF34E4B200213046FFF750FFB4
:101520001C4B19684FF00043CB624F63CB6A002B12
:10153000FCDA8F6B09F1FF30FFB2C0B2B9F1000FD6
:101540000DD028446A1E4FF0004512F8013FCD62CD
:101550004B63CB6A002BFCDA82428B6BF5D1B8F17E
:10156000000F0CD04FF000400022C8624A63CB6AE3
:10157000002BFCDA013CE4B2FF2C8B6BF5D130463A
:101580000121FFF71DFF3846BDE8F883FF244FF027
:101590000008C1E70088FF1F2DE9F047C3790D4619
:1015A000017A93429946064628BF914600294AD1BE
:1015B000C9EB03035FFA83F808F1FF34E4B20021BA
:1015C0003046FFF7FDFEDFF888E0DEF800104FF050
:1015D00000426123CA624B63CB6A002BFCDA8F6B3B
:1015E00009F1FF305FFA87FAC0B2B9F1000F11D0EC
:1015F00028446A1E4FF00047FF25CF624D63CB6A37
:10160000002BFCDA8B6B02F8013F824202D0DEF83D
:101610000010F2E7B8F1000F0ED0DEF800204FF016
:101620000040FF21D0625163D36A002BFCDA013CF9
:10163000E4B2FF2C936BF5D130460121FFF7C0FED9
:101640005046BDE8F087FF244FF00008B7E700BF21
:101650000088FF1F38B50C4600210546FFF7B0FE95
:10166000074B1A684FF00043D3625463D36A002BD0
:10167000FCDA946B28460121FFF7A2FEE0B238BDE8
:101680000088FF1F70B4002405252026C6718471D0
:1016900004724472857345610180428070BC70475A
:1016A00010B5044600886388834203D0C0B200218D
:1016B00000F0E4FE23695B0101D0013BFDD11D2157
:1016C0002046FFF79BFE830706D523695B011AD1ED
:1016D000E1212046FFF7BEFF00212046FFF78EFEE6
:1016E000002100F0FE022046FFF7DCFE022120462A
:1016F000FFF784FE40F00102D2B220460221BDE88D
:101700001040FFF7CFBE013BFDD1E1E710B500214E
:101710000446FFF773FE00F0020303B110BD40F072
:10172000020203F0FF012046D2B2FFF7BBFE052004
:10173000BDE8104000F0AEBE002B10B518BFB023BE
:10174000044608BFA023FFF7D3FE2046FFF72EFE76
:10175000FF212046FFF77EFF10F0300FF8D02088E1
:101760006388834203D0C0B2002100F087FE70225C
:1017700007212046FFF796FEC30601D4012010BDC5
:101780002046E121FFF766FF002010BD0023FFF790
:10179000D3BF00BF08B51721FFF730FE00F00100EE
:1017A00080F0010008BD00BF10B50446FFF7F4FE4D
:1017B000204670220721BDE81040FFF773BE00BF2E
:1017C00038B504460D460A46837B0A21FFF73AFEE8
:1017D0002A46A37B20461021FFF734FEE2792046FB
:1017E0001121BDE83840FFF75DBE00BF70B505466A
:1017F00016460C4601B3062900D970BD012920D038
:1018000014490123095DFFF71DFE134BEA79195DA9
:101810002846FFF747FE02212846FFF7EFFD0F4B52
:101820001A5D012303FA02F20243D2B228460221D2
:10183000BDE87040FFF736BE827B3146093000F0CC
:101840000BFC044AAB7B115D28463246FFF7FAFDDC
:10185000DBE700BFC0500000B8500000C8500000D7
:1018600038B50D4602210446FFF7C8FD064B5A5D08
:10187000012303FA02F220EA0202D2B22046022138
:10188000BDE83840FFF70EBEC850000010B5044652
:10189000FFF73CFF00212046FFF7B0FD40F00102BA
:1018A000D2B200212046FFF7FDFD2046702207211D
:1018B000FFF7F8FD20886388834203D0C0B201217E
:1018C00000F0DCFD617A69B1A37B04F109020A2111
:1018D0002046FFF7B7FD1D212046FFF78FFD830748
:1018E00009D410BD2046FFF7BBFF1D212046FFF79E
:1018F00085FD8307F5D52046E121BDE81040FFF7BF
:10190000A9BE00BF10B500210446FFF759FD0D4BDD
:101910001B684FF000415022D9625A63DA6A002AEC
:10192000FCDA4FF000417322986BD9625A63DA6A8D
:10193000002AFCDA20469B6B0121BDE81040FFF72E
:101940003FBD00BF0088FF1F38B50C460621054685
:10195000FFF754FD032C9CBF6400013400F0F80233
:1019600094BF04F0FF040724224328460621BDE863
:101970003840FFF797BD00BF70B50E4606210446FC
:10198000FFF73CFD022E00F0D70514D0012E12BF48
:10199000FA23BE2345F0080523612A460621204686
:1019A000FFF780FD20460621FFF728FD281AB0FA30
:1019B00080F0400970BD4FF4E17345F020052361CC
:1019C000EBE700BF70B504460088638883420BD004
:1019D000C0B2012100F058FD60882388834203D003
:1019E000C0B2012100F050FD3048FEF757FF2088BB
:1019F0006388834203D0C0B2002100F03FFD012183
:101A00002046FFF7DDFC052000F044FD0C220021FC
:101A10002046FFF747FD04215F222046FFF742FDE5
:101A200002212046FFF7A8FF08B10123A371062178
:101A30002046FFF7E3FC002105462046FFF79CFF08
:101A40002046FFF75FFF002600221D212046FFF7FA
:101A500029FD32461C212046FFF724FD2672702204
:101A600007212046FFF71EFD4C2205212046FFF7E7
:101A700019FDE2212046FFF7EDFDE1212046FFF7A9
:101A8000E9FD2046FFF742FE31462046FFF7B6FC4F
:101A9000314600F0FE022046FFF704FD681EC0B28A
:101AA000FD288CBF0020012070BD00BF0088FF1FF3
:101AB00070B40F4E0023358803710C2101221542AA
:101AC0004FEA42040AD00379013903F10103A2B2BB
:101AD0000371F4D1FF23037170BC704705490B8873
:101AE000154323EA020235800A8070BC704700BFAC
:101AF0009093FF1F8C93FF1FF8B506790B2E01D929
:101B00003046F8BD0746CEB2304601211C46154688
:101B100000F0BAFC1C483A791C4B01889E54012302
:101B200093400B431A4903800B681A4805EB45059F
:101B300004EB4404AD00A40044F2506613F48003A7
:101B40003D807C8020F8126016D10A68124D13483F
:101B5000DFF85CE0124E134C42F480020A604FF64C
:101B6000FF722A601049CEF8003042F6A27520229A
:101B700033600560016022700C4B4FF480721A6074
:101B80003E793046F8BD00BF8C93FF1FAC93FF1F1A
:101B90003C8004409493FF1F0460034000600340B6
:101BA0000C60034048E400E0A22F010008E100E0DF
:101BB000086003404FF416634FF40872FFF79CBFB0
:101BC000F8B5314E314D96F900202B881341DC07D2
:101BD00052D42F4C94F900300B2B0EDC298841FA9B
:101BE00003F2D00702D52DE0D2072AD401335BB22D
:101BF0000C2B41FA03F2F7D1237026480268C2F594
:101C00006A3101F5C071B1F5966F17DB4EF66023AE
:101C10008B42A8BF0B461A441F4902600E681F4D35
:101C20001F4A1C4F334442F6A3760B602E600368B4
:101C3000934202D900233B602370F8BD4FF49663B2
:101C4000E9E72370174A0121D05C00F017FC94F9F2
:101C50000030104A1449104831F81350116833709D
:101C60002944116002680D492A44013342F6A375E4
:101C700002600D602370F8BD0A4B0021985C00F0F3
:101C8000FDFB0C233370A4E71489FF1F8C93FF1F07
:101C90008E93FF1F8893FF1F0C600340006003407A
:101CA0007FA90300AC93FF1F9493FF1F01F0A4BB17
:101CB00001F0C6BB01F0DCBB074882B003680193AA
:101CC000019A114401E0994204D303680093009BF8
:101CD0009A42F8D902B070470494FF1F034B82B0B8
:101CE0001B680193019802B0704700BF0494FF1F66
:101CF00010B4074B82681B68016183B00024019314
:101D0000019B4461C260836003B010BC704700BF98
:101D10000494FF1FF0B51E4B1E4D1A680446406C1C
:101D200083B0036801920F465B681B49019E06223F
:101D300098473946606C00230A2201F0CBFD606CA5
:101D40001649036803225B6898473146606C00239C
:101D50000A2201F0BFFD606C036829465B6801221E
:101D60009847A168606C711A00230A2201F0B2FD45
:101D7000606C036829465B6801229847E368A168A4
:101D8000606CC91A0A22002301F0A4FD03B0F0BD63
:101D90000494FF1FDC500000D0500000D850000019
:101DA00010B5446C0549236820465B6806229847B5
:101DB0002046BDE8104001F07DBD00BFE0500000AE
:101DC000034B82B01B680193019B836002B0704794
:101DD0000494FF1F10B4104A85B0A1B91368009392
:101DE0004168009B591A20290DD813680293029C60
:101DF00004F12103591A01E0994204D313680193B5
:101E0000019B9C42F8D913680393039B4360012014
:101E100005B010BC704700BF0494FF1F704700BF9F
:101E20002DE9F0410D4D0E4EDFF83C800D4F416421
:101E30001B2401E000F02EFB2B78C82043B133783F
:101E4000DB0705D5D8F800303A689B1A0E2B03D86B
:101E5000013CEFD1BDE8F081BDE8F081E894FF1FBF
:101E60000095FF1FF496FF1F0494FF1F0023836457
:101E7000436071B1074882B003680193019A11442D
:101E800001E0994204D303680093009B9A42F8D979
:101E900002B070470494FF1F70B5144C84B005461F
:101EA000406C236803930368039A6A600E465B687C
:101EB0000F4906229847314600230A22686C01F038
:101EC00009FD686C0B49036808225B689847236822
:101ED0000293029A02F1320101E0994204D323688D
:101EE0000193019B9A42F8D904B070BD0494FF1F7E
:101EF000E8500000F0500000F8B5037E0BB96320F5
:101F0000F8BD0446406C3B4E03681B69B3420D4666
:101F10006AD101F0ADFA10F0FF0F01D16520F8BDD4
:101F2000354F606C03681B69B3425FD101F0A0FAC2
:101F300010F0FF0FF2D0606C03685B69BB4257D1B1
:101F400001F05AFAC3B2A3F158021E2AE9D801A13E
:101F500051F822F0E11F0000231F0000231F0000A2
:101F6000231F0000231F0000231F0000231F000069
:101F7000231F0000231F0000231F0000231F000059
:101F8000D51F0000231F0000231F0000231F000097
:101F9000231F0000FF1E0000231F0000231F00005E
:101FA000231F0000231F0000231F0000231F000029
:101FB000231F0000231F0000FF1E0000231F00003E
:101FC000231F0000231F0000231F0000D11F00005B
:101FD0001846F8BD20462946FFF75EFF6320F8BD8E
:101FE000002323766320F8BD984794E798479FE73E
:101FF0009847A7E7B51C0000AD1C000070B505466A
:1020000082B01646C9B101230D4C03760021284643
:10201000FFF772FF632810D023680193019A511CC7
:1020200023680093009B9A42F0D89942F8D200218D
:102030002846FFF761FF6328EED12E7602B070BD0F
:102040000494FF1F034B00229A60DA601A615A6100
:10205000704700BFB893FF1F844641EA000313F0A6
:1020600003036DD1403A41D351F8043B40F8043B9F
:1020700051F8043B40F8043B51F8043B40F8043B62
:1020800051F8043B40F8043B51F8043B40F8043B52
:1020900051F8043B40F8043B51F8043B40F8043B42
:1020A00051F8043B40F8043B51F8043B40F8043B32
:1020B00051F8043B40F8043B51F8043B40F8043B22
:1020C00051F8043B40F8043B51F8043B40F8043B12
:1020D00051F8043B40F8043B51F8043B40F8043B02
:1020E00051F8043B40F8043B403ABDD2303211D3A2
:1020F00051F8043B40F8043B51F8043B40F8043BE2
:1021000051F8043B40F8043B51F8043B40F8043BD1
:10211000103AEDD20C3205D351F8043B40F8043BA1
:10212000043AF9D2043208D0D2071CBF11F8013B9F
:1021300000F8013B01D30B8803806046704700BF65
:10214000082A13D38B078DD010F003038AD0C3F174
:102150000403D21ADB071CBF11F8013B00F8013B56
:1021600080D331F8023B20F8023B7BE7043AD9D315
:10217000013A11F8013B00F8013BF9D20B780370EA
:102180004B7843708B7883706046704708B5104C6D
:1021900008E0236859050DD423681A050FD4236875
:1021A000DB0411D423685803F3D500F00BFB23683C
:1021B0005905F1D501F026FD23681A05EFD501F088
:1021C000B7FD2368DB04EDD501F048FEEAE700BF68
:1021D0003480044008B5FFF7D9FF00BF014B10223F
:1021E0001A80704700200540704700BF094908B5B4
:1021F0000B6830B16A461844A2F58052904202D270
:102200000860184608BD01F0E9FE0C2303604FF09A
:10221000FF3008BD1889FF1F704700BF10B40F4B77
:1022200053F8302092F880422CB1012369B182F832
:10223000803010BC704703EBC0035B681A6841B97B
:1022400022F002021A6010BC704782F8003110BC04
:10225000704742F003021A6010BC704744510000FE
:102260001C4A02EBC00301295B6811D004291BD072
:1022700052F83000002280F8802229B1022920D0B3
:10228000032922D01A6070474FF480721A60704799
:1022900052F830004FF4A27280F880121A601A6867
:1022A00022F020021A60704752F830104FF4A272E8
:1022B000012081F880021A601A6842F020021A6038
:1022C000704740F203121A6070474FF481721A602F
:1022D000704700BF44510000212848D8F8B5042AAF
:1022E00044D8DFE802F0484B4E0345004FF4102677
:1022F0002B4B03EBC0030D465C68216811F4E061D1
:1023000048D0284B284A2949C3F89C2104F140426F
:102310002748C3F8A411A2F59221264FC3F8A001C3
:102320007C292548C3F8A871C3F8AC012CD9A2F5C3
:1023300094237C2B2AD9A2F596237C2B28D9A2F5AD
:1023400098237C2B29D9A2F59A227C2A27D81B48CE
:1023500072B6236823F4702343F08072C4F38401BF
:102360001643236040F82150266062B6F8BD7047DE
:102370004FF43026BCE74FF40026B9E74FF440266F
:10238000B6E74FF42026B3E70D48E1E70D48DFE755
:102390000D48DDE7FFF764FFB3E70C48D8E7F8BD69
:1023A000445100000082FF1FD187FF1F7987FF1F64
:1023B000A587FF1F4D87FF1F2187FF1FF489FF1F80
:1023C0001C89FF1F5489FF1FA489FF1FD489FF1F89
:1023D0001A4B03EBC00010B4426802F14043A3F56E
:1023E00092217C2923D9A3F594217C290DD9A3F529
:1023F00096217C291FD9A3F598217C2919D9A3F509
:102400009A237C2B11D80E4C00E00E4C72B6136848
:102410000D4823F08773C2F3840123F4803343F023
:102420008073136044F8210062B610BC7047074CFB
:10243000ECE7074CEAE7074CE8E700BF445100002F
:10244000F489FF1F5489FF1F192200001C89FF1FF8
:10245000D489FF1FA489FF1F30B4054B054D064CDE
:10246000002210211A602A602060196030BC704779
:1024700014D0034004D0034000D00340212801D8E9
:10248000FFF7CCBE704700BF212801D8FFF7E8BE98
:10249000704700BF2DE9F843054672B6204F214B27
:1024A000214A1B683C68126862B6520102D5322B81
:1024B00088BF013495B3C3F5BB331C4EDFF864907D
:1024C000DFF86480FF334FF47A72A6FB031302FB3C
:1024D00004F404EB931472B6D9F800103A68D8F8F3
:1024E00000E062B6C1F5BB33FF33A6FB03031EF069
:1024F000806FC4EB93134FF47A7002D0322988BFF7
:10250000013200FB0233B3F57A7F04D3013D05D0DD
:1025100004F57A74DFE701F081FADCE7BDE8F883BF
:102520000494FF1F18E000E004ED00E0ABAAAAAAA3
:10253000F8B52D4B2D49DFF8D0E0DFF8D0C02C4E98
:102540002C4D2D4C2D4A2E4F4FF4000018604FF0AB
:10255000807018604FF0007018604FF08060186055
:102560004FF0006018600020086028234BF6FF71D0
:10257000CCF80010CEF80030336013602B6023607D
:102580003B60B3629362092245F8242CC4F8D80F4B
:1025900005F57F65C7F8D41F07F5FF2707F5FA672C
:1025A000C6F8F83F2B6006F5FF26C4F8D42F05F5D2
:1025B000FD2504F5FF24386006F2F47611483160F9
:1025C00005F5FF6504F5FD642B602360026001F0F2
:1025D00073FA1920FFF75EFF00F05CFE40F2131063
:1025E000BDE8F840FFF756BF08E100E00480034073
:1025F00014800340248003402C8003401C8003404F
:102600003480034000800B400C800340088003406E
:10261000431E032B14D872B60A4951F8230068B13F
:1026200070B4094C058834F81320466841F82360DB
:10263000521B24F8132062B670BC704762B6704714
:10264000002070476094FF1FE496FF1F01380328A5
:102650000BD872B6074B53F8203043B100205B68AB
:102660000130002BFBD162B670470020704718463E
:10267000F9E700BFB494FF1F30B472B62B4A137849
:102680001D0706D52A4B196A002936D0996A0029F8
:1026900041D053781C0706D5254B196C00293ED034
:1026A000996C002939D09378190705D5204B196EFC
:1026B000002936D0996E89B1D3781B0707D51C4BFA
:1026C000D3F880207AB3D3F8882011213AB162B6CA
:1026D000184B00221A7030BC00F068BE0D21154C5A
:1026E000154D227843F8315003EBC1030830013A0D
:1026F0005860227062B630BC704704220D4C0F4DFA
:10270000217843F8325003EBC20308304A1E586068
:10271000227062B6EFE70521E1E70921DFE7082231
:10272000ECE70C22EAE71022E8E700BF8052000045
:102730000080FF1FDD94FF1FC8004000880040009C
:10274000431E032B1DD81B4A400140F0100030B43B
:10275000104472B6184CE25C032A1BD8DFE802F082
:102760000212151703220D88E25410F0080F14BF4F
:10277000C823882343EA054308310360416062B6F9
:1027800030BC704708300222EDE70522EBE7083045
:102790000422E8E7094A52F8230038B1084A52F8FF
:1027A0002300416042F8231062B6E9E742F82310A3
:1027B000034AF7E70080FF1FEC94FF1FB494FF1F4C
:1027C000C494FF1F2DE9F04FDFF80CB3DFF80CA322
:1027D00087B044E0AB4F4FEA930807EBC809013ECE
:1027E000D9F8042003F00803F6B2A2F1080003F0C0
:1027F000FF04002B40F0028157F838301B0C99B2CF
:1028000022F8081C002B00F0F0809F4B22F8064CA9
:1028100042F8044C53F82620002A00F0C5829B4D54
:1028200055F8263058609A4C45F8260034F8163092
:10283000194424F8161000F099FD002800F0AD822C
:10284000944A954B19F0080F00F1080018BF134681
:10285000C9F8040047F8383008238BF800309BF89B
:102860000040E4B261071AD58C4B1B78A3B18C49A8
:102870000A7802F0FF0322B1013BDBB20B7003B90F
:1028800000BE88490A7802F0FF032AB1013BDBB29F
:102890000B70002B00F0578204238BF8003004F0FB
:1028A000080303F0FF02002B00F0CC809AF8003000
:1028B000DBB21E098ED19C08DFF8C89159F834208C
:1028C00009EBC401C2F38302013A49680C2A00F201
:1028D0008880DFE802F07C7C86868686868647864E
:1028E000868607000868704D4A68704F704E2860F1
:1028F00081B240F28160674B6A604FF0010E0022A6
:10290000814249F834303A60C9F81020C9F81820DB
:1029100086F800E05B4C00F2E380B1F5D06F80F008
:102920004683B1F5817F00F0FC8200F28D82802920
:1029300000F07783822940F0FA82A98801F07F01B4
:10294000042900F2F4825B485B4C89000844227041
:1029500062700278930740F1588484F800E04FF0E9
:10296000020E42E3514F3A6832B3544B504E544931
:10297000188834780D784028864645F0020828BF2C
:102980004FF0400E002C84F001043470CEEB0000B8
:102990000CBF8824C82409EBC80680B285F0010565
:1029A00044EA0E447260188049F8384072440D7051
:1029B000002800F045813A603B4B1A88B2F5A06FC1
:1029C0000FD100219A7859703E4B1A7009E0364AAF
:1029D000108842F22102904200F037812D4A49F8D6
:1029E0003420394A0123137036E72A4A2A4B19F05A
:1029F000080F18BF134647F838302DE700F0D6FC13
:102A0000324A334952F82630002B00F0D181586801
:102A10008C5D42F8260003F10802C9F80420032C5B
:102A200005D8DFE804F02C02292602228A551A88EC
:102A300019F0080F0CBF8823C82343EA024347F864
:102A4000383009E7E00700F18181210600F1F281C9
:102A5000A20706D51F4A204913780220DBB2137063
:102A60000870E30602D51C4B10221A7007B0BDE8AF
:102A7000F08F04228A55DAE705228A55D7E7032228
:102A80008A55D4E70080FF1F6094FF1F0C94FF1F3E
:102A9000E496FF1FC800400088004000E894FF1F34
:102AA0007194FF1FF094FF1FD494FF1F0894FF1F21
:102AB0007094FF1FC0200740E094FF1F1C94FF1F6D
:102AC000DC94FF1F9820074094200740B494FF1F18
:102AD000EC94FF1F8820074080200740902007408B
:102AE00042F22100814200F02A8100F2D880B1F543
:102AF000086F00F07682B1F5106F40F01882226AFC
:102B0000B349A8780870120600F13A83D9F8282052
:102B1000B049130600F10C83D9F83020AD491506F1
:102B200000F10183D9F83820AA49140600F1F68291
:102B3000D9F84020A749100600F14A83D9F8482067
:102B4000A449120600F13F83D9F85020A149130689
:102B500000F13483D9F858209E49150600F12983E5
:102B6000D9F860209B49140600F11E83D9F868202B
:102B70009849100600F11383D9F870209549120680
:102B800000F10883D9F878209249130600F1FD82FC
:102B9000D9F880208F49150600F13183D9F88820B3
:102BA0008C49140600F12583D9F890208949100634
:102BB00000F11983D9F898208649120600F10D8397
:102BC0008548864A864901908648874D874C0497F8
:102BD00000230596029580460F4616461D4603942F
:102BE000306828B1446800F0E1FB2046002CF9D1A0
:102BF00000233360029B38681A46002342F82530D0
:102C000028B1446800F0D2FB2046002CF9D1002204
:102C10003A60019A98F800301146002241F8042BDE
:102C2000039A0191023B4FF0000122F81510032B8B
:102C300000F22B81DFE813F07001250170012501FE
:102C4000BEF1400F18BF0022B5E6694A0D784878FA
:102C5000157050708D78C8789570D07010680D79A7
:102C6000157186284D7989795571917100F09B8194
:102C70006049614E0A78307882F00105002842F000
:102C800002020D700CBF8821C82149F8321009EBEF
:102C9000C20280F001000021307051609EE642F2D5
:102CA0002120814240F0CB81544B554C5549A878A6
:102CB0001D682560CDF804E0087000200290804671
:102CC000844604464B490D7845F0020E09EBCE03CD
:102CD0000393019B002B039B5C600CBF8824C824DA
:102CE00044EA080385F0010449F83E3032700C7064
:102CF000DFF8E0E0404BDFF8FC80002840F01E8168
:102D0000BCF1400F1BD144F0020C09EBCC03029C38
:102D1000DFF8C0E05C60002A40F02681020442F047
:102D200088029DF804304EF83C20044433700D7046
:102D30002346402803D10020334A3B601080334AA9
:102D4000012313704DE600F09DFCA5E5214B2F48B3
:102D500028491A614FF0020E80F800E02C4F0A70EB
:102D60002C49196099602C4E2C4D2D4C9A610D21E7
:102D70003970FF213170DFF8B8E029702270294DD9
:102D8000294A8EF800109F27012406F8047C5D6014
:102D90000470DA6007B0BDE8F08F244A47F83800C5
:102DA00013780133137057E543F826000E4D3AE5CA
:102DB0008B5D032B00F2F08001A252F823F000BFDC
:102DC00059280000592800007D2E0000772E0000B1
:102DD000E894FF1F0080FF1FC494FF1F6094FF1F33
:102DE000B494FF1FEC94FF1F0C94FF1FE496FF1F89
:102DF000EC96FF1FDC94FF1F7094FF1F0494FF1FCD
:102E0000F496FF1F0095FF1F1C94FF1F942007409E
:102E1000C0200740880040008820074080200740ED
:102E2000982007402094FF1F7494FF1FDD94FF1F1C
:102E30008C200740C149C24B80220D2008701A70B7
:102E4000A2077FF50EAE05E640F20232914240F055
:102E5000EE80A98801F07F01042968D86A88002AD9
:102E600065D1B648CDF804E089000844017841F006
:102E70000201017021E701238B55EDE400238B55FE
:102E8000EAE44FF0010388F800300135042D06F123
:102E9000040607F1040708F101087FF4A1AEA94C6C
:102EA000A94B2278A94D049F059E002129701A7014
:102EB000130700F105816278A549DFF8A0820A7046
:102EC00010074FF00001C9F83010C9F8381000F1B0
:102ED000E080A049A2780A700021C9F85010C9F812
:102EE00058101107DFF8748200F10181E2789A49E5
:102EF0009A4C0A7000211207C9F87010C9F87810AE
:102F000000F1B08033780193002183F00102C9F809
:102F10009010C9F89810D0E64FF0000388F8003000
:102F2000B3E7A98801F07F01042940F28D80834A2C
:102F30000F2313708A4A0123137052E540287FF64D
:102F4000E2AE44F002040EEBC401029E4E60BAB140
:102F50009DF80410834A19703346403888F80050B1
:102F600040334EF83420E7E69DF804303370020415
:102F7000029B0D7042F0C80203444EF83C20D8E694
:102F80009DF804101970029B774A88F80050403869
:102F900040334EF83420CFE619F0080F0CBF02235F
:102FA00003238B5558E4714A0F21117060E6704A73
:102FB0005468002CBBD06888B5F804E003E00C32FC
:102FC0005468002CB3D013888342F8D153887345DA
:102FD000F5D1000A03280CBF94F800E0B2F808E02D
:102FE00003E0644A644C12782270E888704580F0EF
:102FF0003F8162490D784028844645F0020E28BF83
:103000004FF0400C04EB0C0309EBCE0202930123BA
:103010005460CCEB00004FEA0C4800220193C82416
:103020005EE6554C4FF0020E22706270DDE7B1F59E
:10303000A06F7FF47CAF0123002201933DE642F2B2
:1030400021329142F7D072E76A88002A7FF46FAF8D
:103050003A48CDF804E089000844017821F00201E3
:1030600001702AE600F082F9002800F0EF800830B5
:103070003D4AC4F88400C4F8802000F077F90028A5
:1030800000F0DE800830374AC9F88C00C9F8882083
:1030900038E700F06BF9002800F0C0800830324AB1
:1030A000C8F84400C8F8402000F060F9002800F09B
:1030B000AF8008302B4AC9F84C00C9F8482008E70F
:1030C00000F054F9002800F0CD800830264AC9F8F5
:1030D0002400C9F8202000F049F9002800F0BC8045
:1030E0000830204AC9F82C00C9F82820E3E600F08F
:1030F0003DF9002800F09E8008301B4AC8F86400A3
:10310000C8F8602000F032F9002800F08D80083007
:10311000144AC9F86C00C9F86820E7E6C86B08389B
:1031200000F044F904E5486B083800F03FF9F9E491
:10313000C86A083800F03AF9EEE400BFC020074042
:103140008020074080520000C4200740DD94FF1F0C
:10315000C8200740CC200740D02007400080FF1F38
:1031600094200740C8004000880040007194FF1F71
:1031700084520000E894FF1FE094FF1FDC94FF1FBF
:10318000606A083800F012F9C0E4C86F083800F02F
:103190000DF9FDE4486F083800F008F9F2E4C86E54
:1031A000083800F003F9E7E4486E083800F0FEF84C
:1031B000DCE4C86D083800F0F9F8D1E4486D08384F
:1031C00000F0F4F8C6E4C86C083800F0EFF8BBE48F
:1031D000486C083800F0EAF8B0E4D1F89C000838F0
:1031E00000F0E4F8ECE4D1F89400083800F0DEF8E0
:1031F000E0E4D1F88C00083800F0D8F8D4E4D1F835
:103200008400083800F0D2F8C8E44FF0020EECE673
:103210002A78C9F8480001322A705AE62A78C8F894
:10322000400001322A703FE72A78C9F8680001326D
:103230002A705BE62A78C8F8600001322A7061E7DC
:103240002A78C9F8880001322A705BE62A78C4F827
:10325000800001322A7010E72A78C9F8280001326C
:103260002A7028E62A78C9F8200001322A7032E74D
:10327000BEF1400FF44628BF4FF0400C04EB0C03A6
:1032800002930123CCEB0E004FEA0C48002201937D
:1032900018E500BFF8B500F04DFE294B29482A4C2F
:1032A0002A4F2B4DDFF8BCC0DFF8BCE0294E0022CE
:1032B0001A605A609A60DA601A615A619A61DA613A
:1032C0001A625A629A62DA621A635A639A63DA631A
:1032D0001A645A649A64DA641A655A659A65DA65FA
:1032E0001A665A669A66DA661A675A679A67DA67DA
:1032F000C3F880200168C3F8842041F48021016074
:10330000C3F307212170C3F30740134938701B0E24
:103310002B70FF238CF80030104D8EF800301048D1
:103320000B700123337084F8642070264FF400740E
:10333000102207F82C3C2E70046081F8F820F8BDAC
:103340000080FF1F348004409C200740B0200740CD
:10335000B4200740942007401020074049E400E0D3
:1033600008E100E0802007408820074072B60D4841
:103370000268B2FA82F30B2B10DC4FF00041D94007
:1033800022EA0102026062B6074803EBC303DB00D6
:10339000C2180021C15010465160704762B600202B
:1033A000704700BFFC89FF1FBC83FF1F0D4B0E4AF7
:1033B000C31AA2FB03231B090B2B0CD80B4A127850
:1033C00052B972B60A484FF00041026821FA03F37D
:1033D0001A43026062B67047064A1278002AF0D09B
:1033E000FFF74AB9BC83FF1F398EE338DD94FF1F16
:1033F000FC89FF1FE894FF1F38B50F4D286878B18E
:1034000043880288C118013393420C7A02D2438068
:10341000204638BDFFF7CAFF002320462B6038BD89
:10342000064B1B782BB10320FFF7F2F82860002829
:10343000E6D14FF0FF3038BDFC94FF1FE894FF1F2A
:1034400010B5094C206818B143881844007A10BDA3
:10345000064B1B782BB10320FFF7DAF82060002819
:10346000F2D14FF0FF3010BDFC94FF1FE894FF1F16
:10347000044B054A1B6890881BB11A885B88D31AD5
:1034800018447047FC94FF1FE496FF1F0B4B1B78FA
:103490009BB110B50A4C206848B1FFF787FF0023A5
:1034A00003202360FFF7B4F830B1FFF77FFF03205C
:1034B000FFF7AEF80028F8D110BD7047E894FF1F61
:1034C000FC94FF1F2DE9F04FDFF8F89083B0012244
:1034D00089F80020019169B3DFF8EC80364F019E36
:1034E0008346D8F80000B0B3344D4488C4F140019D
:1034F000B14228BF314604EB010E00221FFA8EFEB6
:103500002A70761AA0F802E000F1080251B1013CDD
:10351000224459441BF8014B02F8014F8B45F9D165
:10352000B0F802E0BEF13F0F0BD8254A052111701B
:10353000002ED6D10198002389F8003003B0BDE8F1
:10354000F08F4022028001460420FFF7F9F80022A4
:10355000C8F80020E9E73A782AB3184D4AF2F9246E
:103560004FF0010A07E0013C16D02A78A2B900F01A
:1035700055FA3A78BAB10420FFF768F80728F2D86C
:1035800089F800A0FFF7F2FEC8F800000028ACD1CF
:103590000C4B013C1870E8D101234FF0FF302B7029
:1035A00003B0BDE8F08F00234FF0FF3089F8003002
:1035B00003B0BDE8F08F00BFE894FF1FF894FF1F31
:1035C000F094FF1FF194FF1FF494FF1F00B583B028
:1035D00002AB012103F8010D1846FFF773FF03B09A
:1035E0005DF804FB38B50E4D0E4C2868012323709E
:1035F00028B1408800232370C0F1400038BD0A4B39
:103600001B7813B90020207038BD0420FFF71EF886
:103610000728F7D8FFF7AAFE28600028E9D1F1E7CC
:10362000F494FF1FF194FF1FE894FF1FF8B5114BAE
:103630001B788BB1104E114D346801272F7064B187
:103640000F4A638800271770214623800420FFF764
:1036500077F8376000232B70F8BDFFF787FE084B23
:1036600028B1014604201C70FFF76AF8F2E71F70CA
:10367000F0E700BFE894FF1FF494FF1FF194FF1FD1
:10368000F094FF1F38B50E4B1B7873B90D4C2168B1
:1036900061B103F0FF054B880B800420FFF750F861
:1036A000256038BD084B01221A7038BDFFF75EFE59
:1036B0000028F7D00146BDE838400420FFF740B8A5
:1036C000F194FF1FF494FF1FF094FF1F10B4EFF369
:1036D000108272B6437F33B9017F012907D00329D5
:1036E0000FD00123437702B962B610BC7047124C69
:1036F0002168A1B1114943610B6883610860586179
:10370000EFE70F4C216881B10E4943610B6883617B
:10371000086058610C4B4FF080511960E1E7074B8E
:103720004161816120601860DBE7064B4161816186
:1037300020601860EEE700BF1495FF1F1095FF1F73
:103740000495FF1F0895FF1F04ED00E070B5EFF32F
:10375000108272B60C4C206880B10C4E0025436973
:10376000236073B19D6102B962B64577836898475B
:10377000EFF3108272B620680028F0D102B962B669
:1037800070BD3360EFE700BF0495FF1F0895FF1F72
:10379000FFF7DCBF184A30B41468002C27D0036848
:1037A00021688B420ED2CB1A00218460C160236055
:1037B000E06010600223037530BC704711688B42D3
:1037C000144608D3A2685B1A0360002AF6D182600F
:1037D000C460A060EEE7D268C2608460E060C56843
:1037E000CB1A0222A8602360027530BC7047846047
:1037F000C4601060DEE700BF0C95FF1FF8B5224ED5
:1038000034682CB32368002B3AD1204F1D4604E0C6
:103810003468ECB12368002B32D1A36803B1DD60BA
:1038200020693360036825751B68BB4221D1037F83
:103830004560022BC46020D0FFF748FF6368002B6F
:10384000E6D023602046FFF7A5FF3468002CE1D1C5
:10385000EFF3108372B60E4A00211068116003B9AD
:1038600062B628B18468FFF795FF20460028F9D199
:10387000F8BD224600219847E0E783689847DDE7D6
:10388000013B2360E4E700BF0C95FF1F51070000D8
:103890001C95FF1F024A136801331360FFF7AEBF88
:1038A0000494FF1F08B5FCF7E1FDFCF74DFE00F0A6
:1038B000B5F8FAE700B5064A036812885B6883B07A
:1038C00001A9ADF804200222984703B05DF804FB7B
:1038D00054520000F0B507468BB0002A33D0012ABD
:1038E00008BF0A2251B3212400E0F4B2B1FBF2F583
:1038F00002FB1511C8B2092900F1300198BFC8B206
:103900000AA988BF3730214488BFC0B201F8240C0F
:10391000661E2946002DE8D133B1013CE4B20AAB62
:1039200023442D2203F8242C3B6801AA11195B685B
:103930003846C4F1220298470BB0F0BD30228DF812
:1039400025202124E8E70368C9B21B6898470BB01B
:10395000F0BD00BFFFF79ABDFFF768BEFFF742BE9C
:1039600008461146FFF7AEBD0846FFF72FBE00BF61
:10397000704700BF10B50446006800F065FB2046A4
:1039800010BD00BF38B543688B4201D3012038BD5C
:103990000D4604460131006800F07EFE0028F6D096
:1039A000A36884E82100002BF0D10370EEE700BF8C
:1039B000F8B50446154632B9036803B11A700023FE
:1039C000A3602046F8BD0E461146FFF7DBFF074611
:1039D00048B9206810B100F037FB2760002363600E
:1039E000A3602046F8BDA5603146206801F05EF86E
:1039F000E7E700BF38B500230446036043608360F7
:103A0000037341B108460D4601F0BAF82946024653
:103A10002046FFF7CDFF204638BD00BF38B5224C09
:103A2000237803B138BD01232370FFF721FD70BB5C
:103A300000F0D8F840BB00F06BF910BB00F0FEF9C5
:103A4000E0B900232370EFF30583002BEAD1EFF3F5
:103A5000108172B6154B1868E0B1154C2278CAB9BE
:103A600045691D6001232370C5B1AA6101B962B621
:103A700000254577836898472570D3E700F0A0FAC2
:103A8000DFE700F09BFAD9E700F096FAD3E7FFF7FB
:103A90006FFFCDE70029C5D162B638BD054B1D606B
:103AA0000029E5D1E3E700BF2095FF1F1495FF1F14
:103AB0001895FF1F1095FF1F30B42948294A2A4B3B
:103AC0002A4D6024E121047011701B78284C082BCA
:103AD00030D00A2B2748284937D00C2B0CBF352271
:103AE0003D2212232A60236002600B60234B24498D
:103AF0001B78244ABBB101230B601360224B23497E
:103B00001B78234A012B26D9042B0FD9082B1ED949
:103B1000102B94BF862387230B6013601D4B01225B
:103B20001A7030BC70470B601360E7E784230B60AA
:103B30001360F3E700F58E200F49083001221323AC
:103B40002A60236002600B60D0E73922F7E7852303
:103B50000B601360E2E780230B601360DEE700BFB9
:103B60000040074001400740108AFF1F08B0034093
:103B70000CB0034008B00B400CB00B402295FF1F67
:103B800020B0034020B00B40118AFF1F24B0034037
:103B900024B00B402195FF1FF0B44D1E2E4600248B
:103BA00000E00134B0FBF2F302FB1300092800F13E
:103BB00030078ABF3730F8B2C0B206F8010F184696
:103BC000002BEED10A1953704CB1107815F8016F23
:103BD00028700133E01A834202F80169F5DB0846D8
:103BE000F0BC7047054A064B10781B78C0B2DBB2B8
:103BF000984238BF4030C01A704700BF2895FF1F59
:103C00002995FF1FF0B4384B1A7912F0300F2CD0E1
:103C100072B6997D01F0FF0200293DD062B6334FA4
:103C2000334938780D78334E1C46C0B2EDB2431C90
:103C3000402BE17928BF0023AB4202F1FF32C9B229
:103C40001CBFF154184612F0FF02F0D12A4B1B683A
:103C5000C2B23A704BB1A84236BFC5F14005401B15
:103C600040192728C4BF01221A701F49CA78D2B24E
:103C7000150616D452060DD51B4B1B795B0609D5CC
:103C80001E4B1F491B6800220A7003B11A70164BA5
:103C90003C22DA70F0BC70474022D9795A7462B67F
:103CA000E3E70B791C06E5D5164B174E1C783378E5
:103CB000E4B2DBB29C420ED0144D01E0A3420AD024
:103CC0000133402B28BF00230879E85CC0B2C871DB
:103CD000087D0728F2D9DBB2034933700B79180647
:103CE00044BF7C23CB70C5E700A006402895FF1F8A
:103CF0002995FF1F6C95FF1F2495FF1FB095FF1F8F
:103D0000AC95FF1FB495FF1FAD95FF1F2C95FF1FAE
:103D1000054A064B10781B78C0B2DBB2984238BF18
:103D20004030C01A704700BF2896FF1FBD95FF1F87
:103D3000F0B4384B1A7912F0300F2CD072B6997D4E
:103D400001F0FF0200293DD062B6334F3349387885
:103D50000D78334E1C46C0B2EDB2431C402BE179C6
:103D600028BF0023AB4202F1FF32C9B21CBFF1549D
:103D7000184612F0FF02F0D12A4B1B68C2B23A700B
:103D80004BB1A84236BFC5F14005401B401927285A
:103D9000C4BF01221A701F49CA78D2B2150616D4C0
:103DA00052060DD51B4B1B795B0609D51E4B1F49CF
:103DB0001B6800220A7003B11A70164B3C22DA709D
:103DC000F0BC70474022D9795A7462B6E3E70B79A8
:103DD0001C06E5D5164B174E1C783378E4B2DBB2DF
:103DE0009C420ED0144D01E0A3420AD00133282B8F
:103DF00028BF00230879E85CC0B2C871087D072895
:103E0000F2D9DBB2034933700B79180644BF7C2327
:103E1000CB70C5E700B006402896FF1FBD95FF1F79
:103E2000E895FF1FB895FF1F2C96FF1FBC95FF1F3D
:103E30003096FF1F2996FF1FC095FF1F054A064BAE
:103E400010781B78C0B2DBB2984238BF4030C01A3D
:103E5000704700BF3896FF1F3996FF1F30B42B4BB9
:103E60001A7994061FD52A48DA790378294901334B
:103E70003F2B0978C8BF00238B42D2B203D0264C17
:103E8000D9B2E2540170254A116861B1244A12780E
:103E9000D2B2934236BFC2F140029B1A9B18272B25
:103EA000C4BF01230B70194AD378DBB2180611D4B2
:103EB0005A060DD5154B1B795B0609D5194B1A49C6
:103EC0001B6800220A7003B11A70104B2C22DA70A2
:103ED00030BC704711790906EAD5144910480C78AE
:103EE0000178C9B28C420DD04A1C272A84BF002118
:103EF0000A460F4D054C98BFD1B2AA5CD2B2E2710E
:103F00000170D5E76C21D170D2E700BF00C0064038
:103F10003896FF1F3996FF1F6496FF1F3496FF1FC8
:103F2000A596FF1FA896FF1FA496FF1FAC96FF1F24
:103F30003C96FF1F70B584B072B6194B194D1A48E4
:103F4000702241260F2480211A702E701A460470A8
:103F5000197013781B06FCD5144B186862B6144B05
:103F6000144C984298BF00EB800001A998BF400014
:103F70000A22FFF711FE01A92046002311F8012BA8
:103F800001333AB10A2B20F8022FF7D11623237000
:103F900004B070BD5B00DBB2237004B070BD00BF25
:103FA00000000240070002400600024008000240F4
:103FB0007F969800A08AFF1F704700BF704700BF20
:103FC000704700BF0B460146184600F001B800BF1D
:103FD00013460A460146022000F040BE014B186815
:103FE000704700BFE08EFF1F70B50F4E0F4D761B60
:103FF000B61018BF002405D0013455F8043B98478B
:10400000A642F9D10A4E0B4D761B01F067F9B610A6
:1040100018BF002406D0013455F8043B9847A64247
:10402000F9D170BD70BD00BFE8520000E852000039
:10403000F8520000E8520000024B0146186800F0F8
:104040000BB800BFE08EFF1F024B0146186800F05E
:10405000C9BE00BFE08EFF1F2DE9F04F01F10B0537
:10406000162D83B0064640F29F8035F0070500F11B
:10407000BF80A94200F2BC8000F00AFBB5F5FC7FCE
:10408000C0F09C826B0A00F0BA80042B00F283819E
:10409000A80900F1390E4FEA4E033830C44F07EB40
:1040A0008303A3F108015C68A14207D1ACE0002AB8
:1040B00080F2AC80E468A14200F0A680636823F03F
:1040C00003035A1B0F2AF2DDB9493C6901F1080EBE
:1040D000744500F0B381636823F003035A1B0F2A71
:1040E00000F39981002AC1F814E0C1F810E080F2D1
:1040F0009E80B3F5007F80F06781DB0803F1010C3F
:1041000001229B1002FA03F34A6851F83C80C4F87C
:10411000088001EBCC091A43A9F10803E3604A6067
:1041200041F83C40C8F80C40831001249C40944264
:1041300000F28A80144206D120F003006400144289
:1041400000F10400FAD007EBC009CC468046DCF849
:104150000C108C4507D173E1002A80F28181C96877
:104160008C4500F06D814B6823F003035A1B0F2A26
:10417000F2DD0C46D1F80CC054F8088F4B1945F00D
:1041800001054D6042F00101C8F80CC03046CCF882
:1041900008807B613B61C3F80CE0C3F808E059601C
:1041A0009A5000F077FA1FE0102921D800F070FA39
:1041B0001025062302207E4F07EB8303A3F108029C
:1041C0005C68944200F045816368E168A56823F06B
:1041D0000303234430465A68E96042F001028D60CF
:1041E0005A6000F057FA0834204603B0BDE8F08F5B
:1041F00000240C232046336003B0BDE8F08F8023F9
:104200004FF0400E3F2049E770465DE72344E168E8
:104210005A68A56842F00102E96030468D605A6034
:1042200000F038FA0834204603B0BDE8F08F23448C
:1042300030465A6842F001025A6000F02BFA083406
:10424000204603B0BDE8F08FBC68636823F0030824
:10425000A84504D3C5EB08030F2B00F38C80554B06
:10426000DFF860911A68D9F8003001332A4404EB72
:10427000080A00F0608102F580520F3222F47F625A
:1042800022F00F0211463046019200F0FDFBB0F122
:10429000FF3F8346019A00F05881824500F2FC807E
:1042A000454B1968DA451144196000F05381D9F87B
:1042B0000000DFF810E101301BBFCAEB0B0A5144CC
:1042C000CEF800B019601BF0070100F01781C1F1B2
:1042D0000800C1F58051834408315A44C2F30B02EF
:1042E000C2EB010949463046019300F0CDFB431C67
:1042F000019B00F03F81CBEB00024A4442F00102F7
:104300001968C7F808B04944BC42CBF804201960CA
:10431000DFF8A49016D0B8F10F0F40F2FD8062686C
:10432000A8F10C0323F00703E01802F001024FF09C
:10433000050E1A430F2B6260C0F804E0C0F808E0D5
:1043400000F21C811D4BBC681A68914288BF19603D
:104350001B4B1A689142626888BF196022F0030201
:104360009542A2EB050301D80F2B04DC304600F088
:1043700091F9002438E7621943F0010345F0010583
:1043800065603046BA60536000F084F90834204616
:1043900003B0BDE8F08F142B71D9542B00F2A48028
:1043A000280B00F16F0E4FEA4E036E3076E600BF29
:1043B000E48EFF1FB896FF1FBC96FF1FB496FF1F29
:1043C000B096FF1FF092FF1F5A0A042A5ED9142AE2
:1043D00000F2B38002F15C0149005B3207EB810C13
:1043E00057F82110DFF8DC81ACF1080C8C4500F0A7
:1043F00088804A6822F00302934202D289688C4581
:10440000F7D1D1F80CC07A68C4F80CC0A160CCF820
:104410000840CC6088E6631942F0010745F00105C9
:10442000656030464B610B61C3F80CE0C3F808E0EF
:104430005F609A50083400F02DF9D5E64A6873E6BB
:1044400008F1010818F0030F0CF1080C7FF47FAE9F
:1044500030E0DC68A34208BF02303FF435AEB3E67B
:104460000B440C465A68C96854F8085F42F00102D0
:104470005A603046E9608D6000F00CF9B4E603F153
:104480005C0E03F15B004FEA4E0307E69A0902F166
:10449000390149003832A1E7BC424A4B3FF400AF32
:1044A0009C68626822F003025AE759F80839994576
:1044B00040F0828010F0030F00F1FF30F5D17B68EF
:1044C00023EA04037B6064009C423FF6BDAE002CEF
:1044D0003FF4BAAE1C4240467FF435AE64001C4245
:1044E00000F10400FAD02EE6B3F5AA7F18D8E80B45
:1044F00000F1780E4FEA4E037730CFE54FF480514C
:10450000EBE60121D8F80430921001FA02F21A43C6
:10451000C8F80420614677E70123CBF8043025E78B
:1045200040F25452934220D8A80C00F17D0E4FEA7D
:104530004E037C30B2E51032A4E6542A26D81A0B7A
:1045400002F16F0149006E3248E7BC68626822F0F0
:10455000030205E7CAF30B0000287FF4A8AE42442B
:10456000BB6842F001025A60ECE6FE234FF07F0E7A
:104570007E2093E501224FF00009C1E604F1080115
:10458000304600F02FFCD9F80010DBE6B2F5AA7F28
:1045900005D8DA0B02F17801490077321EE740F2C4
:1045A00054518A4205D89A0C02F17D0149007C32AF
:1045B00014E7FE217E2211E77B6884E7E808431CAC
:1045C0005B00F8E5E48EFF1F8842F0B50DD98B182B
:1045D00098420AD28118002A51D09A1A13F8014D34
:1045E00001F8014D9342F9D1F0BD0F2A48D941EAB3
:1045F00000039B0746D100F1100401F1100315469A
:1046000053F8106C44F8106C53F80C6C44F80C6CB4
:1046100053F8086C44F8086C103D53F8046C44F8E7
:10462000046C0F2D03F1100304F11004E8D8A2F17B
:10463000100323F00F0302F00F0E1033BEF1030F2F
:104640001944034421D91E1F0D467446043C55F8F5
:10465000047B46F8047F032CF8D8AEF1040424F060
:10466000030404342344214402F0030262B1013BF9
:104670000A4411F8014B03F8014F8A42F9D1F0BD09
:104680000346F3E70346F2E7F0BD7246EEE700BFEC
:10469000704700BF704700BF024B0A4601461868CA
:1046A00000F002B8E08EFF1F2DE9F04F174683B0EF
:1046B000002900F0C1800E46814607F10B05FFF787
:1046C000E7FF56F804EC162D2EF00304A6F10808B7
:1046D00040D810221546AF4241D8944275DAC94BF2
:1046E000996808EB04008842416800F0D98021F005
:1046F000010303445B68DB077DD51EF0010F35D055
:1047000039464846FFF7A8FC0746E0B156F8043C96
:1047100023F001034344A0F108029A4200F04481CF
:10472000221F242A00F23181132A00F20481034659
:104730003246116819605168596092689A60314632
:10474000484600F04FFB4846FFF7A4FF384603B049
:10475000BDE8F08F25F00705002D2A46BBDA0C23B3
:104760000020C9F8003003B0BDE8F08F56F8083CCF
:10477000C3EB080ADAF8043023F0030C04EB0C0353
:104780009342BDDB5746DAF80C1057F8080F221F8A
:10479000242AC160886000F21781132A40F2128136
:1047A0003168CAF808107168CAF80C101B2A00F2A8
:1047B0002B8108360AF1100231681160716851606E
:1047C000B16891603E461C46D046631B0F2B1DD836
:1047D000D8F8043003F0010323434444C8F80430FC
:1047E000636843F0010363604846FFF753FF3046B8
:1047F00003B0BDE8F08F21F003012144914221DB99
:10480000C36882680C46D3609A60DEE7D8F804205B
:1048100008EB050102F00102154343F001020B44CD
:10482000C8F804504A605A6842F0010208315A60E0
:10483000484600F0D7FAD7E7114603B0BDE8F04F7D
:10484000FFF70ABC1EF0010F7FF45AAF56F8083C80
:10485000C3EB080ADAF8043023F0030C01EB0C0E6A
:1048600096458BDBC36882685746D3609A6057F8D9
:10487000081FDAF80C30CB60221F242A996000F25E
:104880009980132A62D93368CAF808307368CAF865
:104890000C301B2A00F2A08008360AF1100356E003
:1048A00021F0030BA34405F11000834559DA1EF0F3
:1048B000010F7FF425AF56F8081CC1EB080ADAF89F
:1048C000041021F0030CE34458453FF757AF574617
:1048D000DAF80C1057F8080F221F242AC1608860EC
:1048E00000F2B480132A40F2A5803168CAF808109B
:1048F0007168CAF80C101B2A00F2AF8008360AF162
:1049000010023168116071685160B16891600AEB02
:104910000501C5EB0B0242F0010299604A60DAF82A
:10492000043003F001031D434846CAF80450FFF762
:10493000B1FE38465CE733680360736843601B2A46
:1049400027D800F1080306F10802F2E63B46326878
:104950001A6072685A60B2689A603E467446D046E1
:1049600033E708EB0501C5EB0B0B4BF00102996037
:104970004A6056F8043C03F001031D43484646F8DC
:10498000045CFFF787FE304632E73146FFF71CFE36
:10499000D5E6B3688360F368C360242A28D000F1A9
:1049A000100306F11002C4E650F8043C23F00303A0
:1049B0001C440AE7314638467446D046FFF704FEE9
:1049C0003E4602E73A46F7E6314638461C46D046B0
:1049D000FFF7FAFD3E46F8E6B368CAF81030F36810
:1049E000CAF81430242A1BD010360AF11803AEE797
:1049F000336903617369436106F1180200F118031A
:104A000097E600BFE48EFF1FB168CAF81010F16886
:104A1000CAF81410242A0FD010360AF11802CBE677
:104A20003369CAF818307369CAF81C3018360AF1AD
:104A300020038CE73A4664E73269CAF818207269A5
:104A4000CAF81C2018360AF12002B5E6314638466D
:104A50000193FFF7B9FD019B59E7B168CAF810103F
:104A6000F168CAF81410242A03D010360AF118028B
:104A700047E73269CAF818207269CAF81C2018364C
:104A80000AF120023DE700BF38B5074C0023054678
:104A900008462360FDF7AAFB431C00D038BD2368FD
:104AA000002BFBD02B6038BDF896FF1F80EA010277
:104AB000844612F0030F4FD111F0030F32D14DF89D
:104AC000044D11F0040F51F8043B0BD0A3F1013257
:104AD0009A4312F0803F04BF4CF8043B51F8043B6A
:104AE00016D100BF51F8044BA3F101329A4312F0E2
:104AF000803FA4F101320BD14CF8043BA24312F0E9
:104B0000803F04BF51F8043B4CF8044BEAD02346E5
:104B10000CF8013B13F0FF0F4FEA3323F8D15DF897
:104B2000044B704711F0010F06D011F8012B0CF85F
:104B3000012B002A08BF704711F0020FBFD031F8D7
:104B4000022B12F0FF0F16BF2CF8022B8CF800205E
:104B500012F47F4FB3D1704711F8012B0CF8012BE1
:104B6000002AF9D1704700BFFFFFFFFFFFFFFFFFE3
:104B7000FFFFFFFFFFFFFFFFFFFFFFFFFFFFFFFF45
:104B800090F800F06DE9024520F007016FF0000C8D
:104B900010F0070491F820F040F049804FF0000435
:104BA0006FF00700D1E9002391F840F000F1080010
:104BB00082FA4CF2A4FA8CF283FA4CF3A2FA8CF348
:104BC0004BBBD1E9022382FA4CF200F10800A4FAAF
:104BD0008CF283FA4CF3A2FA8CF3E3B9D1E9042303
:104BE00082FA4CF200F10800A4FA8CF283FA4CF33A
:104BF000A2FA8CF37BB9D1E9062301F1200182FAF4
:104C00004CF200F10800A4FA8CF283FA4CF3A2FAF9
:104C10008CF3002BC6D0002A04BF04301A4612BA07
:104C2000B2FA82F2FDE8024500EBD2007047D1E90A
:104C3000002304F00305C4F100004FEAC50514F099
:104C4000040F91F840F00CFA05F562EA05021CBF6A
:104C500063EA050362464FF00004A9E72DE9F04737
:104C6000254C2568D5F8484106468846924699461F
:104C7000C4B360681F2817DC431C76B104EB8005C1
:104C80000122C5F888A0D4F8881182401143022E71
:104C9000C4F88811C5F808911ED00230636044F84A
:104CA00020800020BDE8F087144B03B34FF4C87098
:104CB000FFF7C2F90446D0B1D5F84831002780E8A3
:104CC0008800C5F8484138460123C4F88871C4F803
:104CD0008C71002EE1D0D1E7D4F88C110A43C4F8CE
:104CE0008C21DAE705F5A674C5F84841C1E74FF015
:104CF000FF30BDE8F08700BFD85200003940000007
:104D0000024B13B1024800F005B8704700000000E4
:104D1000214D0000002301461A461846FFF79EBFAA
:104D200038B5074D074C2C1BA41005D0013C55F895
:104D3000043D9847002CF9D1BDE8384000F0DCBABA
:104D40000000000000000000F8B5234F0C460646A6
:104D5000FFF79EFCBB685D6825F00305291B01F683
:104D6000EF7121F47F6121F00F01A1F58054B4F5BA
:104D7000805F07DB00213046FFF786FEBB682B44CF
:104D8000984204D03046FFF785FC0020F8BD614210
:104D90003046FFF779FE01300DD0104BBA68196824
:104DA0002D1B45F001053046091B55601960FFF7C2
:104DB00071FC0120F8BD00213046FFF765FEBA689E
:104DC000831A0F2BDEDD064C0449246843F00103EF
:104DD000001B53600860D5E7E48EFF1FBC96FF1FE1
:104DE000F092FF1F002945D02DE9F0410D46804685
:104DF000FFF74EFC55F8047C6A4927F00103A5F142
:104E00000804E2188E685068B24220F0030062D0B5
:104E1000FE0750600BD455F8087CE41B01F1080E26
:104E2000A56875453B446FD0E768EF60BD60151815
:104E30006D68ED0742D543F001026260E350B3F5BF
:104E4000007F18D2DB085A1C4D6851F83270A760F9
:104E500001209B1000FA03F301EBC2001D43083848
:104E6000E0604D6041F83240FC604046BDE8F041F2
:104E7000FFF710BC70475A0A042A53D89A0902F166
:104E800039077F0002F1380501EB870051F8272030
:104E90004449083890424DD0516821F003018B42BB
:104EA00002D292689042F7D1D068E060A26084603C
:104EB000D4604046BDE8F041FFF7ECBB95683A4F3F
:104EC000BD4203443FD0D068E86043F001028560F2
:104ED0006260E350B3E7FF07034407D455F8082C9A
:104EE000A41A1344A068E268C26090602F4A126856
:104EF00043F00100934260608C60B6D32C4B404677
:104F00001968FFF721FFB0E711184968C90744D4B1
:104F10009168D268CA60034443F001009160606008
:104F2000E350A2E7142A17D802F15C077F0002F1D0
:104F30005B05A9E7AA104B68012505FA02F21343A5
:104F40004B600246B1E743F001024C610C61E56041
:104F5000A5606260E35088E7542A06D81A0B02F174
:104F60006F077F0002F16E058EE7B2F5AA7F06D8C3
:104F7000DA0B02F178077F0002F1770584E740F24F
:104F80005450824206D89A0C02F17D077F0002F14C
:104F90007C0579E7FE277E2576E743F00102626013
:104FA000E35062E7E48EFF1FEC8EFF1FEC92FF1FC1
:104FB000B896FF1F564D4450565F317C315F564DB9
:104FC0004450560D0A0000007C000000426F620051
:104FD0003030303031003030303032003C800440EE
:104FE00000100000041A0000FF7F000011100000F4
:104FF000690700000C080000000200000002000029
:105000000B07000040020000000200000D0E00002F
:1050100040020000000200000A02090614171516DB
:105020000F0000000002000000020000000200006B
:105030000002000000020000000200000002000068
:10504000000200000002000001010202040408083E
:105050001000000034800440400000001211FFFFE7
:10506000FF02020000001310FFFFFF020200000019
:105070001800000034800440800000001EFFFFFF85
:10508000FF02000000001DFFFFFFFF020000000004
:105090001900000000000000000000001D0D0000CD
:1050A000E10C0000950C0000DD0C0000990C0000E4
:1050B000A50C0000C50C0000111213141516FFFFFB
:1050C0000A0B0C0D0E0FFFFF000102030405FFFF8A
:1050D000564D4450455F00003A323A003A00000015
:1050E0005F564D4450450000564D4450435F00000C
:1050F0005F564D4450430D0A000000004572726F28
:10510000723A20417474656D707420746F207365F9
:1051100074206120726561642D6F6E6C79207661F8
:10512000726961626C65206F7220646174612074C1
:10513000797065206E6F7420737570706F7274650E
:10514000640D0A004008FE4340A004404408FE43AA
:1051500044A004400018FE4300C004403000FE4359
:10516000309004403400FE43349004401C18FE4349
:105170001CC004401018FE4310C004400818FE4331
:1051800008C004400C18FE430CC004400C10FE4341
:105190000CB004401010FE4310B004401810FE4341
:1051A00018B004401C10FE431CB004401410FE4311
:1051B00014B004400418FE4304C004400010FE4331
:1051C00000B004400008FE4300A004400408FE4371
:1051D00004A004400C08FE430CA004400808FE4351
:1051E00008A004401418FE4314C004401818FE43DD
:1051F00018C004400410FE4304B004400810FE43ED
:1052000008B004401400FE43149004404C08FE43D0
:105210004CA004400420FE4304D004402410FE436C
:1052200024B004402010FE4320B004402810FE4368
:1052300028B004402C10FE432CB004400020FE4354
:1052400000D004404808FE4348A004401000FE433C
:10525000109004400D0AFFFF000000000000000055
:1052600069390000613900005D39000059390000DA
:10527000B51C0000AD1C0000B11C00005539000039
:105280000015191500010000148AFF1F120000000C
:1052900000020000408AFF1F4300000000030000DE
:1052A0009C8AFF1F0000000001030904288AFF1FD9
:1052B0000000000002030904848AFF1F00000000B0
:1052C00003030904A08AFF1F000000000000000083
:1052D0000000000000000000B88AFF1FF8B500BF02
:1052E000F8BC08BC9E467047014D00003504000024
:0852F000E1060000452000006A
:0452F800F8B500BF46
:1052FC0038B5084B1C681C6054B1074D94FAA4F3E4
:10530C00B3FA83F355F823309847631E1C40F5D14C
:10531C0038BD00BFA0D00440F489FF1F38B5084B3E
:10532C001C681C6054B1074D94FAA4F3B3FA83F3D0
:10533C0055F823309847631E1C40F5D138BD00BF8B
:10534C00A0C00440D489FF1F38B5084B1C681C60F2
:10535C0054B1074D94FAA4F3B3FA83F355F8233000
:10536C009847631E1C40F5D138BD00BFA0B0044067
:10537C00A489FF1F38B5084B1C681C6054B1074D3D
:10538C0094FAA4F3B3FA83F355F823309847631EC9
:10539C001C40F5D138BD00BFA0A004405489FF1FAC
:1053AC0038B5084B1C681C6054B1074D94FAA4F333
:1053BC00B3FA83F355F823309847631E1C40F5D19C
:1053CC0038BD00BFA09004401C89FF1F00000000E6
:1053DC0000C00240DC4F0000000000000000000094
:1053EC0000000000000000000000000000000000B1
:1053FC0000000000000000000000000000000000A1
:10540C000000000000000000E80300009C500000B9
:10541C0000000000E80300000000000000600640EF
:10542C0054500000000000000000000000000000CC
:10543C000000000000000000000000000000000060
:10544C000000000000000000000000000000000050
:10545C000000000000000000000000000000000040
:10546C000000000000000000000000000000000030
:10547C0000000000000000009C5000000000000034
:10548C00E8030000000000000070064074500000AB
:10549C000000000000000000000000000000000000
:1054AC0000000000000000000000000000000000F0
:1054BC0000000000000000000000000000000000E0
:1054CC0000000000000000000000000000000000D0
:1054DC0000000000000000000000000000000000C0
:1054EC00000000000C000000FC96FF1F19220000B9
:1054FC0019220000192200001922000019220000B4
:10550C0019220000192200001922000019220000A3
:10551C001922000019220000192200001922000093
:10552C001922000019220000192200001922000083
:10553C001922000019220000192200001922000073
:10554C001922000019220000192200001922000063
:10555C001922000019220000192200001922000053
:10556C001922000019220000192200001922000043
:10557C001922000019220000192200001922000033
:10558C001922000019220000192200001922000023
:10559C001922000019220000192200001922000013
:1055AC001922000019220000192200001922000003
:1055BC0019220000192200001922000019220000F3
:1055CC00192200001922000019220000FFFFFFFF22
:1055DC006052000000000000E80300000000000022
:1055EC000A0400001201100102000040C0168304DE
:1055FC0075020102030100001803540065006500E8
:10560C006E00730079006400750069006E006F0015
:10561C0009024300020100C0320904000001020229
:10562C0001000524001001052401010104240206D7
:10563C00052406000107058203100040090401003F
:10564C00020A00000007050302400000070584025F
:10565C004000000016035500530042002000530088
:10566C0065007200690061006C000000040309040D
:10567C000C0300000000000000000000000000000F
:10568C00000000000000000000000000A48DFF1FBF
:10569C000C8EFF1F748EFF1F000000000000000026
:1056AC0000000000000000000000000000000000EE
:1056BC0000000000000000000000000000000000DE
:1056CC0000000000000000000000000000000000CE
:1056DC0000000000000000000000000000000000BE
:1056EC0000000000000000000000000000000000AE
:1056FC00000000000000000000000000000000009E
:10570C00000000000000000000000000000000008D
:10571C00000000000000000000000000000000007D
:10572C00000000000000000000000000000000006D
:10573C0001000000000000000E33CDAB34126DE60A
:10574C00ECDE05000B000000000000000000000073
:10575C00000000000000000000000000000000003D
:10576C00000000000000000000000000000000002D
:10577C00000000000000000000000000000000001D
:10578C00000000000000000000000000000000000D
:105ABC00B88AFF1F0000000000000000E48EFF1FEA
:105ACC00E48EFF1FEC8EFF1FEC8EFF1FF48EFF1F6A
:105ADC00F48EFF1FFC8EFF1FFC8EFF1F048FFF1F19
:105AEC00048FFF1F0C8FFF1F0C8FFF1F148FFF1FC6
:105AFC00148FFF1F1C8FFF1F1C8FFF1F248FFF1F76
:105B0C00248FFF1F2C8FFF1F2C8FFF1F348FFF1F25
:105B1C00348FFF1F3C8FFF1F3C8FFF1F448FFF1FD5
:105B2C00448FFF1F4C8FFF1F4C8FFF1F548FFF1F85
:105B3C00548FFF1F5C8FFF1F5C8FFF1F648FFF1F35
:105B4C00648FFF1F6C8FFF1F6C8FFF1F748FFF1FE5
:105B5C00748FFF1F7C8FFF1F7C8FFF1F848FFF1F95
:105B6C00848FFF1F8C8FFF1F8C8FFF1F948FFF1F45
:105B7C00948FFF1F9C8FFF1F9C8FFF1FA48FFF1FF5
:105B8C00A48FFF1FAC8FFF1FAC8FFF1FB48FFF1FA5
:105B9C00B48FFF1FBC8FFF1FBC8FFF1FC48FFF1F55
:105BAC00C48FFF1FCC8FFF1FCC8FFF1FD48FFF1F05
:105BBC00D48FFF1FDC8FFF1FDC8FFF1FE48FFF1FB5
:105BCC00E48FFF1FEC8FFF1FEC8FFF1FF48FFF1F65
:105BDC00F48FFF1FFC8FFF1FFC8FFF1F0490FF1F14
:105BEC000490FF1F0C90FF1F0C90FF1F1490FF1FC1
:105BFC001490FF1F1C90FF1F1C90FF1F2490FF1F71
:105C0C002490FF1F2C90FF1F2C90FF1F3490FF1F20
:105C1C003490FF1F3C90FF1F3C90FF1F4490FF1FD0
:105C2C004490FF1F4C90FF1F4C90FF1F5490FF1F80
:105C3C005490FF1F5C90FF1F5C90FF1F6490FF1F30
:105C4C006490FF1F6C90FF1F6C90FF1F7490FF1FE0
:105C5C007490FF1F7C90FF1F7C90FF1F8490FF1F90
:105C6C008490FF1F8C90FF1F8C90FF1F9490FF1F40
:105C7C009490FF1F9C90FF1F9C90FF1FA490FF1FF0
:105C8C00A490FF1FAC90FF1FAC90FF1FB490FF1FA0
:105C9C00B490FF1FBC90FF1FBC90FF1FC490FF1F50
:105CAC00C490FF1FCC90FF1FCC90FF1FD490FF1F00
:105CBC00D490FF1FDC90FF1FDC90FF1FE490FF1FB0
:105CCC00E490FF1FEC90FF1FEC90FF1FF490FF1F60
:105CDC00F490FF1FFC90FF1FFC90FF1F0491FF1F0F
:105CEC000491FF1F0C91FF1F0C91FF1F1491FF1FBC
:105CFC001491FF1F1C91FF1F1C91FF1F2491FF1F6C
:105D0C002491FF1F2C91FF1F2C91FF1F3491FF1F1B
:105D1C003491FF1F3C91FF1F3C91FF1F4491FF1FCB
:105D2C004491FF1F4C91FF1F4C91FF1F5491FF1F7B
:105D3C005491FF1F5C91FF1F5C91FF1F6491FF1F2B
:105D4C006491FF1F6C91FF1F6C91FF1F7491FF1FDB
:105D5C007491FF1F7C91FF1F7C91FF1F8491FF1F8B
:105D6C008491FF1F8C91FF1F8C91FF1F9491FF1F3B
:105D7C009491FF1F9C91FF1F9C91FF1FA491FF1FEB
:105D8C00A491FF1FAC91FF1FAC91FF1FB491FF1F9B
:105D9C00B491FF1FBC91FF1FBC91FF1FC491FF1F4B
:105DAC00C491FF1FCC91FF1FCC91FF1FD491FF1FFB
:105DBC00D491FF1FDC91FF1FDC91FF1FE491FF1FAB
:105DCC00E491FF1FEC91FF1FEC91FF1FF491FF1F5B
:105DDC00F491FF1FFC91FF1FFC91FF1F0492FF1F0A
:105DEC000492FF1F0C92FF1F0C92FF1F1492FF1FB7
