:1000000000800020BD0100004D27000005270000F2
:100010000527000005270000052700000527000030
:100020000527000005270000052700004D270000D8
:100030004D27000005270000093D00000D3E00008F
:100040004D2700004D2700004D2700004D270000E0
:100050004D2700004D2700004D2700004D270000D0
:100060004D2700004D2700004D2700004D270000C0
:100070004D2700004D2700004D2700004D270000B0
:100080004D2700004D2700004D2700004D270000A0
:100090004D2700004D2700004D2700004D27000090
:1000A000A5170000B11700004D2700004D270000E4
:1000B0004D2700004D2700004D2700004D27000070
:1000C0004D2700004D2700004D2700004D27000060
:1000D0004D2700004D2700004D2700004D27000050
:1000E0004D2700004D2700004D2700004D27000040
:1000F0004D270000B94700004D270000E5480000EB
:100100004D270000114A00004D2700004D27000038
:100110004D2700004D2700004D2700004D2700000F
:100120004D2700004D2700004D2700004D270000FF
:100130004D2700004D2700004D2700004D270000EF
:100140004D2700004D2700004D2700004D270000DF
:100150004D2700004D2700004D2700004D270000CF
:100160004D2700003D2D00004D2700004D270000C9
:100170004D2700004D2700004D2700004D270000AF
:100180004D2700004D2700004D2700004D2700009F
:100190004D2700004D2700004D2700004D2700008F
:1001A0004D2700004D2700004D2700004D2700007F
:1001B0004D2700004D2700004D270000564B4CF204
:1001C000205210B51A804DF628121A8000BF00BFC9
:1001D00002F0C0FA514B4FF010621A60504A9A6018
:1001E000504ADA60504A136813F4807304D14F49BF
:1001F0000B604FF4A85313604D4B1A78110703D5C9
:100200001A7842F008021A704A4B4B492A221A7097
:100210004A4A4B4B8B4204D252F8040F43F8040B6A
:10022000F8E7484B484900228B4202D243F8042B9E
:10023000FAE74649464A002352F8230041F82300D2
:1002400001336F2BF8D1434B434A802103F8011B44
:100250009342FBD1414B3D4A1A60414B8A221A70AE
:10026000A3F5805324225A70A0221A709A7992071B
:10027000FCD59A79D406FCD43A4A937903F00C035E
:10028000082B384BF9D103221A7140225A719A79FE
:100290009006FCD5334A9179324B4906FBD5324A58
:1002A000324911600221516020221A709A7902F0BD
:1002B0000C020C2AFAD12E4B2E4A1A602E4B2F4AD2
:1002C0001A6000225A60072243F8042C2C4AC3F813
:1002D0000C2D62B602F0E8FB144B1B68DA0705D55B
:1002E000284802F075FB284B284A1A60284B1B78D7
:1002F0005B0609D5244C254B22689A4204D121483B
:1003000002F066FB0023236005F0BEFB02F028FA32
:1003100003F084FDFEE700BF0E200540308004405E
:10032000823F04000100002B10D0034014D0034092
:1003300002D0074000E00740F492FF1F088F000042
:100340002087FF1FF492FF1FCC96FF1F0082FF1F24
:100350000000000000E400E05FE400E008ED00E0E1
:100360000050064000400640448004400000030165
:1003700004800440C010050014E000E0FF76010096
:100380000000202008A67B5C1CE00340A5C3945A13
:1003900000F00740FFFFFFFFFFFFFFFFFFFFFFFF32
:1003A000FFFFFFFFFFFFFFFFFFFFFFFFFFFFFFFF5D
:1003B000FFFFFFFFFFFFFFFFFFFFFFFFFFFFFFFF4D
:1003C000FFFFFFFFFFFFFFFFFFFFFFFFFFFFFFFF3D
:1003D000FFFFFFFFFFFFFFFFFFFFFFFFFFFFFFFF2D
:1003E000FFFFFFFFFFFFFFFFFFFFFFFFFFFFFFFF1D
:1003F000FFFFFFFFFFFFFFFFFFFFFFFFFFFFFFFF0D
:10040000FFFFFFFFFFFFFFFFFFFFFFFFDEF9FFFF23
:1004100010B5054C237833B9044B13B10448AFF33E
:1004200000800123237010BDF492FF1F0000000024
:100430000C8F0000084B10B51BB108490848AFF3FA
:1004400000800848036803B910BD074B002BFBD0A0
:10045000BDE81040184700BF00000000F892FF1FE1
:100460000C8F0000F492FF1F000000002DE9F04FF8
:10047000ABB0834601F07CFB1E2002F0C7FA584661
:10048000002101F07BFB01231A465846102101F0A0
:1004900053FC0621584601F05DFC584601F060FC13
:1004A00000231A461946584601F046FC584601F00A
:1004B0009BFB584601F0B0FB8046584601F0D0FB4C
:1004C0000746584601F0F0FB7F22002106465846B9
:1004D00001F018FB5846002101F038FB682200218A
:1004E000584601F00FFB584601F03CFB0024142055
:1004F000012502F08BFA58468DE83000234640F281
:100500008972CD4901F048FD18B928462BB0BDE8E5
:10051000F08FC022C949584601F0C8FD18B9022021
:100520002BB0BDE8F08F0321584601F02DFB1221BE
:10053000584601F0F1FA0421584601F0A1FA294683
:10054000584601F0A3FA0321584601F0ABFA032103
:10055000584601F0B3FA0321584601F0ABFD21469D
:10056000584601F0ADFD2146584601F04FFB41468B
:10057000584601F067FB3946584601F087FBFF27D4
:100580003146584601F0A6FBB84623462946902638
:100590004FF002094FF0B20ADFF8A4E20AE0073395
:1005A0009BB25146CA46C146B8462F4635461EF84C
:1005B000036023465C1CDAB22AA8A4B210445FFA96
:1005C00084FC0132BCF1030F00F8901CD2B2E6D9D2
:1005D0009DF81A10881C9042E1DA9DF819209DF8C8
:1005E000183000924FF0010E00200A4602900DF1E3
:1005F0001B01CDF804E0584601F018FC9049002397
:100600002AAA1A440133DBB2601C032B02F890AC17
:1006100080B209D8A21D92B2CA460446C146B84665
:100620002F4635468E5CEBE79DF81A2002F1020E4C
:100630009E45EFDA9DF819109DF8183005900124B9
:100640004FF0000A0091CDF808A00DF11B010194B4
:10065000584601F0EBFB584601F07EFA584601F08F
:100660009FFA0AA9C2B2584601F0AEFA02215846D2
:1006700001F030FA9C21584601F038FA50215846D2
:1006800001F02EFA5146584601F036FA584601F06C
:1006900063FA2146584601F053FA2146584601F0C4
:1006A0003FFB584601F042FB6549059B2AAA52448C
:1006B0000AF1010A5FFA8AFA5C1CBAF1030F02F828
:1006C000909CA4B208D805339BB2C146B8462F46C9
:1006D0003546CE5C2346E9E79DF81A20901C50452C
:1006E000F1DA9DF8191000914FF0000901219DF8F1
:1006F00018300191CDF808900DF11B01584601F01A
:1007000095FB4F494B462AAA1A440133DBB204F148
:100710000109032B02F8908C1FFA89F907D8221DD2
:1007200092B2B8464C462F4635468E5CEBE79DF8B4
:100730001A20901C9842F2DA9DF8191000910024BA
:1007400001219DF81830019102940DF11B015846CA
:1007500001F06CFB3A4923462AAA1A440133DBB262
:1007600009F10104032B02F8907CA4B207D809F127
:10077000030292B22F46A14635468E5CECE79DF807
:100780001A20901C9842F2DA9DF81910009100206E
:100790000121029001919DF818300DF11B0158467E
:1007A00001F044FB584601F0FBF90228FAD9C2B225
:1007B0000AA9584601F008FA584601F0B3F9204951
:1007C00000232AAA1A440133DBB2671C032B02F868
:1007D000905CBFB205D8A21C92B235463C468E5CF6
:1007E000EFE79DF81A20901C9842F4DA9DF8191052
:1007F00000919DF818300DF11B01584601F0BEFA2A
:10080000584601F0CDF90228FAD9C2B20AA95846D1
:1008100001F0DAF9584601F085F9094900232AAABE
:100820001A440133DBB20137032BBFB202F8906CDC
:1008300008D8CE5DF3E700BFCC8300000C83000036
:10084000DC8200009DF81A20901C9842F1DA9DF895
:1008500019109DF818300091002401200DF11B01A2
:1008600001900294584601F0E1FA2146584601F001
:1008700057FA2A23ABF80430584601F06DF9584670
:1008800001F050F9204641E6AAB11078537803EB05
:1008900000230B801079537903EB00234B80107AEF
:1008A000537A03EB00238B80107B537B03EB0023F5
:1008B000CB80002070470268E7E700BF30B583B007
:1008C0000C466946FFF7E0FF054618BBBDF900007E
:1008D00004F094FE4FF0625104F0E4FE2060BDF994
:1008E000020004F08BFE4FF0625104F0DBFE60600A
:1008F000BDF9040004F082FE4FF0625104F0D2FE14
:10090000A060BDF9060004F079FE4FF0625104F0DA
:10091000C9FEE060284603B030BD00BF38B52648A8
:10092000264C274D00F016FC264801F0DBFD264939
:10093000244801F061FD0021224801F095FD214885
:1009400001F0E0FC204601F077F82046FFF78EFD2D
:10095000DC212870204601F0D1F920464C2101F01D
:10096000D3F920466FF0540101F0D4F9204640F24B
:10097000FC6101F0BDF92B7873B11121134803F02C
:100980005DF82978124800230A2203F05FFA104824
:10099000BDE8384003F04ABA0121204601F0C0F911
:1009A000204601F0BFF80B4A0B490C4BA48810708D
:1009B00001220C801A7038BD0488FF1F7893FF1F36
:1009C0002A93FF1F3493FF1FB0820000B8820000FB
:1009D000FC89FF1F7493FF1F2493FF1F1693FF1FB3
:1009E0007F4B1B7803B970472DE9F0477D4B7E485C
:1009F0007E4D7F4C01229AB01A7001F093F8287056
:100A0000794801F0CDF82B782080DA0600F1CC800F
:100A1000B0F5806F00F0C8809B0740F1C280754E32
:100A20003288904206D2704801F0BAF832882080AD
:100A30008242F8D8D2B270496B48704F704D01F0C5
:100A4000C3F8238831886C4A67485B1A394623808B
:100A5000FFF734FF7C68D5F804A02146504604F027
:100A6000B5FFD7F80880002800F0A480A9684046A8
:100A700004F0ACFFD7F80C90002840F09E803F684F
:100A8000604E6C600123C5F80880C5F80C902F609B
:100A900033700222214606A803F07AFB06A90AA8B1
:100AA00003F058FB5849564FDFF858810AA803F065
:100AB000C9FB02220446A9680EA803F069FB0EA92F
:100AC000204603F0B7FB504903F0BCFB022204466A
:100AD000E96812A803F05CFB12A9204603F0AAFB08
:100AE000494903F0AFFB02220446296816A803F027
:100AF0004FFB16A9204603F09DFB014602A803F018
:100B000029FB16A803F0D2FA12A803F0CFFA0EA818
:100B100003F0CCFA0AA803F0C9FA06A803F0C6FA53
:100B200005213A4802F08AFF286804F089F9022476
:100B300002460B460094364803F0CAF901213548B5
:100B400002F07CFF686804F07BF9009402460B46D3
:100B50002F4803F0BDF901212E4802F06FFFA8686D
:100B600004F06EF9009402460B46294803F0B0F9F0
:100B70000121284802F062FFE86804F061F900945E
:100B800002460B46224803F0A3F9214803F04EF930
:100B9000214801F0B7FB3378002B3FD102A803F0C6
:100BA00085FA1AB0BDE8F0870F4800F0D5FF1AB0FB
:100BB000BDE8F087D7F80C9061E7E968484604F093
:100BC00005FF3F6800283FF45BAF2968384604F012
:100BD000FDFE00283FF454AF0A4E544659E700BFCB
:100BE0001693FF1F2B93FF1F7893FF1F7493FF1F14
:100BF0002893FF1F2493FF1F9093FF1F6493FF1FF1
:100C00004C93FF1F2693FF1FC8820000CC82000078
:100C1000FC89FF1FD08200003493FF1F3B4912A8BC
:100C200003F084FA224679680EA803F0B1FA0EA9FF
:100C300012A803F0FFFA364903F004FB22460546EA
:100C4000B96816A803F0A4FA16A9284603F0F2FA28
:100C5000014606A803F07EFA16A803F027FA0EA8AC
:100C600003F024FA12A803F021FA2A4912A803F08B
:100C70005DFA2246F9680EA803F08AFA0EA912A8B6
:100C800003F0D8FA224903F0DDFA22460546396816
:100C900016A803F07DFA16A9284603F0CBFA014600
:100CA0000AA803F057FA16A803F000FA0EA803F0FA
:100CB000FDF912A803F0FAF901221749174801F0CB
:100CC00097FB204601F0A2FE06991448102201F07D
:100CD0008FFB204601F09AFE0A991048102201F07D
:100CE00087FB204601F092FE01220D490B4801F0DE
:100CF0007FFB0A2001F08AFE00230AA888F8003052
:100D000003F0D4F906A803F0D1F947E7D482000034
:100D1000C8820000D8820000FC87FF1F3493FF1FA9
:100D20000088FF1FF8B51448144F154E154D164C8A
:100D300000F07EFE154A16494FF07E5300201360E6
:100D40000B60002350609060D06048608860C8608D
:100D500038607860B86033807380B3802B806B809C
:100D6000AB8023806380A380112210210948BDE855
:100D7000F84001F0B9BA00BF7893FF1F1893FF1F26
:100D80001093FF1F5C93FF1F2C93FF1F4C93FF1FBB
:100D90006493FF1F3493FF1F2DE9F04FDFF800919C
:100DA0008BB0D9F800400794BDF8506004900591CD
:100DB000DDF81CA00192002A6ED01F461F2A4FEAC0
:100DC00040034FF00008C8BF2022DBB2334D03922E
:100DD000029344464FF0010B9DF8083005992F48C7
:100DE00085F83B3085F85EB085F85DB000F09EF97F
:100DF00001212A4800F03EFB019B0499274885F811
:100E00005EB0C8EB03021F2A9DF8083085F83B301E
:100E1000D4BFD2B22022012385F85DB000F0B4FB2C
:100E200095F8392095F8383093420AD11BE0FF221B
:100E30000A7095F8392095F8383001349A4264B236
:100E400011D039193EB1D9F8000008900898CAEBC2
:100E50000000B04207D29342E9D2EA180133127E71
:100E600085F83830E4E7039B9844019B5FFA88F8E3
:100E70009845B1D366B1D9F800300993099BCAEB04
:100E8000030AB24504D3019B9C42B8BF4FF0FF3424
:100E900020460BB0BDE8F08F019CEBE70488FF1FF4
:100EA000D493FF1F00B583B0009313460122FFF7D0
:100EB00073FF03B05DF804FB30B585B01546BDF88F
:100EC0002040009401221C460DF10F03FFF764FF40
:100ED0009DF80F300122AA401A40227005B030BDA3
:100EE00030B585B01D46BDF8244000940DF10F03C8
:100EF00014460122FFF750FF60B10123621BAB4093
:100F00000132013B9DF80F1093400B4043FA02F26F
:100F1000089B1A7005B030BDF8B5114E4700154654
:100F2000304601221C4686F83B7086F85E2086F823
:100F30005D2000F0FBF855B1013D54FA85F5013C08
:100F400014F8011F064800F0F1F8AC42F8D1012175
:100F5000034800F08FFAB0FA80F04009F8BD00BFF6
:100F60000488FF1F00B583B002AB03F8012D0122F6
:100F7000FFF7D2FF03B05DF804FB00BFF0B5124CE1
:100F800085B0248800941F4614460DF10E030122FB
:100F900005460E46FFF700FF01229DF80E3002FACB
:100FA00004F46FB923EA040404AB314603F8014D9D
:100FB000284601228DF80E40FFF7AEFF05B0F0BDC8
:100FC0001C43E4B2F0E700BF0288FF1F2DE9F041A7
:100FD000164D84B02D88009590461F4601220DF1D4
:100FE0000E039DF8284005460E46FFF7D5FED0B10A
:100FF000C7EB08080122904402FA07F704FA08F147
:101000007B1E9DF80E4003FA08F7C9B2394024EA66
:10101000070404AB0C4303F8014D314628468DF814
:101020000E40FFF779FF04B0BDE8F0810288FF1F92
:10103000F8B5154C470015462046012284F83B7050
:101040001E4684F85E2084F85D2005FA02F700F061
:101050006DF885B1002425B20B4836F8151002341E
:10106000090A00F063F8E4B216F81510064800F01B
:101070005DF8BC42EFDB0121034800F0FBF9B0FA58
:1010800080F04009F8BD00BF0488FF1F00B583B0A1
:1010900002AB23F8022D0122FFF7CAFF03B05DF86F
:1010A00004FB00BF0020704790F8392090F838000A
:1010B000101A704790F8383090F839209A4205D9C4
:1010C0005A1C034480F83820187E70474FF0FF30D8
:1010D000704700BF90F8383090F839209A4286BFA8
:1010E0001B18187E4FF0FF30704700BF704700BFDD
:1010F00038B50546B0F85E0090B195F85D301446FD
:10110000C3F1210294420CD805F13B001844224659
:1011100001F05EFA95F85D30234485F85D30204695
:1011200038BD012014462871EEE700BFB0F85E30EC
:101130006BB190F85D30202B07D8C218013380F8CE
:101140005D30012082F83B107047012303710020BD
:10115000704700BF0023426980F8383080F839308A
:1011600080F85C3080F85D3080F85E3080F85F3069
:1011700006CA30B40D68046943662A4383660A6070
:10118000A370426990F861301649146813441D7ABF
:101190005B7B01EBC5051B026D6803F4E06343F064
:1011A00064032B6090F8623013449D7CDB7D01EB7F
:1011B000C5011B02496803F4E06343F064030B605C
:1011C00021685368194205D0036927225A700369C0
:1011D00004229A71036920225A71036980229A704D
:1011E00030BC7047348C000010B50269D378DBB294
:1011F000D90604463DD510215806D17038D503F0E4
:10120000040303F0FF02002B51D03D49626E00231E
:101210000B7084F85D30002A5BD0904794F85D3005
:10122000002B56D02369D0229A70236994F83B2072
:101230001A712369012284F85C200222DA7010BD41
:10124000304B84F860009C424AD02F4B9C4252D0D5
:1012500094F8391013791F29DBB207D82848007891
:1012600020B16018013184F8391003760223D3705D
:1012700010BD5906C3D4917801F0100101F0FF00B0
:101280000029DDD013F001031ED194F85C1094F80E
:101290005D00884281BF4B1C091984F85C3091F8CD
:1012A0003B3013712369D0229A702269DEE72369EB
:1012B00084F83920C0229A702369114A19790121D2
:1012C00011700222DA7010BDC02393702269137965
:1012D000CCE70122002384F85D2084F83B30A1E7AD
:1012E000626994F86130094913440322187A01F0C5
:1012F000AFFA2269ACE7626994F861300449F3E718
:10130000D093FF1F0488FF1F7088FF1F7113000018
:101310007D1300000369DB7803F0200373B190F8BC
:1013200060300133DBB2012B80F860301AD942699A
:1013300090F861301344187A01F006BB70B5426929
:1013400003F0FF0590F8613013440446187A01F069
:10135000FBFAA36E5BB184F8385094F83900BDE80D
:101360007040184790F85F30002BE0D0704770BD98
:101370000148FFF7CFBF00BF0488FF1F0148FFF7F8
:10138000C9BF00BF7088FF1F2DE9F047374FDFF856
:10139000E0903B68026982B006460093DDF8008069
:1013A0000021A025D3789B065BD53B680193019B68
:1013B000C8EB03030F2BF5D949B1102BF2D0002055
:1013C0009070336980229A7002B0BDE8F08772692C
:1013D00096F8613013440521187A01F011FB726907
:1013E00096F861301344012193F812A0504601F0A1
:1013F00007FB09240021504601F0FCFA2B46013B73
:10140000FDD10121504601F0F5FA2B46013BFDD1FB
:10141000013CEFD1706996F8611001444FF4A0725D
:101420000C7A4B7B09EBC4011B02496803F4E063AF
:1014300043F064030B6096F862300344997CDB7DD3
:1014400009EBC1011B02496803F4E06343F0640344
:101450000B60013AFDD13269D3789B064FF0010150
:10146000A3D4012002B0BDE8F08700BFD493FF1FD2
:10147000348C0000F0B503691222DA7002699378A7
:1014800003F0200385B004460D46002B5ED0B42344
:1014900093703C4922690B680093009E05E00B683D
:1014A0000193019B9B1B042B42D8D37803F02003AC
:1014B00003F0FF00002BF2D094F85D30002B31D008
:1014C0004FF0000E4FF0020C04EB0E0393F83B308C
:1014D00013710B680393039F206907E09B060DD5EA
:1014E0000B680293029BDB1B052B28D8C378DBB269
:1014F00003F0020202F0FF06002AEFD080F803C0DA
:101500002669F378DBB2DF0632462DD49F062BD551
:10151000DB0731D40EF1010E94F85D305FFA8EFED8
:101520007345D1D800201DBB002384F85E3004E051
:101530009070236980229A70042005B0F0BD8670F7
:101540002369802204209A7005B0F0BD03F0FF06E5
:10155000FFF71AFF10B9042005B0F0BD236984F825
:101560005F60B0229A7094E78023B3700420DAE7BA
:1015700026698023B370D7E7BEF1000F0CBF0220AD
:101580000320F6E7D493FF1F2DE9F04106690025FB
:10159000122780F8385080F83950F770D0F810C012
:1015A0009CF802E00EF0200E88B0044688461546EE
:1015B0001E46BEF1000F49D0B4238CF80230784BA0
:1015C00021691A680092DDF800E006E01A680192CD
:1015D0000198CEEB0000042830D8C87800F0200035
:1015E00000F0FF070028F1D04FEA480242F0010264
:1015F000D2B20A711A680292DDF808E0206906E0AA
:101600001A6803920399CEEB010105292AD8C17803
:1016100001F0020101F0FF070029F1D04FF0020CA8
:1016200080F803C02269D17811F0110722D12DBBB7
:10163000002E0CBFA0238023937003E08F702369DA
:1016400080229A70384608B0BDE8F0810EF0FF079E
:10165000FFF79AFE0028F5D0236984F85F70B02266
:101660009A70ACE787702369802238469A7008B078
:10167000BDE8F081802393700027E3E7012D75D04A
:10168000A021917021690A79BE4667464FF0A80CE7
:101690001A680492049805E01A680592059A121ACD
:1016A000052A4AD8CA7802F0020202F0FF08002A8E
:1016B000F2D0CF702169CA78D2B212F0100F08466A
:1016C0005AD1920658D5013DEDB2012D49D0BEF157
:1016D0001F0F3BD90A79012DDAD11A680692069DAF
:1016E00005E01A680792079A521B052A46D8C27865
:1016F00002F0020202F0FF01002AF2D00223C370BE
:101700002269D378DBB2D9063AD49B0634D5B0230C
:10171000BEF11F0F93703FD8226904EB0E031279BC
:101720001A760EF1010E5FFA8EFE16B12369802241
:101730009A7084F839E0774684E781F8028023695B
:1017400080229A70774684F839E07BE704EB0E023A
:1017500091F8048082F818800EF1010E5FFA8EFE77
:10176000B9E781F802C021690846B0E7A821917065
:101770002069BE460279B0E7774663E78170DEE70D
:101780001021A023D170013BFDD12269937803F091
:10179000F7037746937055E723691B79C5E700BFC8
:1017A000D493FF1F0148FFF71FBD00BF0488FF1F30
:1017B0000148FFF719BD00BF7088FF1F10B4047FF8
:1017C0004160022CC26002D010BC02F03BBA8368B8
:1017D00010BC1847F0B4464B464A186BDC6A0179D6
:1017E0001170454922790A709A6A00790870002AB6
:1017F00046D05968C9688A423ED82168CC8B2404F7
:1018000002F1FF3065D4C0F30E00C883C88B80B2EC
:10181000C882196B0968C88B000452D4C2F30E0049
:10182000C883C88B002480B212F1FF32C88218BF6F
:1018300001229C62D96A2E4809680D6800F12404CF
:10184000A54236D00068C46814F0804F0C680D685B
:1018500015BF248824780235013544F000440D601A
:101860004463196B254B09791970214912B1CA6A71
:1018700012791A70F0BC7047521A9A620122D9E7A5
:10188000586B196805681E4C0A63CC62CC682D68D9
:101890001C4E24F080440327B542CC6083F82570A9
:1018A0001FD1037F4260022BC2601ED0F0BC02F049
:1018B000C9B9016890F82400CC6840F00040486342
:1018C000CFE7CC8BC2F3080004F47E442043C883E6
:1018D000A7E7CC8BC0F3080004F47E442043C88300
:1018E00094E72B461146F0BC18478368F0BC1847B4
:1018F000DC88FF1F1F8000401C8000401B800040D0
:1019000000000FFFBD17000090E80C00F0B41C6849
:1019100059682568164F174E29432160164D1749FF
:101920001760D66015611160417A154A5C180A315A
:1019300094F8244053F8215002EBC40149680D602B
:10194000017A5C1803EB8101247ECD6902EBC401AE
:1019500049680D60817A581803EB810390F83000D4
:10196000596B02EBC002F0BC53681960704700BFAE
:1019700001401F00011000380110007800001F8096
:10198000348C00004268036805CA10B4046822431E
:101990000260DA6881B942F08072D9688A4209D05F
:1019A000196848040BD40948186042F08040DA6096
:1019B0001861196010BC704722F08072EDE742F0A8
:1019C0008041DA6010BC1961704700BF01401F0000
:1019D00043680CCB11680B4313607047426803687F
:1019E00005CA10B4046822430260D868840100F07C
:1019F000E06205D5080900F4706021F470410143EC
:101A0000D8681143814209D01A68500408D40748A5
:101A1000186041F08040D96018611A6010BC7047AE
:101A200041F08042D96010BC1A61704701401F002C
:101A300068230370704700BF30B583B004460123AC
:101A4000002500780093022203236B21FFF7BEFAE2
:101A500020780095022304221B21FFF7B7FA207893
:101A60000095022304221C21FFF7B0FA20782B46B0
:101A700006226B2103B0BDE83040FFF77FBA00BFFC
:101A80000A4600781921FFF76DBA00BF00B583B090
:101A900000780091032305221A21FFF797FA03B07B
:101AA0005DF804FB00B583B00078009103230222A7
:101AB0001A21FFF78BFA03B05DF804FB00B583B081
:101AC00000780091022304221B21FFF77FFA03B064
:101AD0005DF804FB0A4600781F21FFF743BA00BFF8
:101AE0000A4600782021FFF73DBA00BF0A46007879
:101AF0002121FFF737BA00BF0A4600782221FFF7FD
:101B000031BA00BF032900D9704701EB41012531EB
:101B1000C9B20078FFF726BA0A4600783821FFF7E5
:101B200021BA00BF10B5054B04461B880078621C23
:101B30003A21FFF7B7F9607810BD00BF0288FF1F98
:101B40000B46007806226A21FFF718BA0B46007888
:101B500005226A21FFF712BA0078012302226A21C6
:101B6000FFF70CBA012300781A466A21FFF706BA7C
:101B70000078012307226B21FFF700BA0B4600789B
:101B800006226B21FFF7FAB900B583B00078009107
:101B9000032302226B21FFF719FA03B05DF804FB5F
:101BA00010B5084B82B004461B88007800930222CF
:101BB000631C7221FFF7F0F86078A37843EA0020F5
:101BC00002B010BD0288FF1F00B5064B00781B88CD
:101BD00083B000930B467421FFF7DEF803B05DF885
:101BE00004FB00BF0288FF1F10B5074B82B00446FC
:101BF0001B88007800930022631C1146FFF75CF9F4
:101C0000607802B010BD00BF0288FF1F00220B46A3
:101C100000781146FFF7B2B910B5034682B0084A02
:101C2000044613F8010B1288009306230192002149
:101C30001A46FFF755F994F9010002B010BD00BF34
:101C40000288FF1F00B583B00623C9B20078009157
:101C50001A460021FFF7BAF903B05DF804FB00BF94
:101C600010B5034682B0084A044613F8010B1288E7
:101C700000930623019201211A46FFF731F994F9E6
:101C8000010002B010BD00BF0288FF1F00B583B085
:101C90000623C9B2007800911A460121FFF796F990
:101CA00003B05DF804FB00BF10B5034682B0084ADC
:101CB000044613F8010B12880093062301920221B7
:101CC0001A46FFF70DF994F9010002B010BD00BFEC
:101CD0000288FF1F00B583B00623C9B200780091C7
:101CE0001A460221FFF772F903B05DF804FB00BF4A
:101CF0008AB200780A21FFF7C9B900BF8AB200781A
:101D00001321FFF7C3B900BF8AB200781521FFF78E
:101D1000BDB900BF8AB200781721FFF7B7B900BF7D
:101D20000B46007807226A21FFF728B900780123C3
:101D300003226A21FFF722B901F01F010BB141F024
:101D400020010AB141F040010A4600786D21FFF7F9
:101D500009B900BF0A4600786E21FFF703B900BF3A
:101D600010B5054B04461B880078621C6F21FFF7F5
:101D700099F8607810BD00BF0288FF1F2DE9F04F71
:101D800085B0804603F01F0B9DF838500078039310
:101D9000174689465A466D21FFF7E4F82A4698F817
:101DA00000006E21FFF7DEF82FB3DFF87CA00026DD
:101DB00006F11003BC1BE4B29F42B4BF22461022BE
:101DC000C5F58070A8BF14469042BCBF6C42E4B217
:101DD000BAF800E098F80000CDF800E009EB06033F
:101DE00026446F212246B6B2FEF7D6FFB7424FF027
:101DF0006D01254402D805B0BDE8F08F15F0FF0550
:101E000005D1039B0133DBB2039303F01F0B5A464A
:101E100098F80000FFF7A6F82A466E2198F800000F
:101E2000FFF7A0F8C4E700BF0288FF1F2DE9F04FBD
:101E300087B003F01F0B05939DF844309DF8405088
:101E4000049107461C4603936D219DF848300078A5
:101E5000029391465A46FFF785F82A4638786E2154
:101E6000FFF780F8002C7FD1029B002B77D1B9F1CE
:101E7000000F48D0002606F1100399454CDAC6EB56
:101E80000904E4B22346C5F580729A42029BBCBFA6
:101E90006C42E4B2002B42D064B1049B601E9A19DC
:101EA00058FA80F008F1FF3312F8011B03F8011F04
:101EB0008342F9D1434622466F213878FFF72CF848
:101EC000039BE3B1BAF1000F19D05A466D2138785F
:101ED000FFF748F82A466E213878FFF743F82D4B74
:101EE00038781B88009322466F215346FEF754FF33
:101EF00022465146404604F0B7F8002839D126441E
:101F0000B6B2B1450FD8039B002B3BD1029BFBB966
:101F1000012007B0BDE8F08F10231C46B3E7049BF7
:101F200003EB0608C6E7254415F0FF0505D1059B20
:101F30000133DBB2059303F01F0B5A466D2138784D
:101F4000FFF710F82A466E213878FFF70BF892E772
:101F5000404603F0C9FD012007B0BDE8F08F102016
:101F600003F0BAFD804682E7102003F0B5FD8246FB
:101F70007AE7504603F0B8FD029B3BB9002007B05A
:101F8000BDE8F08F504603F0AFFDBFE7404603F0D9
:101F9000ABFDF3E70288FF1F30B585B09DF8204008
:101FA0009DF824500094012401950294FFF73EFF10
:101FB00005B030BD2DE9F04F824687B00E46914600
:101FC0001F46002B65D1002A37D04FF0000B0BF1D4
:101FD000020292B20BF10305B45CADB2002F3ED009
:101FE0007CB30BF1010292B2042C16F80B3016F8F8
:101FF00002B041D8A4B204F1FF3C18FA8CFC70196D
:1020000008F1FF3110F801EB01F801EF8C45F9D12F
:10201000012100220292CDF800B0019122464146F2
:102020005046FFF703FF2C441FFA84FB60B3D945E9
:10203000CDD817B1404603F057FD012007B0BDE8E9
:10204000F08F725D0BF10403012A1FFA83FB1BD191
:10205000322238219AF80000FEF784FFE7E7002CCF
:10206000EFD00BF1010292B216F80B3016F802B065
:10207000A4B206EB0508CBE740462146059304F0E1
:10208000DBF8059B8046B5E75FB9002007B0BDE8E7
:10209000F08F082003F020FD8046B9F1000F94D1A5
:1020A000C8E7404603F020FDEFE700BF0123FFF73C
:1020B00081BF00BF0A4600787021FEF753BF00BF02
:1020C0000A4600787121FEF74DBF00BF03884288A1
:1020D0009A4203D0D8B2012100F08CBC704700BFF7
:1020E00038B504460D460B480121FFF74BFC002193
:1020F0000848FFF76DFC08490648FFF76FFC2946C2
:10210000A07800F077FC63695B0101D0013BFDD151
:1021100038BD00BFDC88FF1F0320033838B50C46EC
:1021200000210546FFF7DCFF0D4B1B6804F01F0480
:102130004FF00042DA625C63DA6A002AFCDA4FF0A0
:102140000041FF22986BD9625A63DA6A002AFCDAEE
:102150009C6B28460121FFF7C3FFE0B238BD00BFEA
:10216000DC88FF1FF8B50E46002114461F460546C1
:10217000FFF7B6FF124B06F01F02196842F020026B
:102180004FF00043CB624A63CA6A002AFCDA8E6BC6
:10219000781EF6B2C0B26FB12044621E4FF0004408
:1021A00012F8013FCC624B63CB6A002BFCDA82420F
:1021B0008B6BF5D128460121FFF792FF3046F8BD21
:1021C000DC88FF1F70B50C46002116460546FFF758
:1021D00087FF0E4B04F01F041B6844F020044FF0EF
:1021E0000042DA625C63D96A0029FCDA9C6B4FF02A
:1021F0000042DA62E4B25E63DA6A002AFCDA284658
:1022000001219B6BFFF76CFF204670BDDC88FF1F30
:102210002DE9F8430D46C1790646007A9142894678
:102220001F4628BF9146002840D1C9EB01015FFA43
:1022300081F808F1FF34E4B200213046FFF750FF87
:102240001C4B19684FF00043CB624F63CB6A002BE5
:10225000FCDA8F6B09F1FF30FFB2C0B2B9F1000FA9
:102260000DD028446A1E4FF0004512F8013FCD62A0
:102270004B63CB6A002BFCDA82428B6BF5D1B8F151
:10228000000F0CD04FF000400022C8624A63CB6AB6
:10229000002BFCDA013CE4B2FF2C8B6BF5D130460D
:1022A0000121FFF71DFF3846BDE8F883FF244FF0FA
:1022B0000008C1E7DC88FF1F38B50C460021054641
:1022C000FFF70EFF074B1A684FF00043D3625463C9
:1022D000D36A002BFCDA946B28460121FFF700FF3C
:1022E000E0B238BDDC88FF1F70B40024052520262D
:1022F000C6718471047244728573456101804280A5
:1023000070BC704710B5044600886388834203D0D0
:10231000C0B2002100F06EFB23695B0101D0013BDC
:10232000FDD11D212046FFF7F9FE830706D523695D
:102330005B011AD1E1212046FFF7BEFF00212046B4
:10234000FFF7ECFE002100F0FE022046FFF73AFF07
:1023500002212046FFF7E2FE40F00102D2B2204601
:102360000221BDE81040FFF72DBF013BFDD1E1E7A1
:1023700010B500210446FFF7D1FE00F0020303B1BF
:1023800010BD40F0020203F0FF012046D2B2FFF779
:1023900019FF0520BDE8104000F038BB002B10B538
:1023A00018BFB023044608BFA023FFF731FF204623
:1023B000FFF78CFEFF212046FFF77EFF10F0300F65
:1023C000F8D020886388834203D0C0B2002100F097
:1023D00011FB702207212046FFF7F4FEC30601D44B
:1023E000012010BD2046E121FFF766FF002010BD4F
:1023F0000023FFF7D3BF00BF38B504460D460A4699
:10240000837B0A21FFF7AEFE2A46A37B20461021DC
:10241000FFF7A8FEE27920461121BDE83840FFF71A
:10242000D1BE00BF10B500210446FFF759FE0D4B89
:102430001B684FF000415022D9625A63DA6A002AC1
:10244000FCDA4FF000417322986BD9625A63DA6A62
:10245000002AFCDA20469B6B0121BDE81040FFF703
:102460003FBE00BFDC88FF1F38B50C46062105467D
:10247000FFF754FE032C9CBF6400013400F0F80207
:1024800094BF04F0FF040724224328460621BDE838
:102490003840FFF797BE00BF70B50E4606210446D0
:1024A000FFF73CFE022E00F0D70514D0012E12BF1C
:1024B000FA23BE2345F0080523612A46062120465B
:1024C000FFF780FE20460621FFF728FE281AB0FA03
:1024D00080F0400970BD4FF4E17345F020052361A1
:1024E000EBE700BF70B504460088638883420BD0D9
:1024F000C0B2012100F084FA60882388834203D0AF
:10250000C0B2012100F07CFA3048FFF7FDF92088C5
:102510006388834203D0C0B2002100F06BFA01212E
:102520002046FFF7DDFD052000F070FA0C220021A7
:102530002046FFF747FE04215F222046FFF742FEB8
:1025400002212046FFF7A8FF08B10123A37106214D
:102550002046FFF7E3FD002105462046FFF79CFFDC
:102560002046FFF75FFF002600221D212046FFF7CF
:1025700029FE32461C212046FFF724FE26727022D7
:1025800007212046FFF71EFE4C2205212046FFF7BB
:1025900019FEE2212046FFF78FFEE1212046FFF7DA
:1025A0008BFE2046FFF7E4FE31462046FFF7B6FDDE
:1025B000314600F0FE022046FFF704FE681EC0B25E
:1025C000FD288CBF0020012070BD00BFDC88FF1FEC
:1025D000844641EA000313F003036DD1403A41D32E
:1025E00051F8043B40F8043B51F8043B40F8043BED
:1025F00051F8043B40F8043B51F8043B40F8043BDD
:1026000051F8043B40F8043B51F8043B40F8043BCC
:1026100051F8043B40F8043B51F8043B40F8043BBC
:1026200051F8043B40F8043B51F8043B40F8043BAC
:1026300051F8043B40F8043B51F8043B40F8043B9C
:1026400051F8043B40F8043B51F8043B40F8043B8C
:1026500051F8043B40F8043B51F8043B40F8043B7C
:10266000403ABDD2303211D351F8043B40F8043B1C
:1026700051F8043B40F8043B51F8043B40F8043B5C
:1026800051F8043B40F8043B103AEDD20C3205D32C
:1026900051F8043B40F8043B043AF9D2043208D024
:1026A000D2071CBF11F8013B00F8013B01D30B8896
:1026B00003806046704700BF082A13D38B078DD074
:1026C00010F003038AD0C3F10403D21ADB071CBF46
:1026D00011F8013B00F8013B80D331F8023B20F8B0
:1026E000023B7BE7043AD9D3013A11F8013B00F8E9
:1026F000013BF9D20B7803704B7843708B78837071
:102700006046704708B5104C08E0236859050DD4A1
:1027100023681A050FD42368DB0411D423685803F7
:10272000F3D500F00BFB23685905F1D502F044F80E
:1027300023681A05EFD502F0D5F82368DB04EDD540
:1027400002F066F9EAE700BF3480044008B5FFF7FD
:10275000D9FF00BF014B10221A80704700200540AE
:10276000704700BF094908B50B6830B16A46184484
:10277000A2F58052904202D20860184608BD03F0CC
:102780007DF90C2303604FF0FF3008BD1489FF1F53
:10279000704700BF10B40F4B53F8302092F88042BE
:1027A0002CB1012369B182F8803010BC704703EB73
:1027B000C0035B681A6841B922F002021A6010BCBB
:1027C000704782F8003110BC704742F003021A6073
:1027D00010BC7047348C00001C4A02EBC003012976
:1027E0005B6811D004291BD052F83000002280F819
:1027F000802229B1022920D0032922D01A607047F3
:102800004FF480721A60704752F830004FF4A27291
:1028100080F880121A601A6822F020021A6070474D
:1028200052F830104FF4A272012081F880021A6031
:102830001A6842F020021A60704740F203121A60D0
:1028400070474FF481721A60704700BF348C0000EB
:10285000212848D8F8B5042A44D8DFE802F0484BCC
:102860004E0345004FF410262B4B03EBC0030D46DF
:102870005C68216811F4E06148D0284B284A294956
:10288000C3F89C2104F140422748C3F8A411A2F5E3
:102890009221264FC3F8A0017C292548C3F8A871CE
:1028A000C3F8AC012CD9A2F594237C2B2AD9A2F52C
:1028B00096237C2B28D9A2F598237C2B29D9A2F525
:1028C0009A227C2A27D81B4872B6236823F47023E7
:1028D00043F08072C4F384011643236040F8215012
:1028E000266062B6F8BD70474FF43026BCE74FF45F
:1028F0000026B9E74FF44026B6E74FF42026B3E7A9
:102900000D48E1E70D48DFE70D48DDE7FFF764FF1D
:10291000B3E70C48D8E7F8BD348C00000082FF1FF5
:10292000D187FF1F7987FF1FA587FF1F4D87FF1FD7
:102930002187FF1FF089FF1F1889FF1F5089FF1F84
:10294000A089FF1FD089FF1F1A4B03EBC00010B4F2
:10295000426802F14043A3F592217C2923D9A3F5D3
:1029600094217C290DD9A3F596217C291FD9A3F5A3
:1029700098217C2919D9A3F59A237C2B11D80E4CC8
:1029800000E00E4C72B613680D4823F08773C2F353
:10299000840123F4803343F08073136044F82100F2
:1029A00062B610BC7047074CECE7074CEAE7074CEF
:1029B000E8E700BF348C0000F089FF1F5089FF1F3B
:1029C000912700001889FF1FD089FF1FA089FF1FD2
:1029D00030B4054B054D064C002210211A602A60C8
:1029E0002060196030BC704714D0034004D003400D
:1029F00000D00340212801D8FFF7CCBE704700BFAC
:102A0000212801D8FFF7E8BE704700BF2DE9F84341
:102A1000054672B6204F214B214A1B683C6812685C
:102A200062B6520102D5322B88BF013495B3C3F58B
:102A3000BB331C4EDFF86490DFF86480FF334FF443
:102A40007A72A6FB031302FB04F404EB931472B630
:102A5000D9F800103A68D8F800E062B6C1F5BB3387
:102A6000FF33A6FB03031EF0806FC4EB93134FF4F8
:102A70007A7002D0322988BF013200FB0233B3F5ED
:102A80007A7F04D3013D05D004F57A74DFE701F0C5
:102A9000E7FBDCE7BDE8F883D493FF1F18E000E014
:102AA00004ED00E0ABAAAAAAF8B52D4B2D49DFF83A
:102AB000D0E0DFF8D0C02C4E2C4D2D4C2D4A2E4F9F
:102AC0004FF4000018604FF0807018604FF00070F5
:102AD00018604FF0806018604FF0006018600020B0
:102AE000086028234BF6FF71CCF80010CEF80030B8
:102AF000336013602B6023603B60B36293620922F2
:102B000045F8242CC4F8D80F05F57F65C7F8D41F05
:102B100007F5FF2707F5FA67C6F8F83F2B6006F5BB
:102B2000FF26C4F8D42F05F5FD2504F5FF243860F1
:102B300006F2F4761148316005F5FF6504F5FD6491
:102B40002B602360026001F0D9FB1920FFF75EFFC4
:102B500000F05CFE40F21310BDE8F840FFF756BFEE
:102B600008E100E004800340148003402480034017
:102B70002C8003401C8003403480034000800B40C5
:102B80000C80034008800340431E032B14D872B608
:102B90000A4951F8230068B170B4094C058834F82B
:102BA0001320466841F82360521B24F8132062B6B4
:102BB00070BC704762B67047002070473094FF1FAA
:102BC000B496FF1F013803280BD872B6074B53F891
:102BD000203043B100205B680130002BFBD162B68E
:102BE0007047002070471846F9E700BF8494FF1F24
:102BF00030B472B62B4A13781D0706D52A4B196AD2
:102C0000002936D0996A002941D053781C0706D58F
:102C1000254B196C00293ED0996C002939D0937846
:102C2000190705D5204B196E002936D0996E89B148
:102C3000D3781B0707D51C4BD3F880207AB3D3F881
:102C4000882011213AB162B6184B00221A7030BCAC
:102C500000F068BE0D21154C154D227843F8315017
:102C600003EBC1030830013A5860227062B630BCF1
:102C7000704704220D4C0F4D217843F8325003EB7E
:102C8000C20308304A1E5860227062B6EFE7052181
:102C9000E1E70921DFE70822ECE70C22EAE710224E
:102CA000E8E700BF848D00000080FF1FAD94FF1F88
:102CB000C800400088004000431E032B1DD81B4A5B
:102CC000400140F0100030B4104472B6184CE25C81
:102CD000032A1BD8DFE802F00212151703220D8821
:102CE000E25410F0080F14BFC823882343EA0543B9
:102CF00008310360416062B630BC70470830022280
:102D0000EDE70522EBE708300422E8E7094A52F82C
:102D1000230038B1084A52F82300416042F82310DA
:102D200062B6E9E742F82310034AF7E70080FF1F85
:102D3000BC94FF1F8494FF1F9494FF1F2DE9F04F54
:102D4000DFF80CB3DFF80CA387B044E0AB4F4FEAD9
:102D5000930807EBC809013ED9F8042003F00803E3
:102D6000F6B2A2F1080003F0FF04002B40F002814C
:102D700057F838301B0C99B222F8081C002B00F0D1
:102D8000F0809F4B22F8064C42F8044C53F8262062
:102D9000002A00F0C5829B4D55F8263058609A4CA9
:102DA00045F8260034F81630194424F8161000F0BF
:102DB00099FD002800F0AD82944A954B19F0080F58
:102DC00000F1080018BF1346C9F8040047F838306E
:102DD00008238BF800309BF80040E4B261071AD555
:102DE0008C4B1B78A3B18C490A7802F0FF0322B107
:102DF000013BDBB20B7003B900BE88490A7802F0D0
:102E0000FF032AB1013BDBB20B70002B00F05782AD
:102E100004238BF8003004F0080303F0FF02002BBA
:102E200000F0CC809AF80030DBB21E098ED19C08ED
:102E3000DFF8C89159F8342009EBC401C2F38302CA
:102E4000013A49680C2A00F28880DFE802F07C7CB5
:102E50008686868686864786868607000868704D41
:102E60004A68704F704E286081B240F28160674BB3
:102E70006A604FF0010E0022814249F834303A6016
:102E8000C9F81020C9F8182086F800E05B4C00F261
:102E9000E380B1F5D06F80F04683B1F5817F00F01B
:102EA000FC8200F28D82802900F07783822940F035
:102EB000FA82A98801F07F01042900F2F4825B48BC
:102EC0005B4C89000844227062700278930740F1DD
:102ED000588484F800E04FF0020E42E3514F3A6804
:102EE00032B3544B504E5449188834780D784028EA
:102EF000864645F0020828BF4FF0400E002C84F0B3
:102F000001043470CEEB00000CBF8824C82409EB08
:102F1000C80680B285F0010544EA0E44726018804C
:102F200049F8384072440D70002800F045813A603D
:102F30003B4B1A88B2F5A06F0FD100219A785970D7
:102F40003E4B1A7009E0364A108842F22102904244
:102F500000F037812D4A49F83420394A0123137093
:102F600036E72A4A2A4B19F0080F18BF134647F8CC
:102F700038302DE700F0D6FC324A334952F826307B
:102F8000002B00F0D18158688C5D42F8260003F1D7
:102F90000802C9F80420032C05D8DFE804F02C024D
:102FA000292602228A551A8819F0080F0CBF882397
:102FB000C82343EA024347F8383009E7E00700F145
:102FC0008181210600F1F281A20706D51F4A20491E
:102FD00013780220DBB213700870E30602D51C4B95
:102FE00010221A7007B0BDE8F08F04228A55DAE784
:102FF00005228A55D7E703228A55D4E70080FF1FB0
:103000003094FF1FDC93FF1FB496FF1FC8004000E1
:1030100088004000B894FF1F4194FF1FC094FF1F19
:10302000A494FF1FD893FF1F4094FF1FC0200740A8
:10303000B094FF1FEC93FF1FAC94FF1F9820074034
:10304000942007408494FF1FBC94FF1F88200740F2
:10305000802007409020074042F22100814200F08A
:103060002A8100F2D880B1F5086F00F07682B1F5C0
:10307000106F40F01882226AB349A87808701206CF
:1030800000F13A83D9F82820B049130600F10C83E7
:10309000D9F83020AD49150600F10183D9F8382060
:1030A000AA49140600F1F682D9F84020A749100673
:1030B00000F14A83D9F84820A449120600F13F8361
:1030C000D9F85020A149130600F13483D9F85820CB
:1030D0009E49150600F12983D9F860209B49140602
:1030E00000F11E83D9F868209849100600F1138377
:1030F000D9F870209549120600F10883D9F8782094
:103100009249130600F1FD82D9F880208F491506F7
:1031100000F13183D9F888208C49140600F1258309
:10312000D9F890208949100600F11983D9F8982020
:103130008649120600F10D838548864A864901902A
:103140008648874D874C0497002305960295804654
:103150000F4616461D460394306828B1446800F0B7
:10316000E1FB2046002CF9D100233360029B386834
:103170001A46002342F8253028B1446800F0D2FBFB
:103180002046002CF9D100223A60019A98F80030CC
:103190001146002241F8042B039A0191023B4FF0A3
:1031A000000122F81510032B00F22B81DFE813F049
:1031B0007001250170012501BEF1400F18BF0022EA
:1031C000B5E6694A0D784878157050708D78C878E2
:1031D0009570D07010680D79157186284D798979B0
:1031E0005571917100F09B816049614E0A78307889
:1031F00082F00105002842F002020D700CBF882108
:10320000C82149F8321009EBC20280F00100002108
:10321000307051609EE642F22120814240F0CB8125
:10322000544B554C5549A8781D682560CDF804E0ED
:103230000870002002908046844604464B490D7871
:1032400045F0020E09EBCE030393019B002B039B79
:103250005C600CBF8824C82444EA080385F001049C
:1032600049F83E3032700C70DFF8E0E0404BDFF898
:10327000FC80002840F01E81BCF1400F1BD144F0BF
:10328000020C09EBCC03029CDFF8C0E05C60002A72
:1032900040F02681020442F088029DF804304EF886
:1032A0003C20044433700D702346402803D1002095
:1032B000334A3B601080334A012313704DE600F01F
:1032C0009DFCA5E5214B2F4828491A614FF0020EBD
:1032D00080F800E02C4F0A702C49196099602C4E40
:1032E0002C4D2D4C9A610D213970FF213170DFF882
:1032F000B8E029702270294D294A8EF800109F27C6
:10330000012406F8047C5D600470DA6007B0BDE853
:10331000F08F244A47F8380013780133137057E5CB
:1033200043F826000E4D3AE58B5D032B00F2F0804A
:1033300001A252F823F000BFD12D0000D12D0000D2
:10334000F5330000EF330000B894FF1F0080FF1F2B
:103350009494FF1F3094FF1F8494FF1FBC94FF1FA1
:10336000DC93FF1FB496FF1FBC96FF1FAC94FF1F9A
:103370004094FF1FD493FF1FC496FF1FD094FF1FDC
:10338000EC93FF1F94200740C020074088004000B6
:10339000882007408020074098200740F093FF1FB7
:1033A0004494FF1FAD94FF1F8C200740C149C24BBE
:1033B00080220D2008701A70A2077FF50EAE05E678
:1033C00040F20232914240F0EE80A98801F07F0184
:1033D000042968D86A88002A65D1B648CDF804E087
:1033E00089000844017841F00201017021E70123BE
:1033F0008B55EDE400238B55EAE44FF0010388F888
:1034000000300135042D06F1040607F1040708F128
:1034100001087FF4A1AEA94CA94B2278A94D049FC5
:10342000059E002129701A70130700F1058162784A
:10343000A549DFF8A0820A7010074FF00001C9F813
:103440003010C9F8381000F1E080A049A2780A7065
:103450000021C9F85010C9F858101107DFF874821C
:1034600000F10181E2789A499A4C0A700021120712
:10347000C9F87010C9F8781000F1B0803378019362
:10348000002183F00102C9F89010C9F89810D0E625
:103490004FF0000388F80030B3E7A98801F07F01FE
:1034A000042940F28D80834A0F2313708A4A012336
:1034B000137052E540287FF6E2AE44F002040EEBB2
:1034C000C401029E4E60BAB19DF80410834A19707F
:1034D0003346403888F8005040334EF83420E7E651
:1034E0009DF8043033700204029B0D7042F0C80254
:1034F00003444EF83C20D8E69DF804101970029B56
:10350000774A88F80050403840334EF83420CFE6F0
:1035100019F0080F0CBF022303238B5558E4714A9E
:103520000F21117060E6704A5468002CBBD0688887
:10353000B5F804E003E00C325468002CB3D01388D3
:103540008342F8D153887345F5D1000A03280CBF94
:1035500094F800E0B2F808E003E0644A644C1278A2
:103560002270E888704580F03F8162490D784028DC
:10357000844645F0020E28BF4FF0400C04EB0C03CC
:1035800009EBCE02029301235460CCEB00004FEA1A
:103590000C4800220193C8245EE6554C4FF0020E01
:1035A00022706270DDE7B1F5A06F7FF47CAF01237C
:1035B000002201933DE642F221329142F7D072E7B8
:1035C0006A88002A7FF46FAF3A48CDF804E089009A
:1035D0000844017821F0020101702AE600F082F926
:1035E000002800F0EF8008303D4AC4F88400C4F899
:1035F000802000F077F9002800F0DE800830374A9C
:10360000C9F88C00C9F8882038E700F06BF9002869
:1036100000F0C0800830324AC8F84400C8F84020A2
:1036200000F060F9002800F0AF8008302B4AC9F89C
:103630004C00C9F8482008E700F054F9002800F0D1
:10364000CD800830264AC9F82400C9F8202000F0AF
:1036500049F9002800F0BC800830204AC9F82C0045
:10366000C9F82820E3E600F03DF9002800F09E802C
:1036700008301B4AC8F86400C8F8602000F032F92E
:10368000002800F08D800830144AC9F86C00C9F891
:103690006820E7E6C86B083800F044F904E5486B99
:1036A000083800F03FF9F9E4C86A083800F03AF940
:1036B000EEE400BFC020074080200740848D00005A
:1036C000C4200740AD94FF1FC8200740CC2007400E
:1036D000D02007400080FF1F94200740C800400012
:1036E000880040004194FF1F888D0000B894FF1FA0
:1036F000B094FF1FAC94FF1F606A083800F012F905
:10370000C0E4C86F083800F00DF9FDE4486F0838D0
:1037100000F008F9F2E4C86E083800F003F9E7E4B5
:10372000486E083800F0FEF8DCE4C86D083800F098
:10373000F9F8D1E4486D083800F0F4F8C6E4C86C34
:10374000083800F0EFF8BBE4486C083800F0EAF8FD
:10375000B0E4D1F89C00083800F0E4F8ECE4D1F8CB
:103760009400083800F0DEF8E0E4D1F88C00083866
:1037700000F0D8F8D4E4D1F88400083800F0D2F88A
:10378000C8E44FF0020EECE62A78C9F8480001328E
:103790002A705AE62A78C8F8400001322A703FE7BA
:1037A0002A78C9F8680001322A705BE62A78C8F8DE
:1037B000600001322A7061E72A78C9F88800013276
:1037C0002A705BE62A78C4F8800001322A7010E77C
:1037D0002A78C9F8280001322A7028E62A78C9F820
:1037E000200001322A7032E7BEF1400FF44628BFB4
:1037F0004FF0400C04EB0C0302930123CCEB0E00C2
:103800004FEA0C480022019318E500BFF8B501F01B
:103810006BF9294B29482A4C2A4F2B4DDFF8BCC0A5
:10382000DFF8BCE0294E00221A605A609A60DA6024
:103830001A615A619A61DA611A625A629A62DA62AC
:103840001A635A639A63DA631A645A649A64DA648C
:103850001A655A659A65DA651A665A669A66DA666C
:103860001A675A679A67DA67C3F880200168C3F855
:10387000842041F480210160C3F307212170C3F348
:103880000740134938701B0E2B70FF238CF8003053
:10389000104D8EF8003010480B700123337084F8FF
:1038A000642070264FF40074102207F82C3C2E7010
:1038B000046081F8F820F8BD0080FF1F34800440C8
:1038C0009C200740B0200740B420074094200740C8
:1038D0001020074049E400E008E100E080200740B4
:1038E0008820074072B60D480268B2FA82F30B2BAB
:1038F00010DC4FF00041D94022EA0102026062B6BA
:10390000074803EBC303DB00C2180021C150104677
:103910005160704762B60020704700BFF889FF1FF2
:10392000BC83FF1F0D4B0E4AC31AA2FB03231B09C6
:103930000B2B0CD80B4A127852B972B60A484FF0CA
:103940000041026821FA03F31A43026062B670472D
:10395000064A1278002AF0D0FFF74AB9BC83FF1F4D
:10396000398EE338AD94FF1FF889FF1FB894FF1F0D
:1039700038B50F4D286878B143880288C1180133E3
:1039800093420C7A02D24380204638BDFFF7CAFF2B
:10399000002320462B6038BD064B1B782BB103203B
:1039A000FFF7F2F828600028E6D14FF0FF3038BD6D
:1039B000CC94FF1FB894FF1F10B5094C206818B1B4
:1039C00043881844007A10BD064B1B782BB10320A6
:1039D000FFF7DAF820600028F2D14FF0FF3010BD79
:1039E000CC94FF1FB894FF1F044B054A1B689088B6
:1039F0001BB11A885B88D31A18447047CC94FF1FF8
:103A0000B496FF1F0B4B1B789BB110B50A4C206876
:103A100048B1FFF787FF002303202360FFF7B4F8C6
:103A200030B1FFF77FFF0320FFF7AEF80028F8D191
:103A300010BD7047B894FF1FCC94FF1F2DE9F04FC5
:103A4000DFF8F89083B0012289F80020019169B372
:103A5000DFF8EC80364F019E8346D8F80000B0B303
:103A6000344D4488C4F14001B14228BF314604EBD3
:103A7000010E00221FFA8EFE2A70761AA0F802E0CC
:103A800000F1080251B1013C224459441BF8014B9A
:103A900002F8014F8B45F9D1B0F802E0BEF13F0FBB
:103AA0000BD8254A05211170002ED6D1019800238C
:103AB00089F8003003B0BDE8F08F40220280014653
:103AC0000420FFF7F9F80022C8F80020E9E73A7867
:103AD0002AB3184D4AF2F9244FF0010A07E0013CDD
:103AE00016D02A78A2B900F0BBFB3A78BAB104200C
:103AF000FFF768F80728F2D889F800A0FFF7F2FE70
:103B0000C8F800000028ACD10C4B013C1870E8D17B
:103B100001234FF0FF302B7003B0BDE8F08F00237E
:103B20004FF0FF3089F8003003B0BDE8F08F00BFE0
:103B3000B894FF1FC894FF1FC094FF1FC194FF1FBC
:103B4000C494FF1F00B583B002AB012103F8010D3F
:103B50001846FFF773FF03B05DF804FB38B50E4D50
:103B60000E4C28680123237028B14088002323705D
:103B7000C0F1400038BD0A4B1B7813B900202070FB
:103B800038BD0420FFF71EF80728F7D8FFF7AAFE74
:103B900028600028E9D1F1E7C494FF1FC194FF1FFA
:103BA000B894FF1FF8B5114B1B788BB1104E114D17
:103BB000346801272F7064B10F4A6388002717709B
:103BC000214623800420FFF777F8376000232B700D
:103BD000F8BDFFF787FE084B28B1014604201C7092
:103BE000FFF76AF8F2E71F70F0E700BFB894FF1F15
:103BF000C494FF1FC194FF1FC094FF1F38B50E4B24
:103C00001B7873B90D4C216861B103F0FF054B8837
:103C10000B800420FFF750F8256038BD084B0122C7
:103C20001A7038BDFFF75EFE0028F7D00146BDE8E8
:103C300038400420FFF740B8C194FF1FC494FF1F11
:103C4000C094FF1F10B4EFF3108272B6437F33B9F4
:103C5000017F012907D003290FD00123437702B93F
:103C600062B610BC7047124C2168A1B11149436182
:103C70000B68836108605861EFE70F4C216881B1E0
:103C80000E4943610B688361086058610C4B4FF02B
:103C900080511960E1E7074B416181612060186044
:103CA000DBE7064B4161816120601860EEE700BFF1
:103CB000E494FF1FE094FF1FD494FF1FD894FF1FCC
:103CC00004ED00E070B5EFF3108272B60C4C206882
:103CD00080B10C4E00254369236073B19D6102B928
:103CE00062B6457783689847EFF3108272B6206812
:103CF0000028F0D102B962B670BD3360EFE700BFB3
:103D0000D494FF1FD894FF1FFFF7DCBF184A30B4CC
:103D10001468002C27D0036821688B420ED2CB1A7E
:103D200000218460C1602360E0601060022303759D
:103D300030BC704711688B42144608D3A2685B1AE6
:103D40000360002AF6D18260C460A060EEE7D2680A
:103D5000C2608460E060C568CB1A0222A86023605C
:103D6000027530BC70478460C4601060DEE700BF3D
:103D7000DC94FF1FF8B5224E34682CB32368002B67
:103D80003AD1204F1D4604E03468ECB12368002B83
:103D900032D1A36803B1DD60206933600368257503
:103DA0001B68BB4221D1037F4560022BC46020D039
:103DB000FFF748FF6368002BE6D023602046FFF73B
:103DC000A5FF3468002CE1D1EFF3108372B60E4AE0
:103DD00000211068116003B962B628B18468FFF74A
:103DE00095FF20460028F9D1F8BD224600219847CA
:103DF000E0E783689847DDE7013B2360E4E700BF25
:103E0000DC94FF1FBD170000EC94FF1F024A1368EB
:103E100001331360FFF7AEBFD493FF1F08B5FCF763
:103E20007DFDFCF7DDFD00F01BFAFAE700B5064A60
:103E3000036812885B6883B001A9ADF804200222F0
:103E4000984703B05DF804FB448D0000F0B50746C9
:103E50008BB0002A33D0012A08BF0A2251B3212493
:103E600000E0F4B2B1FBF2F502FB1511C8B209296A
:103E700000F1300198BFC8B20AA988BF3730214489
:103E800088BFC0B201F8240C661E2946002DE8D177
:103E900033B1013CE4B20AAB23442D2203F8242CB5
:103EA0003B6801AA11195B683846C4F122029847A1
:103EB0000BB0F0BD30228DF825202124E8E70368FF
:103EC000C9B21B6898470BB0F0BD00BFFFFFFFFFF2
:103ED0002DE9F04385B080461946104616461F4628
:103EE0009DF8305001F09AFA002840F0B18027F098
:103EF0000044304621464FF0FF32594B01F08EFA14
:103F000098B9304621464FF0FF32554B01F068FA20
:103F100058B9D8F8003053495B68404603229847A7
:103F20008146484605B0BDE8F083304639464FF03B
:103F300060424D4B01F068FA002870D13046394696
:103F40004FF06042494B01F041FA002867D13046FA
:103F500039460022002301F039FA002863D1814656
:103F6000002D65D0424B00240022104619463AA38A
:103F7000D3E9002300F0B8FF01340B46E1B28D42D3
:103F80000246F2D83046394600F0FCFD0F460646A0
:103F900001F05AFA044600F031FF02460B46304663
:103FA000394600F0EDFD4B4606460F460A222146F3
:103FB0004046FFF74BFF0F2D28BF0F2501352E235D
:103FC0008146EDB28DF8003001240022294B3046A5
:103FD000394600F089FF0F46064601F035FA04AB7A
:103FE0002344C0B200F1300203F8102C00F016FF99
:103FF00002460B463046394600F0C2FD0134E4B2B9
:10400000AC4206460F46E0D1D8F8003022465B6845
:10401000404669469847484605B0BDE8F083D8F861
:104020000030154978E707F100474FF0010997E79D
:1040300000220F4B3046394600F0A4FD01F004FA8F
:104040004B4601460A224046FFF700FF814668E7DB
:10405000D8F8003009495FE7000000A09999B93FFE
:10406000FFFFEF7F508D0000FFFFEF41FFFFEFC12B
:104070000000E03F000024404C8D0000488D00000F
:10408000FFF7C0BCFFF798BCFFF772BCFFF7ACBCF2
:10409000FFF788BDFFF762BD08461146FFF7CEBCAB
:1040A0000846FFF74FBD00BF704700BF10B504467C
:1040B000006801F019FD204610BD00BF38B5436807
:1040C0008B4201D3012038BD0D4604460131006802
:1040D00002F0B2F80028F6D0A36884E82100002B93
:1040E000F0D10370EEE700BFF8B50446154632B9CB
:1040F000036803B11A700023A3602046F8BD0E4682
:104100001146FFF7DBFF074648B9206810B101F000
:10411000EBFC276000236360A3602046F8BDA56028
:104120003146206802F092FAE7E700BF38B5002375
:104130000446036043608360037341B108460D4643
:1041400002F0FEFA294602462046FFF7CDFF204640
:1041500038BD00BF0023884210B5044603604360A9
:104160008360037303D08A680968FFF7BDFF2046A8
:1041700010BD00BF38B5054608460C4602F0E0FA0F
:10418000214602462846BDE83840FFF7ADBF00BFD4
:1041900010B5044600238AB0084623606360A3601C
:1041A0002373911C6B4600F03FF930B10146204665
:1041B000FFF7E0FF20460AB010BDA06020460AB01D
:1041C00010BD00BF2DE9F84303680F46BB4204460B
:1041D000816815460AD85A18974207D2C3EB0709D7
:1041E0004FF0010835B92046BDE8F8834FF00008CC
:1041F000002DF8D04E1931462046FFF75FFF00280A
:10420000F1D0B8F1000F0ED02368A0682A4603EB66
:1042100009011844FEF7DCF9236800229A55A660CC
:104220002046BDE8F8832068A3683946184402F0A8
:104230000DFAF4E710B58A6809680446FFF7C2FF73
:10424000204610BD38B5054641B108460C4602F07F
:1042500077FA214602462846FFF7B4FF284638BDC4
:1042600038B5224C237803B138BD01232370FFF702
:10427000BBFB70BB00F090FA40BB00F023FB10BB0F
:1042800000F0B6FBE0B900232370EFF30583002BA9
:10429000EAD1EFF3108172B6154B1868E0B1154CF6
:1042A0002278CAB945691D6001232370C5B1AA618E
:1042B00001B962B600254577836898472570D3E732
:1042C00000F058FCDFE700F053FCD9E700F04EFCAB
:1042D000D3E7FFF7E9FECDE70029C5D162B638BDC7
:1042E000054B1D600029E5D1E3E700BFF094FF1FF7
:1042F000E494FF1FE894FF1FE094FF1F30B42948A7
:10430000294A2A4B2A4D6024E121047011701B7840
:10431000284C082B30D00A2B2748284937D00C2BA3
:104320000CBF35223D2212232A60236002600B60FD
:10433000234B24491B78244ABBB101230B60136033
:10434000224B23491B78234A012B26D9042B0FD952
:10435000082B1ED9102B94BF862387230B60136074
:104360001D4B01221A7030BC70470B601360E7E7E9
:1043700084230B601360F3E700F58E200F490830AB
:10438000012213232A60236002600B60D0E73922E8
:10439000F7E785230B601360E2E780230B6013606F
:1043A000DEE700BF00400740014007400C8AFF1FC6
:1043B00008B003400CB0034008B00B400CB00B40F9
:1043C000F294FF1F20B0034020B00B400D8AFF1F66
:1043D00024B0034024B00B40F194FF1FF0B44D1EF5
:1043E0002E46002400E00134B0FBF2F302FB130080
:1043F000092800F130078ABF3730F8B2C0B206F89A
:10440000010F1846002BEED10A1953704CB11078E9
:1044100015F8016F28700133E01A834202F8016930
:10442000F5DB0846F0BC70472DE9F04F0D4685B02E
:1044300085EAE5790146824617461C46A9EBE579EF
:1044400001F0F6FA002840F02F812AF0004840469B
:10445000C74901F0EDFA002847D14046C44901F0B0
:10446000C9FA0646002840D10021504601F0B8FAAA
:10447000002814BF0420032048451DDB002DC0F296
:1044800074815046002101F0ABFA254648BB492112
:104490004E22462321706270A3700334002E00F078
:1044A0007681A019202304F8013BA042FBD1002310
:1044B000037005B0BDE8F08F002DC0EB0906E0DA0F
:1044C000002E00F05281A519202304F8013BAC42D4
:1044D000FBD15046002101F083FA002800F0228130
:1044E00000262D232B706C1CD1E702AB01AA3946A4
:1044F000504601F0B3FABB468046DDF80490002F29
:1045000057D0C9F10003BB4200F39480404602F04B
:1045100017F90646B145B8BF0136B9F1000F40F0B2
:1045200098800136DDF808E0BEF1000F53D0013667
:10453000A81B002804EB060153DC23462D221A7029
:104540000133B9F1000F63D137B11A46302002F8B8
:10455000020B2E20587013468B4220D25F1C98F815
:1045600000201A708F4208F1010819D0019A4FF00B
:104570002E0E0BE083F801E002338B4203F10107BA
:104580000DD218F8010B18708F4209D0013A019230
:10459000002AEFD03B468B4203F10107F1D31946C5
:1045A000002DC0F2A980002320460B7005B0BDE8A5
:1045B000F08FB9F1000FA4D190F800806D496E4AD8
:1045C000012301939946B8F1340F8CBF8846904679
:1045D0004FF0FF3397E7A81B002804EB060140F3D8
:1045E000D8800144224601384FF0200C02F801CB5C
:1045F000C2F1010303442344002BF7DC20EAE073FB
:1046000001332344BEF1000F98D1B9F1000F9BD0C4
:10461000A2DA002FA0D01A46302002F8020B2E2773
:104620005F70C9EB020302F8010B9342FBD1002239
:10463000019291E7C7F100090126B1453046B8BFA4
:104640000136B9F1000FDFF83081CDF804903FF466
:1046500068AFBFF667AF002F3FF464AF09EB070305
:10466000984207F102067FF65DAF002F07DD504646
:10467000424901F017F8BBF1010B8246F7D102ABBA
:1046800003AA5946504601F0E9F9DDF80490039A6F
:104690007B1CC9EB02029A4208BF09F1010980465E
:1046A00008BFCDF804903DE70021504601F098F98D
:1046B000002814BF0420032048453BDA002DC0EB3E
:1046C00009063BDB4FF07E535046002163F31E008A
:1046D00001F086F92546002841D14E23412223705E
:1046E000A37062700334002E51D0A019202304F867
:1046F000013B8442FBD1DAE6A8194342002B6FEA62
:1047000000007FF750AF0A46202502F8015BC2F196
:10471000010303440B44002BF7DC20EAE073013370
:10472000194440E749214E22462329706A70AB7034
:10473000E81CBCE6002D16DB0026C3E79EB1A519D8
:10474000202304F8013BAC42FBD14FF07E5350468E
:10475000002163F31E0001F043F988B100262D23E8
:104760002B706C1CB9E72546EFE72546B1E600BF84
:10477000FFFF7F7F808D00007C8D000000002041C6
:104780004E2341222B70AB706A70E81C8FE62046E6
:104790008DE62346D5E600BF054A064B10781B7808
:1047A000C0B2DBB2984238BF4030C01A704700BF79
:1047B000F894FF1FF994FF1FF0B4384B1A7912F0E8
:1047C000300F2CD072B6997D01F0FF0200293DD048
:1047D00062B6334F334938780D78334E1C46C0B239
:1047E000EDB2431C402BE17928BF0023AB4202F11C
:1047F000FF32C9B21CBFF154184612F0FF02F0D1CB
:104800002A4B1B68C2B23A704BB1A84236BFC5F101
:104810004005401B40192728C4BF01221A701F49B8
:10482000CA78D2B2150616D452060DD51B4B1B7989
:104830005B0609D51E4B1F491B6800220A7003B195
:104840001A70164B3C22DA70F0BC70474022D979BE
:104850005A7462B6E3E70B791C06E5D5164B174E82
:104860001C783378E4B2DBB29C420ED0144D01E0E8
:10487000A3420AD00133402B28BF00230879E85C0B
:10488000C0B2C871087D0728F2D9DBB20349337082
:104890000B79180644BF7C23CB70C5E700A0064007
:1048A000F894FF1FF994FF1F3C95FF1FF494FF1F1E
:1048B0008095FF1F7C95FF1F8495FF1F7D95FF1F2F
:1048C000FC94FF1F054A064B10781B78C0B2DBB280
:1048D000984238BF4030C01A704700BFF895FF1F9C
:1048E0008D95FF1FF0B4384B1A7912F0300F2CD091
:1048F00072B6997D01F0FF0200293DD062B6334FB8
:10490000334938780D78334E1C46C0B2EDB2431CA3
:10491000402BE17928BF0023AB4202F1FF32C9B23C
:104920001CBFF154184612F0FF02F0D12A4B1B684D
:10493000C2B23A704BB1A84236BFC5F14005401B28
:1049400040192728C4BF01221A701F49CA78D2B261
:10495000150616D452060DD51B4B1B795B0609D5DF
:104960001E4B1F491B6800220A7003B11A70164BB8
:104970003C22DA70F0BC70474022D9795A7462B692
:10498000E3E70B791C06E5D5164B174E1C783378F8
:10499000E4B2DBB29C420ED0144D01E0A3420AD037
:1049A0000133282B28BF00230879E85CC0B2C87106
:1049B000087D0728F2D9DBB2034933700B7918065A
:1049C00044BF7C23CB70C5E700B00640F895FF1FBD
:1049D0008D95FF1FB895FF1F8895FF1FFC95FF1F42
:1049E0008C95FF1F0096FF1FF995FF1F9095FF1FE5
:1049F000054A064B10781B78C0B2DBB2984238BF2C
:104A00004030C01A704700BF0896FF1F0996FF1F6D
:104A100030B42B4B1A7994061FD52A48DA790378DB
:104A2000294901333F2B0978C8BF00238B42D2B2FA
:104A300003D0264CD9B2E2540170254A116861B105
:104A4000244A1278D2B2934236BFC2F140029B1A76
:104A50009B18272BC4BF01230B70194AD378DBB2F4
:104A6000180611D45A060DD5154B1B795B0609D5CE
:104A7000194B1A491B6800220A7003B11A70104BB7
:104A80002C22DA7030BC704711790906EAD5144936
:104A900010480C780178C9B28C420DD04A1C272AE4
:104AA00084BF00210A460F4D054C98BFD1B2AA5CC5
:104AB000D2B2E2710170D5E76C21D170D2E700BFAC
:104AC00000C006400896FF1F0996FF1F3496FF1F7F
:104AD0000496FF1F7596FF1F7896FF1F7496FF1FA1
:104AE0007C96FF1F0C96FF1F70B584B072B6194BF1
:104AF000194D1A48702241260F2480211A702E70F9
:104B00001A460470197013781B06FCD5144B1868EC
:104B100062B6144B144C984298BF00EB800001A978
:104B200098BF40000A22FFF759FC01A92046002344
:104B300011F8012B01333AB10A2B20F8022FF7D1DB
:104B40001623237004B070BD5B00DBB2237004B089
:104B500070BD00BF00000240070002400600024096
:104B6000080002407F9698009C8AFF1F704700BF94
:104B7000704700BF704700BF81F0004102E000BFF6
:104B800083F0004330B54FEA41044FEA430594EA0D
:104B9000050F08BF90EA020F1FBF54EA000C55EA48
:104BA000020C7FEA645C7FEA655C00F0E2804FEA19
:104BB0005454D4EB5555B8BF6D420CDD2C4480EAFB
:104BC000020281EA030382EA000083EA010180EA2B
:104BD000020281EA0303362D88BF30BD11F0004F79
:104BE0004FEA01314FF4801C4CEA113102D04042AF
:104BF00061EB410113F0004F4FEA03334CEA1333EA
:104C000002D0524263EB430394EA050F00F0A78001
:104C1000A4F10104D5F1200E0DDB02FA0EFC22FAFC
:104C200005F2801841F1000103FA0EF2801843FAF0
:104C300005F359410EE0A5F120050EF1200E012AE1
:104C400003FA0EFC28BF4CF0020C43FA05F3C0181F
:104C500051EBE37101F0004507D54FF0000EDCF198
:104C6000000C7EEB00006EEB0101B1F5801F1BD341
:104C7000B1F5001F0CD349085FEA30004FEA3C0C45
:104C800004F101044FEA445212F5800F80F09A803B
:104C9000BCF1004F08BF5FEA500C50F1000041EB3F
:104CA000045141EA050130BD5FEA4C0C404141EB43
:104CB000010111F4801FA4F10104E9D191F0000F6A
:104CC00004BF01460020B1FA81F308BF2033A3F1ED
:104CD0000B03B3F120020CDA0C3208DD02F1140CE4
:104CE000C2F10C0201FA0CF021FA02F10CE002F11F
:104CF0001402D8BFC2F1200C01FA02F120FA0CFC18
:104D0000DCBF41EA0C019040E41AA2BF01EB045160
:104D1000294330BD6FEA04041F3C1CDA0C340EDC5E
:104D200004F11404C4F1200220FA04F001FA02F3A1
:104D300040EA030021FA04F345EA030130BDC4F15F
:104D40000C04C4F1200220FA02F001FA04F340EA54
:104D50000300294630BD21FA04F0294630BD94F005
:104D6000000F83F4801306BF81F480110134013DEC
:104D70004EE77FEA645C18BF7FEA655C29D094EA5D
:104D8000050F08BF90EA020F05D054EA000C04BFDB
:104D90001946104630BD91EA030F1EBF00210020C6
:104DA00030BD5FEA545C05D14000494128BF41F065
:104DB000004130BD14F580043CBF01F5801130BDC9
:104DC00001F0004545F0FE4141F470014FF0000054
:104DD00030BD7FEA645C1ABF194610467FEA655C05
:104DE0001CBF0B46024650EA013406BF52EA0335A7
:104DF00091EA030F41F4002130BD00BF90F0000F95
:104E000004BF0021704730B54FF4806404F13204D0
:104E10004FF000054FF0000150E700BF90F0000F89
:104E200004BF0021704730B54FF4806404F13204B0
:104E300010F0004548BF40424FF000013EE700BF80
:104E400042004FEAE2014FEA31014FEA02701FBF10
:104E500012F07F4393F07F4F81F06051704792F0E2
:104E6000000F14BF93F07F4F704730B54FF460745C
:104E700001F0004521F0004120E700BF50EA0102A7
:104E800008BF704730B54FF000050AE050EA010254
:104E900008BF704730B511F0004502D5404261EBC4
:104EA00041014FF4806404F132045FEA915C3FF405
:104EB000DCAE4FF003025FEADC0C18BF03325FEA9E
:104EC000DC0C18BF033202EBDC02C2F1200300FA53
:104ED00003FC20FA02F001FA03FE40EA0E0021FA78
:104EE00002F11444C1E600BF70B54FF0FF0C4CF462
:104EF000E06C1CEA11541DBF1CEA135594EA0C0F18
:104F000095EA0C0F00F0DEF82C4481EA030621EA52
:104F10004C5123EA4C5350EA013518BF52EA03358D
:104F200041F4801143F4801338D0A0FB02CE4FF03F
:104F30000005E1FB02E506F00042E0FB03E54FF06F
:104F40000006E1FB03569CF0000F18BF4EF0010E67
:104F5000A4F1FF04B6F5007F64F5407404D25FEA63
:104F60004E0E6D4146EB060642EAC62141EA555116
:104F70004FEAC52040EA5E504FEACE2EB4F1FD0C58
:104F800088BFBCF5E06F1ED8BEF1004F08BF5FEAD6
:104F9000500E50F1000041EB045170BD06F0004688
:104FA00046EA010140EA020081EA0301B4EB5C0435
:104FB000C2BFD4EB0C0541EA045170BD41F480112D
:104FC0004FF0000E013C00F3AB8014F1360FDEBF52
:104FD000002001F0004170BDC4F10004203C35DA2E
:104FE0000C341BDC04F11404C4F1200500FA05F3B1
:104FF00020FA04F001FA05F240EA020001F0004252
:1050000021F0004110EBD37021FA04F642EB0601C7
:105010005EEA430E08BF20EAD37070BDC4F10C04F1
:10502000C4F1200500FA04F320FA05F001FA04F2B5
:1050300040EA020001F0004110EBD37041F10001A1
:105040005EEA430E08BF20EAD37070BDC4F12005AC
:1050500000FA05F24EEA020E20FA04F301FA05F214
:1050600043EA020321FA04F001F0004121FA04F2BC
:1050700020EA020000EBD3705EEA430E08BF20EA8C
:10508000D37070BD94F0000F0FD101F000464000C6
:1050900041EB010111F4801F08BF013CF7D041EA48
:1050A000060195F0000F18BF704703F0004652004C
:1050B00043EB030313F4801F08BF013DF7D043EA1D
:1050C0000603704794EA0C0F0CEA135518BF95EAD3
:1050D0000C0F0CD050EA410618BF52EA4306D1D15A
:1050E00081EA030101F000414FF0000070BD50EA79
:1050F000410606BF1046194652EA430619D094EA03
:105100000C0F02D150EA013613D195EA0C0F05D1EC
:1051100052EA03361CBF104619460AD181EA030140
:1051200001F0004141F0FE4141F470014FF00000F8
:1051300070BD41F0FE4141F4780170BD70B54FF093
:10514000FF0C4CF4E06C1CEA11541DBF1CEA135513
:1051500094EA0C0F95EA0C0F00F0A7F8A4EB0504F5
:1051600081EA030E52EA03354FEA013100F08880EC
:105170004FEA03334FF0805545EA131343EA1263B5
:105180004FEA022245EA111545EA10654FEA00266A
:105190000EF000419D4208BF964244F1FD0404F523
:1051A000407402D25B084FEA3202B61A65EB03057F
:1051B0005B084FEA32024FF480104FF4002CB6EB3C
:1051C000020E75EB030E22BFB61A754640EA0C00BC
:1051D0005B084FEA3202B6EB020E75EB030E22BFFC
:1051E000B61A754640EA5C005B084FEA3202B6EB3D
:1051F000020E75EB030E22BFB61A754640EA9C00FC
:105200005B084FEA3202B6EB020E75EB030E22BFCB
:10521000B61A754640EADC0055EA060E18D04FEA89
:10522000051545EA16754FEA06164FEAC30343EA29
:1052300052734FEAC2025FEA1C1CC0D111F4801FF6
:105240000BD141EA00014FF000004FF0004CB6E7EF
:1052500011F4801F04BF01430020B4F1FD0C88BF8E
:10526000BCF5E06F3FF6AFAEB5EB030C04BFB6EB99
:10527000020C5FEA500C50F1000041EB045170BD8C
:105280000EF0004E4EEA113114EB5C04C2BFD4EBB9
:105290000C0541EA045170BD41F480114FF0000E3D
:1052A000013C90E645EA060E8DE60CEA135594EAB9
:1052B0000C0F08BF95EA0C0F3FF43BAF94EA0C0FBC
:1052C0000AD150EA01347FF434AF95EA0C0F7FF431
:1052D00025AF104619462CE795EA0C0F06D152EA85
:1052E00003353FF4FDAE1046194622E750EA410669
:1052F00018BF52EA43067FF4C5AE50EA41047FF47A
:105300000DAF52EA43057FF4EBAE12E74FF0FF3CDE
:1053100006E000BF4FF0010C02E000BF4FF0010CAF
:105320004DF804CD4FEA410C7FEA6C5C4FEA430C28
:1053300018BF7FEA6C5C1BD001B050EA410C0CBF77
:1053400052EA430C91EA030F02BF90EA020F0020D9
:10535000704710F1000F91EA030F58BF994208BF40
:1053600090422CBFD8176FEAE37040F001007047FD
:105370004FEA410C7FEA6C5C02D150EA013C07D154
:105380004FEA430C7FEA6C5CD6D152EA033CD3D09F
:105390005DF8040B704700BF8446104662468C4699
:1053A0001946634600E000BF01B5FFF7B7FF0028CC
:1053B00048BF10F1000F01BD4DF808EDFFF7F4FFF5
:1053C0000CBF012000205DF808FB00BF4DF808ED80
:1053D000FFF7EAFF34BF012000205DF808FB00BFA3
:1053E0004DF808EDFFF7E0FF94BF012000205DF8C5
:1053F00008FB00BF4DF808EDFFF7CEFF94BF01207A
:1054000000205DF808FB00BF4DF808EDFFF7C4FF72
:1054100034BF012000205DF808FB00BF4FEA410CBB
:105420007FEA6C5C02D150EA013C0AD14FEA430C9E
:105430007FEA6C5C02D152EA033C02D14FF00000DB
:1054400070474FF0010070474A0011D212F5001268
:1054500011D20DD56FF47873B3EB62520ED44FEACC
:10546000C12343F0004343EA505323FA02F070474C
:105470004FF00000704750EA013002D14FF0FF308A
:1054800070474FF00000704780F0004002E000BF1E
:1054900081F0004142001FBF5FEA410392EA030F1F
:1054A0007FEA226C7FEA236C6AD04FEA1262D2EB69
:1054B0001363C1BFD218414048404140B8BF5B426E
:1054C000192B88BF704710F0004F40F4000020F007
:1054D0007F4018BF404211F0004F41F4000121F01D
:1054E0007F4118BF494292EA030F3FD0A2F1010267
:1054F00041FA03FC10EB0C00C3F1200301FA03F1A5
:1055000000F0004302D5494260EB4000B0F5000FC7
:1055100013D3B0F1807F06D340084FEA310102F186
:105520000102FE2A51D2B1F1004F40EBC25008BF38
:1055300020F0010040EA03007047490040EB000002
:1055400010F4000FA2F10102EDD1B0FA80FCACF131
:10555000080CB2EB0C0200FA0CF0AABF00EBC25030
:1055600052421843BCBFD0401843704792F0000F1E
:1055700081F4000106BF80F400000132013BB5E771
:105580004FEA41037FEA226C18BF7FEA236C21D0E7
:1055900092EA030F04D092F0000F08BF084670474C
:1055A00090EA010F1CBF0020704712F07F4F04D11A
:1055B000400028BF40F00040704712F100723CBF2D
:1055C00000F50000704700F0004343F0FE4040F457
:1055D000000070477FEA226216BF08467FEA236315
:1055E0000146420206BF5FEA412390EA010F40F400
:1055F000800070474FF0000304E000BF10F000434C
:1056000048BF40425FEA000C08BF704743F0964332
:1056100001464FF000001CE050EA010208BF70474D
:105620004FF000030AE000BF50EA010208BF7047D4
:1056300011F0004302D5404261EB41015FEA010CE9
:1056400002BF84460146002043F0B64308BFA3F1E1
:105650008053A3F50003BCFA8CF2083AA3EBC253C3
:1056600010DB01FA02FC634400FA02FCC2F12002E2
:10567000BCF1004F20FA02F243EB020008BF20F019
:105680000100704702F1200201FA02FCC2F120027F
:1056900050EA4C0021FA02F243EB020008BF20EA74
:1056A000DC7070474FF0FF0C1CEAD0521EBF1CEAA2
:1056B000D15392EA0C0F93EA0C0F6FD01A4480EA90
:1056C000010C400218BF5FEA41211ED04FF0006379
:1056D00043EA501043EA5111A0FB01310CF00040A5
:1056E000B1F5000F3EBF490041EAD3715B0040EACB
:1056F000010062F17F02FD2A1DD8B3F1004F40EB9B
:10570000C25008BF20F00100704790F0000F0CF06D
:10571000004C08BF49024CEA502040EA51207F3A31
:10572000C2BFD2F1FF0340EAC250704740F400000C
:105730004FF00003013A5DDC12F1190FDCBF00F0FD
:1057400000407047C2F10002410021FA02F1C2F1AB
:10575000200200FA02FC5FEA310040F1000053EA47
:105760004C0308BF20EADC70704792F0000F00F095
:10577000004C02BF400010F4000F013AF9D040EA9B
:105780000C0093F0000F01F0004C02BF490011F42F
:10579000000F013BF9D041EA0C018FE70CEAD1532D
:1057A00092EA0C0F18BF93EA0C0F0AD030F0004CAD
:1057B00018BF31F0004CD8D180EA010000F0004061
:1057C000704790F0000F17BF90F0004F084691F01F
:1057D000000F91F0004F14D092EA0C0F01D1420259
:1057E0000FD193EA0C0F03D14B0218BF084608D122
:1057F00080EA010000F0004040F0FE4040F400006C
:10580000704740F0FE4040F4400070474FF0FF0CFE
:105810001CEAD0521EBF1CEAD15392EA0C0F93EA45
:105820000C0F69D0A2EB030280EA010C49024FEA97
:10583000402037D04FF0805343EA111143EA101350
:105840000CF000408B4238BF5B0042F17D024FF408
:10585000000C8B4224BF5B1A40EA0C00B3EB510FE3
:1058600024BFA3EB510340EA5C00B3EB910F24BFCC
:10587000A3EB910340EA9C00B3EBD10F24BFA3EB51
:10588000D10340EADC001B0118BF5FEA1C1CE0D119
:10589000FD2A3FF650AF8B4240EBC25008BF20F0CC
:1058A000010070470CF0004C4CEA50207F32C2BF20
:1058B000D2F1FF0340EAC250704740F400004FF0BD
:1058C0000003013A37E792F0000F00F0004C02BFEE
:1058D000400010F4000F013AF9D040EA0C0093F0B8
:1058E000000F01F0004C02BF490011F4000F013B12
:1058F000F9D041EA0C0195E70CEAD15392EA0C0F7A
:1059000008D142027FF47DAF93EA0C0F7FF470AFB1
:10591000084676E793EA0C0F04D14B023FF44CAFF4
:1059200008466EE730F0004C18BF31F0004CCAD189
:1059300030F000427FF45CAF31F000437FF43CAFC5
:105940005FE700BF4FF0FF3C06E000BF4FF0010CE7
:1059500002E000BF4FF0010C4DF804CD4FEA4002C9
:105960004FEA41037FEA226C18BF7FEA236C11D013
:1059700001B052EA530C18BF90EA010F58BFB2EBC6
:10598000030088BFC81738BF6FEAE17018BF40F046
:10599000010070477FEA226C02D15FEA402C05D1FA
:1059A0007FEA236CE4D15FEA412CE1D05DF8040B7F
:1059B000704700BF844608466146FFE70FB5FFF712
:1059C000C9FF002848BF10F1000F0FBD4DF808EDCA
:1059D000FFF7F4FF0CBF012000205DF808FB00BFBB
:1059E0004DF808EDFFF7EAFF34BF012000205DF815
:1059F00008FB00BF4DF808EDFFF7E0FF94BF012062
:105A000000205DF808FB00BF4DF808EDFFF7D2FF5E
:105A100094BF012000205DF808FB00BF4DF808EDA1
:105A2000FFF7C8FF34BF012000205DF808FB00BF6E
:105A30004FEA40024FEA41037FEA226C02D15FEA5B
:105A4000402C08D17FEA236C02D15FEA412C02D1BD
:105A50004FF0000070474FF001007047F0B583B081
:105A600016461F460D460024FFF7EAF90097334615
:105A70002A46019400F0E2FE03B0F0BD014B186825
:105A8000704700BFE08EFF1F70B50F4E0F4D761BA5
:105A9000B61018BF002405D0013455F8043B9847D0
:105AA000A642F9D10A4E0B4D761B03F021FAB6102F
:105AB00018BF002406D0013455F8043B9847A6428D
:105AC000F9D170BD70BD00BFFC8E0000FC8E0000DF
:105AD000088F0000FC8E0000024B0146186800F0A1
