:100000000C9466000C948E000C948E000C948E0060
:100010000C948E000C948E000C948E000C948E0028
:100020000C948E000C948E000C948E000C948E0018
:100030000C948E000C948E000C948E000C948E0008
:100040000C9495030C948E000C9463030C943D0364
:100050000C948E000C948E000C948E000C948E00E8
:100060000C948E000C948E00000000080002010029
:100070000003040700000000000000001112131428
:1000800015160A0B0C0D0E0F0001020304050000EB
:100090000000250028002B0000000000240027009D
:1000A0002A000404040404040404020202020202FA
:1000B000030303030303010204081020408001022C
:1000C00004081020010204081020DF0311241FBEC1
:1000D000CFEFD8E0DEBFCDBF11E0A0E0B1E0E2E9B4
:1000E000F8E102C005900D92A632B107D9F722E0DF
:1000F000A6E2B1E001C01D92AB32B207E1F710E019
:10010000C6E6D0E004C02197FE010E94360BC5363A
:10011000D107C9F70E9425040C94470C0C940000E9
:1001200090E0FC01EA54FF4F2491FC01EE55FF4F93
:100130008491882399F090E0880F991FFC01E8567C
:10014000FF4FA591B491FC01E257FF4F8591949127
:100150008FB7F894EC91E22BEC938FBF0895CF9278
:10016000DF92EF92FF920F931F93CF93DF936C0177
:100170007A018B01C0E0D0E0CE15DF0581F0D80117
:100180006D918D01D601ED91FC910190F081E02DF2
:10019000C6010995892B11F02196EECF7E01C7018A
:1001A000DF91CF911F910F91FF90EF90DF90CF9053
:1001B0000895089580E090E00895FC01538D448DEA
:1001C000252F30E0842F90E0821B930B541710F002
:1001D000CF96089501970895FC01918D828D98170F
:1001E00061F0828DDF01A80FB11D5D968C91928D1B
:1001F0009F5F9F73928F90E008958FEF9FEF089518
:10020000FC01918D828D981731F0828DE80FF11DE0
:10021000858D90E008958FEF9FEF0895FC01918DFB
:10022000228D892F90E0805C9F4F821B91098F73F4
:100230009927089582E791E00E940E0121E0892B21
:1002400009F420E0822F0895FC01848DDF01A80FBE
:10025000B11DA35ABF4F2C91848D90E001968F73EE
:100260009927848FA689B7892C93A089B1898C910D
:10027000837080648C93938D848D981306C002885C
:10028000F389E02D80818F7D80830895EF92FF9226
:100290000F931F93CF93DF93EC0181E0888F9B8DA9
:1002A0008C8D981305C0E889F989808185FD26C069
:1002B000F62E0B8D10E00F5F1F4F0F731127E02EEE
:1002C0008C8DE8120CC00FB607FCFACFE889F989CB
:1002D000808185FFF5CFCE010E942401F1CF8B8D67
:1002E000FE01E80FF11DE35AFF4FF0829FB7F8942B
:1002F0000B8FEA89FB89808180620AC09FB7F894DE
:10030000EE89FF896083E889F98980818370806440
:1003100080839FBF81E090E0DF91CF911F910F918B
:10032000FF90EF900895CF93DF93EC01888D8823A1
:10033000C9F0EA89FB89808185FD05C0A889B98952
:100340008C9186FD0FC00FB607FCF5CF808185FF2D
:10035000F2CFA889B9898C9185FFEDCFCE010E949B
:100360002401E7CFDF91CF91089580E090E0892BC1
:1003700029F00E941A0181110C940000089590E068
:10038000FC01E859FF4F2491FC01EA54FF4F3491DE
:10039000FC01EE55FF4FE491EE2309F43CC022230B
:1003A00039F1233091F038F42130A9F0223001F5F1
:1003B00084B58F7D12C0273091F02830A1F0243011
:1003C000B9F4809180008F7D03C0809180008F7789
:1003D000809380000DC084B58F7784BD09C0809163
:1003E000B0008F7703C08091B0008F7D8093B00004
:1003F000F0E0EE0FFF1FE257FF4FA591B4919FB7BA
:10040000F894611104C08C913095382302C0EC91AE
:100410003E2B3C939FBF08959CB59F7D9CBD9CB592
:10042000937F9CBD9CB59C7F9CBD9DB591609DBDFF
:10043000682F809111020E94BF0180912302909148
:1004400024028230910538F0880F991F880F991F78
:1004500005970197F1F708953FB7F89480912B0124
:1004600090912C01A0912D01B0912E0126B5A89B51
:1004700005C02F3F19F00196A11DB11D3FBFBA2F36
:10048000A92F982F8827820F911DA11DB11DBC0196
:10049000CD0142E0660F771F881F991F4A95D1F75B
:1004A00008958F929F92AF92BF92CF92DF92EF9278
:1004B000FF926B017C010E942C024B015C01C11474
:1004C000D104E104F104F1F00E942C02DC01CB0123
:1004D00088199909AA09BB09883E9340A105B1056D
:1004E00070F321E0C21AD108E108F10888EE880E05
:1004F00083E0981EA11CB11CC114D104E104F104D5
:1005000019F7DDCFFF90EF90DF90CF90BF90AF90C5
:100510009F908F9008958EBD00000DB407FEFDCF13
:100520008EB50895CF9380E00E940C0281EE0E9468
:100530008B02C82F81E00E940C028C2FCF9108956E
:10054000CF93C82F80E00E940C028C2F8F710E94E5
:100550008B028FEF0E948B02C82F81E00E940C0259
:100560008C2FCF910895CF93DF93C82FD62F80E0A3
:100570000E940C028C2F8F7180620E948B02C82F08
:100580008D2F0E948B0281E00E940C028C2FDF9144
:10059000CF91089580E00E94A00281FD0BC0682FDA
:1005A000626080E00E94B30265E070E080E090E06D
:1005B0000C9451020895EF92FF920F931F93CF93E3
:1005C000DF93182F7B01C42F80E00E940C02812F43
:1005D0008F7180620E948B02D82F8701CC2339F063
:1005E000F80181918F010E948B02C150F7CF81E009
:1005F0000E940C028D2FDF91CF911F910F91FF90E0
:10060000EF9008950E94020C0F931F93CF93DF93F6
:10061000EC0188819981009729F02A813B81261776
:10062000370788F48B016F5F7F4F0E943C0B009768
:1006300061F0998388831B830A832C813D81232B5E
:1006400011F4FC01108281E001C080E0DF91CF91C4
:100650001F910F910895CF93DF93EC0188819981C9
:10066000009711F00E94C609198218821D821C820F
:100670001B821A82DF91CF9108951F920F920FB6BD
:100680000F9211242F933F934F935F936F937F9318
:100690008F939F93AF93BF93EF93FF9382E791E084
:1006A0000E942401FF91EF91BF91AF919F918F9193
:1006B0007F916F915F914F913F912F910F900FBE5E
:1006C0000F901F9018951F920F920FB60F92112442
:1006D0002F938F939F93EF93FF93E0918201F0917B
:1006E00083018081E0918801F091890182FD12C02F
:1006F000908180918B018F5F8F7320918C01821785
:1007000051F0E0918B01F0E0EE58FE4F958F809311
:100710008B0101C08081FF91EF919F918F912F916B
:100720000F900FBE0F901F9018951F920F920FB64B
:100730000F9211242F933F938F939F93AF93BF9367
:100740008091270190912801A0912901B0912A015F
:100750003091260123E0230F2D3720F40196A11DAF
:10076000B11D05C026E8230F0296A11DB11D2093DF
:1007700026018093270190932801A0932901B0932B
:100780002A0180912B0190912C01A0912D01B09113
:100790002E010196A11DB11D80932B0190932C0178
:1007A000A0932D01B0932E01BF91AF919F918F9196
:1007B0003F912F910F900FBE0F901F901895E2E779
:1007C000F1E01382128288EE93E0A0E0B0E084832F
:1007D0009583A683B78380E191E09183808385EC44
:1007E00090E09587848784EC90E09787868780ECFB
:1007F00090E0918B808B81EC90E0938B828B82ECEC
:1008000090E0958B848B86EC90E0978B868B118E95
:10081000128E138E148EEFE0F2E087E090E0918369
:10082000808388E090E093838283168280E28783CE
:10083000108685E0868785E090E0A0E0B0E0848BBC
:10084000958BA68BB78B11860895CF93DF93CDB789
:10085000DEB7E2970FB6F894DEBF0FBECDBF789437
:1008600084B5826084BD84B5816084BD85B58260B5
:1008700085BD85B5816085BD80916E008160809366
:100880006E001092810080918100826080938100CF
:1008900080918100816080938100809180008160DF
:1008A000809380008091B10084608093B10080913A
:1008B000B00081608093B00080917A008460809362
:1008C0007A0080917A00826080937A0080917A0029
:1008D000816080937A0080917A00806880937A00AA
:1008E0001092C100E0918201F091830182E0808347
:1008F000E0917E01F0917F011082E0918001F09102
:10090000810180E1808310928A01E0918601F0915B
:10091000870186E08083E0918401F09185018081E8
:1009200080618083E0918401F091850180818860FD
:100930008083E0918401F0918501808180688083CB
:10094000E0918401F091850180818F7D8083809189
:100950000F02909110022091110230911202821721
:10096000930711F00E949000809111029091120261
:1009700020910F02309110022817390711F00E94C0
:1009800090001FB7F89480912F01811124C0ECEAE8
:10099000F0E08491E0ECF0E09491E82FF0E0EE0FCD
:1009A000FF1FE856FF4FA591B491EC91E92321F484
:1009B00061E08AE00E94BF018AE00E9490008CB54D
:1009C00080618CBD8CB580648CBD8DE00E949000F0
:1009D0008BE00E94900080912F018F5F80932F0108
:1009E0001FBF80910F02909110022091110230914F
:1009F00012028217930719F060E00E94BF0181E0A4
:100A00000E940C0265E070E080E090E00E945102DC
:100A10006CE080E00E94B3026FE584E00E94B302C4
:100A200086E00E94A002877D182F10628BE990E07B
:100A3000A0E0B0E080931F0290932002A0932102D7
:100A4000B0932202612F86E00E94B30286E00E94EA
:100A5000A002181709F413C286E00E94A00286E0E3
:100A60000E94A00245E550E060E070E040931F0264
:100A7000509320026093210270932202682F677DB9
:100A800086E00E94B30286E00E94A00280E00E94FD
:100A90000C0280E50E948B0283E70E948B0281E0BA
:100AA0000E940C0260E08DE10E94B30260E08CE1E4
:100AB0000E94B3021092170260E787E00E94B3021F
:100AC0006CE485E00E94B30280E00E940C0282EE9A
:100AD0000E948B0281E00E940C020E9492020E94FE
:100AE000CA0280E00E94A002682F6E7F80E00E9410
:100AF000B30240911D0250E066E071E088E192E0AF
:100B00000E94070CE2E8F0E0849140911D0266E04B
:100B100071E00E94DB02ECE7F0E084916091160244
:100B20000E94B30282E00E94A00208E810E0F801EF
:100B3000949161E070E001C0660F9A95EAF7682B26
:100B400082E00E94B30286E00E94A002887F682FA4
:100B5000616086E00E94B3020E94CA0280E00E94A7
:100B6000A002682F616080E00E94B30260E787E026
:100B70000E94B30280910F02909110022091110205
:100B8000309112028217930719F061E00E94BF01B1
:100B900080911802882341F040911D0268E172E0C3
:100BA0008AE00E94DB0211C082E00E94A002F801EC
:100BB000049121E030E001C0220F0A95EAF7209568
:100BC000622F682382E00E94B3028DE10E94A0029E
:100BD00081FD0E94920210927101109270012EE12B
:100BE000622E2E01F3E04F0E511C30E3C32E31E094
:100BF000D32E40E5A42E41E0B42E0EE111E050E2E8
:100C0000752E1A821982F201862D11928A95E9F7C2
:100C100080911602803210F4382E02C090E2392EF4
:100C200090911702911103C0282E231801C0212C86
:100C300080E00E940C0281E60E948B02FE01319648
:100C40007F014F013A94FFEF3F1202C0F22C07C020
:100C50008FEF0E948B02F70181937F01F3CFFF207A
:100C600029F08FEF0E948B02FA94F9CF81E00E9465
:100C70000C0260E787E00E94B302909171018981C4
:100C8000911114C090917001813469F591112BC0BC
:100C90009F928F921F930F931F927F92BF92AF925A
:100CA0000E94170C81E08093710117C0813409F410
:100CB000D9C09091700191111AC0873409F0D6C043
:100CC0009F928F921F930F931F927F92DF92CF92EA
:100CD0000E94170C81E0809370010FB6F894DEBF7C
:100CE0000FBECDBFC3C0992309F4C0C0BBC01AA2B8
:100CF00019A21CA21BA21EA21DA2F6010190002097
:100D0000E9F73197CF01805391407C01BC01CE01BE
:100D100081960E940403811105C0CE0181960E9434
:100D20002B0308C0FEA2EDA260E371E089A19AA1A5
:100D30000E94100C1EA61DA618AA1FA61AAA19AA60
:100D4000F50101900020E9F73197CF0180559140DE
:100D50007C01BC01CE018D960E940403811105C067
:100D6000CE018D960E942B0308C0FAAAE9AA60E57D
:100D700071E08DA59EA50E94100C18A61FA21AA6B0
:100D800019A61CA61BA6EDA4FEA4E114F104A9F06B
:100D900089A89AA8B401CE0187960E940403811104
:100DA00005C0CE0187960E942B0307C09CA68BA688
:100DB000B7018FA198A50E94100CEBA4FCA49FEF93
:100DC000E91AF90AB701CE0187960E940403882325
:100DD00009F45EC02FA138A58BA59CA561E271E046
:100DE000820F931F0E94100CFCA6EBA68DA19EA162
:100DF00089A09AA08114910409F445C00097B1F02C
:100E0000EBA4FCA4E80EF91EB701CE0187960E9460
:100E100004038823C1F12FA138A58BA59CA5B4019B
:100E2000820F931F0E94100CFCA6EBA64BA55CA59D
:100E30006FA178A582E791E00E94AF0042E050E008
:100E400063E271E082E791E00E94AF008FA198A574
:100E50000E94C6098DA59EA50E94C60989A19AA1D6
:100E60000E94C60910927101109270016AE070E050
:100E700080E090E00E9451020E94B501C2CE81E064
:100E800080931502E9CDCE0187960E942B03CECF29
:100E9000CE0187960E942B03A9CFABE0B0E0E3E53B
:100EA000F7E00C94FF0A6C017B018A01FC011782B8
:100EB0001682838181FFCCC1CE0101963C01F601EF
:100EC0009381F70193FD859193FF81917F018823A1
:100ED00009F4BAC1853239F493FD859193FF81916C
:100EE0007F01853229F4B60190E00E94650AE7CFC0
:100EF000912C212C312CFFE1F315D8F08B3279F0B5
:100F000038F4803279F08332A1F4232D20611DC0A2
:100F10008D3261F0803369F4232D216016C0832D5A
:100F20008260382EE32DE4603E2E2AC0F32DF86057
:100F30001DC037FC2DC020ED280F2A3040F08E3226
:100F4000B9F436FC81C1232D2064322E19C036FE3F
:100F500006C08AE0989E200D1124922E11C0EAE06E
:100F60002E9E200D1124222EF32DF0623F2E08C05C
:100F70008C3621F4832D8068382E02C0883641F4E7
:100F8000F70193FD859193FF81917F018111B3CF8B
:100F9000982F9F7D9554933028F40C5F1F4F9FE34B
:100FA00099830DC0833631F0833771F0833509F0B2
:100FB00059C021C0F801808189830E5F1F4F8824AA
:100FC0008394912C530113C02801F2E04F0E511C61
:100FD000F801A080B18036FE03C0692D70E002C028
:100FE0006FEF7FEFC5010E945A0A4C018201F32D79
:100FF000FF773F2E16C0280122E0420E511CF80157
:10100000A080B18036FE03C0692D70E002C06FEF92
:101010007FEFC5010E944F0A4C01F32DF0683F2E6F
:10102000820133FC1BC0822D90E088169906B0F433
:10103000B60180E290E00E94650A2A94F4CFF5019F
:1010400037FC859137FE81915F01B60190E00E94E7
:10105000650A21102A9421E0821A910881149104D2
:1010600071F7E8C0843611F0893641F5F80137FE92
:1010700007C060817181828193810C5F1F4F08C01E
:1010800060817181072E000C880B990B0E5F1F4F3A
:10109000F32DFF763F2E97FF09C0909580957095B0
:1010A00061957F4F8F4F9F4FF0683F2E2AE030E0D1
:1010B000A3010E94A10A882E861845C0853731F405
:1010C000232D2F7EB22E2AE030E025C0932D997F6C
:1010D000B92E8F36C1F018F4883579F0B5C0803755
:1010E00019F0883721F0B0C0E92FE061BE2EB4FEC0
:1010F0000DC0FB2DF460BF2E09C034FE0AC0292F9D
:101100002660B22E06C028E030E005C020E130E0C5
:1011100002C020E132E0F801B7FE07C060817181B2
:10112000828193810C5F1F4F06C06081718180E0D6
:1011300090E00E5F1F4FA3010E94A10A882E86181F
:10114000FB2DFF773F2E36FE0DC0232D2E7FA22EC6
:10115000891458F434FE0BC032FC09C0832D8E7EF6
:10116000A82E05C0B82CA32C03C0B82C01C0B92CE4
:10117000A4FE0FC0FE01E80DF11D8081803321F433
:101180009A2D997EA92E09C0A2FE06C0B394B394ED
:1011900004C08A2D867809F0B394A3FC11C0A0FE88
:1011A00006C0B21488F4280C922C9B180EC0B214FE
:1011B00060F4B60180E290E00E94650AB394F7CF34
:1011C000B21418F42B1802C0982C212CA4FE10C0C5
:1011D000B60180E390E00E94650AA2FE17C0A1FC60
:1011E00003C088E790E002C088E590E0B6010CC03B
:1011F0008A2D867859F0A1FE02C08BE201C080E200
:10120000A7FC8DE2B60190E00E94650A891438F4CB
:10121000B60180E390E00E94650A9A94F7CF8A9421
:10122000F301E80DF11D8081B60190E00E94650A8E
:101230008110F5CF222009F442CEB60180E290E081
:101240000E94650A2A94F6CFF6018681978102C032
:101250008FEF9FEF2B96E2E10C941B0B0F931F93E4
:10126000CF93DF938230910510F482E090E0E0911B
:101270002902F0912A0220E030E0A0E0B0E03097AF
:1012800019F1408151810281138148175907C8F033
:101290008417950769F4109731F012960C93129702
:1012A00013961C9327C00093290210932A0222C090
:1012B0002115310519F04217530718F49A01BD01A1
:1012C000EF01DF01F801DBCF21153105F9F0281B13
:1012D000390B2430310580F48A819B8161157105B9
:1012E00021F0FB019383828304C090932A028093B0
:1012F0002902FE01329644C0FE01E20FF31F8193E2
:10130000919322503109398328833AC020912702D2
:1013100030912802232B41F42091020130910301E6
:10132000309328022093270220910001309101017F
:101330002115310541F42DB73EB74091040150917C
:101340000501241B350BE0912702F0912802E217DA
:10135000F307A0F42E1B3F0B2817390778F0AC01D8
:101360004E5F5F4F2417350748F04E0F5F1F5093B5
:101370002802409327028193919302C0E0E0F0E0BD
:10138000CF01DF91CF911F910F910895CF93DF93FC
:10139000009709F481C0FC01329713821282A09158
:1013A0002902B0912A02109781F420813181820FA5
:1013B000931F20912702309128022817390751F5F1
:1013C000F0932802E093270267C0ED0120E030E0AF
:1013D000CE17DF0740F44A815B819E01411551051C
:1013E000F1F0EA01F5CFD383C28340815181840FAC
:1013F000951FC817D90759F488819981840F951FC3
:101400000296918380838A819B81938382832115B5
:10141000310529F4F0932A02E09329023DC0E90145
:10142000FB83EA8349915991C40FD51FEC17FD073F
:1014300061F480819181840F951F0296E90199835F
:101440008883828193819B838A83E0E0F0E0129617
:101450008D919C911397009719F0FD01DC01F7CF56
:101460008D919C9111979D012E5F3F4F820F931F8D
:1014700020912702309128022817390769F4309704
:1014800029F410922A021092290202C013821282B9
:10149000B0932802A0932702DF91CF910895FC0119
:1014A0000590615070400110D8F7809590958E0F8F
:1014B0009F1F0895FC016150704001900110D8F702
:1014C000809590958E0F9F1F08950F931F93CF9334
:1014D000DF93FB01238121FD03C08FEF9FEF2CC021
:1014E00022FF16C046815781248135814217530758
:1014F00044F4A081B1819D012F5F3F4F3183208350
:101500008C93268137812F5F3F4F3783268314C00A
:101510008B01EC01FB010084F185E02D0995892BFD
:10152000E1F6D80116968D919C9117970196179622
:101530009C938E931697CE01DF91CF911F910F91BF
:101540000895FA01AA27283051F1203181F1E89459
:101550006F936E7F6E5F7F4F8F4F9F4FAF4FB1E0A6
:101560003ED0B4E03CD0670F781F891F9A1FA11DA1
:10157000680F791F8A1F911DA11D6A0F711D811DA2
:10158000911DA11D20D009F468943F912AE0269F67
:1015900011243019305D3193DEF6CF010895462FC6
:1015A0004770405D4193B3E00FD0C9F7F6CF462FA7
:1015B0004F70405D4A3318F0495D31FD4052419310
:1015C00002D0A9F7EACFB4E0A695979587957795CD
:1015D0006795BA95C9F700976105710508959B0154
:1015E000AC010A2E06945795479537952795BA95DD
:1015F000C9F7620F731F841F951FA01D08952F92B6
:101600003F924F925F926F927F928F929F92AF9292
:10161000BF92CF92DF92EF92FF920F931F93CF93DF
:10162000DF93CDB7DEB7CA1BDB0B0FB6F894DEBF76
:101630000FBECDBF09942A88398848885F846E849C
:101640007D848C849B84AA84B984C884DF80EE80E6
:10165000FD800C811B81AA81B981CE0FD11D0FB6EF
:10166000F894DEBF0FBECDBFED010895EE0FFF1F52
:101670000590F491E02D0994A0E0B0E0E2E4FBE0F5
:101680000C94030BEC01009721F4CB010E942E096E
:10169000B4C0FC01E60FF71F9C0122503109E2178C
:1016A000F30708F4A8C0D9010D911C9111970617F2
:1016B0001707B0F00530110508F49BC0C801049766
:1016C0008617970708F495C002501109061B170BDF
:1016D000019311936D937C93CF010E94C60989C039
:1016E0005B01A01AB10A4C01800E911EA091290243
:1016F000B0912A02612C712CE12CF12C109709F485
:1017000046C08D919C911197A815B905B1F56C0152
:1017100042E0C40ED11CCA14DB0478F14C018A18D3
:101720009B08640142E0C40ED11C1296BC90129733
:101730001396AC91B5E0CB16D10440F0B282A383EE
:1017400091828082D9016D937C9309C00E5F1F4FF7
:10175000800F911FF90191838083EB2DFA2FE11403
:10176000F10431F0D7011396FC93EE93129741C028
:10177000F0932A02E09329023CC06816790608F427
:101780003C017D0112960D90BC91A02DB7CF8091A8
:1017900027029091280288169906E1F466167706CA
:1017A000C8F48091000190910101009741F48DB738
:1017B0009EB74091040150910501841B950BE817D9
:1017C000F907C8F4F0932802E0932702F901718326
:1017D00060830FC0CB010E942E097C01009759F055
:1017E000A801BE010E94070CCE010E94C609C701D4
:1017F00004C0CE0102C080E090E0CDB7DEB7EEE0DD
:101800000C941F0B81E090E0F8940C94470CFB01C2
:10181000DC0102C001900D9241505040D8F708956C
:10182000FB01DC0101900D920020E1F70895AEE08C
:10183000B0E0EDE1FCE00C940D0B0D891E898F8961
:10184000988D26E02C831A83098397FF02C080E0DD
:1018500090E801979E838D83AE01455E5F4F698D51
:101860007A8DCE0101960E944D074D815E8157FD14
:101870000AC02F813885421753070CF49A01F801EA
:10188000E20FF31F10822E96E4E00C94290BF894DB
:02189000FFCF88
:1018920000002B02800030303031300000000000A8
:1018A2004601AF00DD0093010E01EC00000125733B
:0618B2000020000D0A00F9
:107E0000112484B714BE81FFF0D085E080938100F7
:107E100082E08093C00088E18093C10086E0809377
:107E2000C20080E18093C4008EE0C9D0259A86E02C
:107E300020E33CEF91E0309385002093840096BBD3
:107E4000B09BFECF1D9AA8958150A9F7CC24DD24C4
:107E500088248394B5E0AB2EA1E19A2EF3E0BF2EE7
:107E6000A2D0813461F49FD0082FAFD0023811F036
:107E7000013811F484E001C083E08DD089C08234E0
:107E800011F484E103C0853419F485E0A6D080C0E4
:107E9000853579F488D0E82EFF2485D0082F10E0AE
:107EA000102F00270E291F29000F111F8ED06801E7
:107EB0006FC0863521F484E090D080E0DECF843638
:107EC00009F040C070D06FD0082F6DD080E0C81688
:107ED00080E7D80618F4F601B7BEE895C0E0D1E017
:107EE00062D089930C17E1F7F0E0CF16F0E7DF06D8
:107EF00018F0F601B7BEE89568D007B600FCFDCFD4
:107F0000A601A0E0B1E02C9130E011968C91119780
:107F100090E0982F8827822B932B1296FA010C0160
:107F200087BEE89511244E5F5F4FF1E0A038BF0790
:107F300051F7F601A7BEE89507B600FCFDCF97BE46
:107F4000E89526C08437B1F42ED02DD0F82E2BD052
:107F50003CD0F601EF2C8F010F5F1F4F84911BD097
:107F6000EA94F801C1F70894C11CD11CFA94CF0C13
:107F7000D11C0EC0853739F428D08EE10CD085E9AC
:107F80000AD08FE07ACF813511F488E018D01DD067
:107F900080E101D065CF982F8091C00085FFFCCF94
:107FA0009093C60008958091C00087FFFCCF809118
:107FB000C00084FD01C0A8958091C6000895E0E648
:107FC000F0E098E1908380830895EDDF803219F02E
:107FD00088E0F5DFFFCF84E1DECF1F93182FE3DFCA
:107FE0001150E9F7F2DF1F91089580E0E8DFEE27F6
:047FF000FF270994CA
:027FFE00040479
:0400000300007E007B
:00000001FF